S020000053696D756C6174696F6E426F6172645F32303137303330332E7372656308
S14300008835002049590000A95400004559000045590000455900004559000000000000000000000000000000000000455900004559000000000000998300003D840000AF
S1430040A15300006D2900006D29000061190000E1170000E11800005D160000FFFFFFFFFFFFFFFFFFFFFFFFFFFFFFFFFFFFFFFFFFFFFFFFFFFFFFFFFFFFFFFFFFFFFFFFA2
S1430080FFFFFFFFFFFFFFFFFFFFFFFFFFFFFFFFFFFFFFFFFFFFFFFFFFFFFFFFFFFFFFFFFFFFFFFFFFFFFFFFFFFFFFFFFFFFFFFFFFFFFFFFFFFFFFFFFFFFFFFFFFFFFFFF7C
S14300C0FFFFFFFFFFFFFFFFFFFFFFFFFFFFFFFFFFFFFFFFFFFFFFFFFFFFFFFFFFFFFFFFFFFFFFFFFFFFFFFFFFFFFFFFFFFFFFFFFFFFFFFFFFFFFFFFFFFFFFFFFFFFFFFF3C
S1430100FFFFFFFFFFFFFFFFFFFFFFFFFFFFFFFFFFFFFFFFFFFFFFFFFFFFFFFFFFFFFFFFFFFFFFFFFFFFFFFFFFFFFFFFFFFFFFFFFFFFFFFFFFFFFFFFFFFFFFFFFFFFFFFFFB
S1430140FFFFFFFFFFFFFFFFFFFFFFFFFFFFFFFFFFFFFFFFFFFFFFFFFFFFFFFFFFFFFFFFFFFFFFFFFFFFFFFFFFFFFFFFFFFFFFFFFFFFFFFFFFFFFFFFFFFFFFFFFFFFFFFFBB
S1430180FFFFFFFFFFFFFFFFFFFFFFFFFFFFFFFFFFFFFFFFFFFFFFFFFFFFFFFFFFFFFFFFFFFFFFFFFFFFFFFFFFFFFFFFFFFFFFFFFFFFFFFFFFFFFFFFFFFFFFFFFFFFFFFF7B
S14301C0FFFFFFFFFFFFFFFFFFFFFFFFFFFFFFFFFFFFFFFFFFFFFFFFFFFFFFFFFFFFFFFFFFFFFFFFFFFFFFFFFFFFFFFFFFFFFFFFFFFFFFFFFFFFFFFFFFFFFFFFFFFFFFFF3B
S1430200FFFFFFFFFFFFFFFFFFFFFFFFFFFFFFFFFFFFFFFFFFFFFFFFFFFFFFFFFFFFFFFFFFFFFFFFFFFFFFFFFFFFFFFFFFFFFFFFFFFFFFFFFFFFFFFFFFFFFFFFFFFFFFFFFA
S1430240FFFFFFFFFFFFFFFFFFFFFFFFFFFFFFFFFFFFFFFFFFFFFFFFFFFFFFFFFFFFFFFFFFFFFFFFFFFFFFFFFFFFFFFFFFFFFFFFFFFFFFFFFFFFFFFFFFFFFFFFFFFFFFFFBA
S1430280FFFFFFFFFFFFFFFFFFFFFFFFFFFFFFFFFFFFFFFFFFFFFFFFFFFFFFFFFFFFFFFFFFFFFFFFFFFFFFFFFFFFFFFFFFFFFFFFFFFFFFFFFFFFFFFFFFFFFFFFFFFFFFFF7A
S14302C0FFFFFFFFFFFFFFFFFFFFFFFFFFFFFFFFFFFFFFFFFFFFFFFFFFFFFFFFFFFFFFFFFFFFFFFFFFFFFFFFFFFFFFFFFFFFFFFFFFFFFFFFFFFFFFFFFFFFFFFFFFFFFFFF3A
S1430300FFFFFFFFFFFFFFFFFFFFFFFFFFFFFFFFFFFFFFFFFFFFFFFFFFFFFFFFFFFFFFFFFFFFFFFFFFFFFFFFFFFFFFFFFFFFFFFFFFFFFFFFFFFFFFFFFFFFFFFFFFFFFFFFF9
S1430340FFFFFFFFFFFFFFFFFFFFFFFFFFFFFFFFFFFFFFFFFFFFFFFFFFFFFFFFFFFFFFFFFFFFFFFFFFFFFFFFFFFFFFFFFFFFFFFFFFFFFFFFFFFFFFFFFFFFFFFFFFFFFFFFB9
S1430380FFFFFFFFFFFFFFFFFFFFFFFFFFFFFFFFFFFFFFFFFFFFFFFFFFFFFFFFFFFFFFFFFFFFFFFFFFFFFFFFFFFFFFFFFFFFFFFFFFFFFFFFFFFFFFFFFFFFFFFFFFFFFFFF79
S14303C0FFFFFFFFFFFFFFFFFFFFFFFFFFFFFFFFFFFFFFFFFFFFFFFFFFFFFFFFFFFFFFFFFFFFFFFFFFFFFFFFFFFFFFFFFFFFFFFFFFFFFFFFFFFFFFFFFFFFFFFFFFFFFFFF39
S1430400FFFFFFFFDFCFFFFFFFFFFFFFFFFFFFFFFFFFFFFFFFFFFFFFFFFFFFFFFFFFFFFFFFFFFFFFFFFFFFFFFFFFFFFFFFFFFFFFFFFFFFFFFFFFFFFFFFFFFFFFFFFFFFFF48
S1430440FFFFFFFFFFFFFFFFFFFFFFFFFFFFFFFFFFFFFFFFFFFFFFFFFFFFFFFFFFFFFFFFFFFFFFFFFFFFFFFFFFFFFFFFFFFFFFFFFFFFFFFFFFFFFFFFFFFFFFFFFFFFFFFFB8
S1430480FFFFFFFFFFFFFFFFFFFFFFFFFFFFFFFFFFFFFFFFFFFFFFFFFFFFFFFFFFFFFFFFFFFFFFFFFFFFFFFFFFFFFFFFFFFFFFFFFFFFFFFFFFFFFFFFFFFFFFFFFFFFFFFF78
S14304C0FFFFFFFFFFFFFFFFFFFFFFFFFFFFFFFFFFFFFFFFFFFFFFFFFFFFFFFFFFFFFFFFFFFFFFFFFFFFFFFFFFFFFFFFFFFFFFFFFFFFFFFFFFFFFFFFFFFFFFFFFFFFFFFF38
S1430500300900201C002020600900205B082B603409002067102B60200900207900141024090020760014202C090020780014402809002077001450200000001A000000C8
S14305402F0000002F0001000C000100110000003000000024000000240001002400020025000000250001001300000017000000210000002100010021000200120000006E
S1430580080000000B000000040000002B0000002B0001002B0002002B0003002B0004002B0005002B000600060000000600010006000200060003000600040006000500AB
S14305C006000600060007001500000015000100150002002A0000001000000003000000030001002D0000002C0000002C0001002800000014000000140001001400090067
S143060016000000160001001B00000022000000330000002900000010B5064C2378002B07D1054B002B02D0044800E000BF0123237010BD0004002000000000CCB90000D6
S143064008B5084B002B03D00748084900E000BF07480368002B00D108BD064B002BFBD09847F9E700000000CCB9000004040020200100200000000030B583B0002827D083
S1430680002925D000234B600B6043680C1C051C002B20D09A68002A1AD09269002A17D0186869469047002813D1009B6360AB68002B14D09A68002A0AD09269002A07D01A
S14306C0186869469047002803D1009B236000E0012003B030BD01235B424B60E7E701235B4223600020F4E7032302220370023B43708270C37000207047C04610B5041E26
S143070016D0002914D0406A8079C0060AD5002A10D063689A68002A0AD01B685842584180B210BD1943012303200B42F9D1EEE70120F6E70020F4E770B5151C041C2B1CA5
S143074062680E1CFFF7DAFF002820D1002D1ED0616A8B79DB0609D46268002A17D00C486B08834200D9031C103108E06268002A0DD007482B1E834200D9031C11310120E0
S14307802075946810689BB26468321CA04770BDFFFF0000F0B54E4645465746041CE0B4161C82B0A268331C0D1CFFF7A7FF002803D1E3680830002B05D002B01CBC90463D
S14307C09946A246F0BD0222676ABB79DB06DB0FD31A9846A3689A46002B58D0012E56D94346F31AEB18E360434623610F2399464346B944022B4DD04146301C07F0F8FF9B
S14308005246031C91681068244A013B934200D9131C4E689BB2291C4A46B0470028CCD12023BA78012113431F22BB70A37D002013400A1C9A40131C194A13606B46BA789D
S14308400733D2B21A70BA78D2B21A70BA78D2B21A7080221B78BB7852421343BB706378002BAAD14346EB18E360BB792A781B09194206D13B79DB09FCD092B2FA81002070
S14308809BE73B79DB09FCD0FA70002095E7E5602661C5E70C339946B944ADE7FFFF000000E100E0F0B54F464646C0B483B0002800D197E04368041C002B09D09A68002A8A
S14308C000D18FE01868002800D18BE0D3699847A368002B08D09A68002A00D182E0186800287FD0D36998471F22A17D904611401E3A101C884080270026011C3C48636A29
S1430900E661C15169467F25844698780331C0B208709878C0B208709878C0B208700978997829409970217E607D894641460840111C8140081C6146C851414648460840CE
S1430940011C101C8840011C6046C151694698780231C0B208709878C0B208709878C0B20870402009789978814340469970E17D01408A406146CA516A4699780132C9B2DE
S1430980117099780130C9B2117099787D3FC9B21170042112789A788A439A709A780C318A439A709A7882439A700222997811409A78BA430A439A70DA791540DD71DA79D7
S14309C001AD8243DA711E722378281C6B8014236E702B7004F060FE281C04F0F5FEA662002000E0012003B00CBC90469946F0BD00E100E0F0B544465F464D465646F0B440
S1430A0089B005AC071C201C0D1C904604F022FD574B20789B6906A9019398470323002807D0181C09B03CBC90469946A246AB46F0BD002D7BD1069B4E4E5A0A99464E4B20
S1430A405A43019200229B460392FF3202924346348848465C43211C07F0CAFE002812D0431E9A46FF2B0ED8211C41430198490A07F0BEFE414B9C466044584503DA534697
S1430A80834602930395013506360D2DDFD13A4A03239345C5D0BA7803989A43BA706A468446117A420033486244844601245200797062449178333521408801F979A94304
S1430AC00143F971D178303D21400801F979A9430143F9711179083D2140C800F979A9430143F9713878517998431940031C0B433B70FB799B081C4232D00023079313887F
S1430B0042461B025A43029849460130504307F06FFE0790079B7F2B22D98023079A5B009A421DD8079BDBB2BB74002379E7FF2240217A70FA798A43FA71FA7938398A4327
S1430B40FA713A789A433A70BA789A43131C02221343BB70022D05D01022FB799343FB7100235EE71023FA791343FB71002358E7F8B1000078AF000010270000F0D8FFFFFF
S1430B80F0B5474680B48C4682B0002800D191E001271F22837D904613403A1C9A40131C80224549446A8B50A57801ABEDB21D70A578EDB21D70A578EDB21D707F251B78F5
S1430BC0A3782B40A3704346467D057E1E403B1CB3408B5043461D403B1CAB408B506B46A5780533EDB21D70A578EDB21D70A578EDB21D7040251B78A378AB434546A370A0
S1430C00C37D2B403D1C9D406B468D50A2780633D2B21A70A2780021D2B21A70A278D2B21A7004221B78A3789343A370A3781C329343A370A378103A9343A3700323A278D2
S1430C4013422AD16246051C0320002A2ED11023A2781F2613430122A370297E6B7D151C33409D402B1C144D2B60331C0B409A406B462A60A2780733D2B21A70A278D2B2FB
S1430C801A70A278D2B21A701B784023A2781343A37002B004BC9046F0BD6246E179051C09090F40D91B0320002AD0D0201CFFF7A1FECCE70120ECE700E100E0F0B54D463A
S1430CC05F4656464446F0B4051C93B0002800D14FE3002900D14CE30B7A0320022B06D913B03CBC90469946A246AB46F0BD8B7A012BF5D84B7A022BF2D80B6A002B06D0EF
S1430D001B78002B00D036E34B68002BE8D00B7807AF7B8000237B7014333B70EF4B09AE9946DB680291381C311C019398470028D6D1099BEA4A6B629846F3880DAE1B07DA
S1430D409B0FD35C381C6B70029B02211B7B321C9A464B461B690193984733786B750028BED15AB2002A00DA0AE3DE4891088446C0208900614480000C58A446032423402D
S1430D80DB00FC34A1469C40A3466446584684435046A4464C46800104409C406046231C0343C02080000B50CF4BD2001B68381C0393D35805211D60029B321C5B7B994609
S1430DC0019B98473378AB75002800D088E75AB2002A00DAEFE2C34891088446C0208900614480000C58A44603242340DB00FC34A2469C40A3466446584684434846A4464E
S1430E005446800104409C406046231C0343C02080000B50039BD200D358381C1D60029B04219B7B321C9946019B98473378EB75002800D054E759B2002900DAD7E2A94AA9
S1430E4088089446C02280006044920094468258924603221A40D300FF22544693469A4094434A46A2465C46920122409A40131C5246134362468350039BC900CB58381CEA
S1430E801D60029B0121DB7B321C9946019B984733782B76002800D022E759B2002900DAC1E2904A88089446C02280006044920094468258924603221A40D300FF22544681
S1430EC093469A4094434A46A2465C46920122409A40131C5246134362468350039BC900CB58381C1D60029B1B6A039304F03CFC002800D0F4E602990A694B696A60AB603B
S1430F00002A58D09368002B00D132E21368002B00D12EE25368002B00D12AE21A68002A00D126E2D1780C30894684464C4691788143333020406446A043D0700820014308
S1430F401830814391700299097A022900D1C0E23020D1788143D170321C13CB13C203CB03C208AB99464A46029C484623780221538000239B464B465A465A7014234A46CD
S1430F80137006AB9A461A1C019B984753461B785BB2213300D1ECE153465B78311C33715B46737123699A68186812689047584500D095E66369002B00D132E39A68002A0B
S1430FC000D1D6E11A68002A00D1D2E15B68002B00D1CEE11A68002A00D1CAE1D178907889460C214C468C46333121406446A143043C2143D1706146884314318843029999
S14310009070097A022900D104E33020D1788143D170321C13CB13C203CB03C208AB99464A46029C484623780521538000239B464B465A465A7014234A46137006AB9A4658
S14310401A1C019B984753461B785BB2213300D18FE153465B78311C33715B46737163699A68186812689047584500D038E6381C04F018FB0023424641461370937013714A
S1431080F2228A710D324A708A74184ACB710B724B728B72CB720B734B730B738A8240224B830323CA7401220B77DB180B77029B141C1B78687D2B701F2318408440201C26
S14310C0084C297EA4468024A3460191644659466050101C01995C460AE0C0460CB10000C8AF000000E100E014B3000000F8FFFF19408840011C60460151414689784020C7
S1431100C9B2317041468978C9B2317041468978C9B23170317841468978814340468170101CA97D19408840011C60460151414648468978C9B2017041468978C9B20170DD
S143114041468978C9B2017049460978414688787F21014040468170E97D0B40111C99400B1C61460B51434651469B78DBB20B7043469B78DBB20B7043469B78DBB20B70A4
S143118053461B78434604219B788B4341468B708B7810218B4341468B708B7820218B4341468B706978002900D17FE143469B8A934342469382938A022213434246938246
S14311C0029B5B69002B00D137E2928AC54B1340424693824A1E0F231A4043469B8A11031B051B0D0B4341468B828B8A04210B43414640468B820121029C838A9B0819420C
S1431200FBD1636980460294002B00D10EE2F022838A93438382039B002B00D124E19B78002B00D13DE143468022DB79524213434246D371039BDA784346DB79002A00D008
S143124028E120218B434146CB710A72039B1B7A002B00D117E143460422DB7913434246D371434601225B7A0299934342460E6A53727F23527B134042465373537B4022D0
S14312809343424653734B7A002B00D11BE113782022134342461370029B5B7A012B00D1B1E1434610221B78934342461370029B1B7A012B00D198E1022B00D189E1434652
S14312C040221B7893434246137093791022134342469371029B9B7A012B00D18CE1434608221B78934342461370029BDB7A002B00D1E1E0434602225B7B134342465373DB
S1431300002E00D176E1002133788B4205D0022B00D1E5E0032B00D1E2E0029B5A68002A00D0E3E043469A7802231A40434603219B788B431343424693706B68002B03D0EB
S14313409A681868D2699047AB68002B03D09A681868D26990474346DA797F2313404246381CD37104F098F9381C04F02DFA0320B6E40120B4E4023B012B00D9B0E4C6E455
S143138003240F215848DBB2844619402340DB00FC34A1469C400839890889006144C869A043844650464C4680012040984063460343CB61F8E403240F214B48DBB284465A
S14313C019402340DB00FC34A2469C400839890889006144C869A043844648465446800120409840031C60460343CB6112E503243D4ADBB294460F3018402340DB00FC3457
S1431400A2469C400838800880006044C269A24394464A465446920122409A40131C62461343C36128E5304ADBB294460F3018400838800880006044C269944603221340D6
S14314409340FC32141C9C40A24693466446524694434A46A4465C4692011440221C9A4063461343C36139E54346DA797F2313404246D371D379202293434246D3716A46A8
S14314804346127B1A7243460422DB7993434246D371E6E6202213434246D37100231372D4E64346DA797F231340C1E643469B8A934342469382AEE6434602225B7B9343C9
S14314C0424653731CE713782022934342461370E2E6D1781030814320380143D1703BE5191C1AE7FFF0FFFF00ED00E04046FFF781FA032800D115E7002E02D07378002BE2
S14315005AD143469A7802231A40434603219B788B431343424693706B78002B11D001224146029C8B8A5B081A42FBD101228B8A9B081A42FBD10122884602948B8A134327
S14315408B82434608229B8A0020934342469382029A1F2113782B70D3692B6293691022EB614346E860286128759B781343424693700122141C6B7D2E7E0B409C40231C72
S14315803140344C8A402360434622609A7804ABD2B2DA71424692780733D2B21A7042469278D2B21A701B78434640229B78134342469370FFF794FB4346032101229B78FA
S14315C00B401A4343469B788B43134342469370A2E7434640221B789343424613709379102293434246937174E6434640221B78134368E6311C90E6434608221B78134391
S14316004246137071E6434610221B781343424613704CE63020D178814320380143D170F7E408AB994606AB9A4620E5F021838A12018B431A438282EDE50F234A1E134007
S143164019024346988A044B03400B4341468B82C1E5C04600E100E0FFF0FFFFF0B5474680B484B0EFF30380103840B204F050F8EFF30383584A103B12685BB2DB009B58B3
S1431680019219684B784A6A002B43D00226D48A9079E404C006C00F301A8E68E40E1D1B002E41D0002C5CD00B69002B2ED101201F26041CCB7D494D33409C402C60947867
S14316C002ABE4B29C7194780633E4B21C709478E4B21C7004241B7893781C4394708B7D334098408023E850907802ABC0B2D87190780733C0B218709078C0B218707F205D
S14317001B789378034093700023CB6004B004BC9046F0BD022690790025C006C00F301A8E680024002EBDD10C69002C4FD0FF36B046FE3E041CB446002B01D0002D40DDEA
S1431740CE68012837D03688002B19D1674693791B091F4228D0F6B21379DB09FCD0D67016E0CB681C781379DB09FCD0A3B2D381CC680B69A4461B1A60440B61C86094E7B0
S14317801379DB09FCD0331C46463340D381013D0B69CE681B1A3618CE600B612618A3420BD94B78341CC7E71379DB09FCD0F305DB0DD381ECE73678C6E74878002800D123
S14317C073E77F201379034013710B696DE7002B00D16CE7F5E7C04614B3000000E100E0F0B55F4656464D464446F0B487B0EFF303833A4A103B12685BB2DB009B5801921B
S14318001D6801262B786F6A99466B78002B02D0FB8A1E361E4001220221BB791B091340CB1A98466B68002B02D02B7D002B46D1002E29D0FF239B46FE3B9A4615E05B463F
S14318403C8A1C40EB69002B0CD04A4602922A6A02A90592802204940A71081C98474346022B26D0013E002E0ED06B78002BE6D15246BB791B091A4203D13C8AE405E40DB9
S1431880E0E77C79E4B2DDE740223B7993433B713B793F3A93433B71EFF30380103840B203F036FF07B03CBC90469946A246AB46F0BD240A049402A8EB699847D2E7002199
S14318C0EB692975002BB3D048460491296A0290059102A90A71081C9847A9E714B3000030B589B0EFF30380103840B203F010FFEFF303831F20184A103B12685BB2DB0071
S14319009B5801921A68154DD17D536A01401E388840011C802014782950987802A9C0B2C87198780731C0B208709878C0B2087004200978997881439970D369002B08D0B9
S1431940002104A8126A8160023104940171C260984709B030BDC04614B3000000E100E030B587B0EFF30383244A103B12685BB2DB009B5801921A680023FF214020546ABF
S143198015780293039304930593238A194023798343237123793F388343237123795B09184218D0202302A80371D369002B06D0126A02950491059202A80192984738223E
S14319C0237993432371EFF30380103840B203F09FFE07B030BD23791B09184206D0237F184207D1102302A80371DEE7042302A80371DAE7082302A80371D6E714B300005D
S1431A00F0B5124C031C2568020A0320AA421AD2FF2501262B401D1C9C46331C1035AB401D1C63689700FF582F420CD000290BD01201131CA06863449B00C31800201B684F
S1431A405B0833400B70F0BD0120FCE75C010020094B000A1A68904201D303207047002907D0DB6840010433C018036800200B80F4E70120F2E7C0465C010020094B000A24
S1431A801A68904201D303207047002908D0DB6840010433C018036800201B0C0B80F3E70120F1E75C010020F0B546464F461B4DC0B42B68020A03269A4224D2FF2301247C
S1431AC09C46034092001F1C9046221C1037BA40474691466A68BA584F463A4213D0002919D062469043EA68000A0432400180180268201C9840120C83B21A409A4207D089
S1431B00002300260B70301C0CBC90469946F0BD0C700026F7E70126F5E7C0465C0100200A4B10B51C68000AA04201D2002A01D1032010BDDB6840010833C018131C8B4384
S1431B401B040A401A4342600020F2E75C010020F0B54746194A80B41568030A0324AB420FD20126FF25371CA8460540AC461035AF403D1C57689B00DB592B4201D00129F5
S1431B8003D9201C04BC9046F0BD4346984301290DD0311C634699400E040021D368000A40010833C018314341600024E9E7634699400904090C0026F0E7C0465C01002093
S1431BC0032302220370023B43708270C37000207047C046F0B50323012901D9181CF0BD294C020A2568AA42F8D2FF252840071CFE3D1037BD4067689600F6592E42EDD0AF
S1431C0012011018A36880001B1825691868002937D0042210431D4C0440EFF31086012282F310881A4A118889B2002902D1E9704031E9701188013189B2118086F310889C
S1431C401E68C10305D51349314019601249084018601C60EFF31081012383F310881388002B03D01388013B9BB2138013889BB2002B02D1EB708033EB7081F310880023EC
S1431C80ACE704229043C6E75C010020D5FC011F1C040020FFFFFEFFD5FC001F30B50324002A01D1201C30BD084D030A28688342F8D25801EB6800240833C018131C8B43BC
S1431CC01B040A401A430260ECE7C0465C01002030B50324002A01D1201C30BD0A4D030A28688342F8D25801EB6818180B1C04681340234304689BB2240C8A4324049343D2
S1431D00234303600024E7E75C01002070B582B001AC051C201C0E1C03F0A8FB23780620DB0701D402B070BD0338202DFAD8012EF8D8084B1A691378012E05D01D4330237E
S1431D401D4015700020EDE730210B40AB4313700020E7E75C010020F0B55F4656464D464446F0B400285DD00388002B53D02E4B00219C46FF239A4680235B0299462B4B69
S1431D802B4A984644686346A34657461E69CB005B449C881D68230A1B013C401B196446A4689B00A3465B44EFF3108B012484F310881488A4B2002C02D1F4704034F470A7
S1431DC014880134A4B214808BF310884F461C683D4205D047463C401C6044462C401C601D60EFF31084012383F310881388002B03D01388013B9BB2138013889BB2002B22
S1431E0002D1F3708033F37084F310880131038889B28B42B6D800203CBC90469946A246AB46F0BD0120F7E75C010020FFFFFEFF1C040020F0B54746002380B486B001AC7A
S1431E406380637009232370114B02AEDF688046311C201CB8470F4D029B311CEB60F368201C6B60B3882B600A232370B847029B311CAB600123201C6370B847029B404686
S1431E802B61FFF769FF06B004BC9046F0BDC0460CB100005C010020F0B5264C031C2568020A0320AA423ED2FF252B401F1CFE3D1037BD4067689600F6592E4233D012018A
S1431EC0D318A2689B002569D318EFF31084012282F31088184A108880B2002802D1E8704020E8701088013080B2108084F310881868CC0304D5114C20400C4018601C6039
S1431F001960EFF31081012383F310881388002B0AD113889BB2002B02D1EB708033EB7081F310880020F0BD1388013B9BB21380EFE7C0465C0100201C040020FFFFFEFF6B
S1431F40F0B50323012901D9181CF0BD2A4C020A2568AA42F8D2FF2501262840051C8446301C1035A840051C606897003F582F42EAD012016244A36890001B1825691A68F8
S1431F80012937D0B243111C1C4C0C40EFF31086012282F310881A4A108880B2002802D1E8704030E8701088013080B2108086F310881E68C80305D51248304018601248C2
S1431FC0014019601C60EFF31081012383F310881388002B03D01388013B9BB2138013889BB2002B02D1EB708033EB7081F310880023A9E71143C7E75C010020D5FC011F34
S14320001C040020FFFFFEFFD5FC001F82B0002806D0044B1B6803600020019302B070470120FBE768B0000070B5151C1C1C01291FD0002912D002290ED10023002106F0DE
S1432040B3FD144A0023002606F08EFD854209D0431C1BD0002916D0032070BD002100268542F5D18E42F3D10120404220600020F3E70023002106F097FD64220023002619
S143208006F072FDE2E7A842E6D8EFE70029E1D1ECE7C046A0860100031E0ED0084AD9680720914200D070479B68002B05D00121DA6A00208A43DA62F5E70120F3E7C04613
S14320C054504700031E0ED0084AD9680720914200D070479B68002B05D00122D96A00200A43DA62F5E70120F3E7C0465450470010B5031E07D0002905D0074ADC6807208D
S1432100944202D010BD0120FCE79B68002BFAD09B6C00200B60F5E75450470010B5031E1ED0104AD9680720914200D010BD9A68002A15D0EFF31084063880F310889B68F8
S1432140DA6AD96A02408143D96200219964111CDA6A82430A43DA6284F310880020E5E70120E3E754504700F0B54F4646460024C0B41E1C4C4B85B09B69814688460D1CBF
S14321800394032003A9171C01939847062F00D984E0464BBF00DB599F46FA2292006A4303980021002306F0DFFC051C0C1C4B461F78012F09D0002300200C9A13703560AE
S14321C005B00CBC90469946F0BD002C68D0384B9C46002301E0052B12D0A107A808A208014301330D1C141CDBB2002AF3D16145F1D8012FE0D12E4A03209542E0D8DBE793
S1432200012F4BD00320002ADAD1D5E7039A00234046002106F0C8FC264A002306F0A4FC051C0C1C4B461F78012FCED0002CC2D001235B429C46CCE7039A00234046002197
S143224006F0B2FC1C4A002306F08EFC051C0C1CE8E7039A00234046002106F0A5FCFA220023920006F080FC051C0C1CDAE740460021039A002306F097FC051C0C1CD1E759
S1432280002303980021424606F06EFC4B461F78051C0C1C012F00D08DE796E703208FE7034B9D4293D886E7F8B1000024B00000FFFF000000CA9A3B40420F0070B5031C64
S14322C084B0002834D01B4CDD680720A54201D004B070BD986800282AD003200029F7D01C1C0B250023201C6D442B7003931330009503ABFFF738FF0028E9D1012607214C
S1432300A368DC6ADA6AB243DA622A78DD6A0A401106094A2A400A43211CDA62039A3140013A5A669864DA6AB2430A43DA62CFE70120CDE754504700FFFFFFF8F0B54746A2
S143234080B4031C84B000280AD0002908D01C4ADC680720944205D004B004BC9046F0BD0120F9E79F68002FFAD01C1C7B6E0D1C01338B6000230393FE6A9846114B360E53
S14323809B69064003A904380193984770000126311C8140039806F02BFA68603B6B33402B70FB6A1E4209D043462B73227C00205300D3185B004F336B73CDE72E73F5E7F0
S14323C054504700F8B10000F0B5041C83B0002826D02A4DE6680720AE4201D003B0F0BDA768002F1CD0151C1E1C00237A6E081C01930132291C01ABFFF716FE0028EDD1B6
S1432400019BA268002B0DD1002E15D0012EE5D1116B1B4B0B40802189040B431363DDE70120DBE7591C14D0002E0DD1146B1549214011635365D1E7116B124B0B408021DF
S143244089020B431363C9E7012E12D093650020C4E7002E07D0012EC0D1C021136B89040B431363BAE7C021136B89020B431363B4E7106B024901401163E7E754504700F2
S1432480FFFFFFFCFFFFFCFF30B585B000283CD01F4AC1680723914202D0181C05B030BD8368002B31D0C0219A6B8A439A630122D96A9143D962817C4CB2213405D01F24FD
S14324C021408A408021134C6250041CD98E124A03A81140D986998E00250A409A86237C457043802B23037003F06EF912236574E3561A1C213205D0084ADB0012689B5896
S143250001921D600023E360C7E70123C5E7C0465450470000E100E0FFFEFFFF14B30000F0B55F4656464D464446F0B48DB0002900D106E1002800D103E1002302AAD37279
S143254006934A7C07AE72802B22D64F73700893FB680C1C051C3270301C08A903939847002806D00DB03CBC90469946A246AB46F0BD089B0621AB6005AB98463B69424624
S1432580301C0393984743461B785AB2111CAB7421312BD0C449D00009688C46039160448346A17C002A00DA63E1C04892088446C020920062448000824610588901844687
S14325C003200340DB00FC3080469840814660464F46B84384464046014099400B1C61460B43514653505B461B681D6002ABDB8B5B0700D4A7E00023EB74301C03F0B4F831
S1432600031C0820002BADD102A98C46281C0B336344227A00931330616806ABFFF7A4FD071E00D07BE16369002B00D18CE11222AA56213200D18CE12B60A3696B60637CF1
S14326402B742378012B00D16EE100220892022B7CD0301CAF6803F025F80121FB6A01228B43FB62A5231B023B608820002352423B617B617B61FB613B627B62BB62FB62D0
S143268039637B63BB63FB633B64BB64FA643A657A65BA657A66BA663B5004303A500698AE688446089802AA8246F06AD27A804647467F4838400227F062306B3843306330
S14326C0306B08433063306BB8433063072002401006F26A90464746764A3A400243F2626246013A7266B364E269002A06D01078002800D07BE09378002B35D1C022B36BEF
S14327009343803A1343B3636369002B28D01220285602F0FDFF1F22AB7CC02113401E3A9A40131C614A490053501360E37C002B03D00123F26A1343F3625F4B0020EB6068
S143274010E701200EE70123EB7456E7217CE068069A08ABFFF768FC002800D179E701E72378012BE2D1D2E7012110272378D2789C46AB6811400801998EB943014303206B
S14327809986024091019A8EB037BA430A439A860C22998E0A439A866246012A00D19EE06246002A00D191E00C219A8E8A4308210A4301219A869A8E82430A439A86196CF8
S14327C03E4A0A408021C9020A431A645246002A00D09AE0196B3A4A0A40802189040A431A6380219A8E49000A439A8686E750781027844620788046604601400801F18EF4
S1432800B9430143F186032189466146484601408801F18EB037B9430143F1860C21F08E0143F1864146012960D0002952D00C21F38E80208B4308210B434946F386F38E20
S143284040028B4301210B43F386336C1D490B40034333645346002B4ED1336B194080239B02194331638021F38E49000B43F38641E70F22DFB20320134B3A409C46083AE9
S143288007409208FF00FC30920062448446B840D3698901834360460140B9400B43D361A1E6C0460CB1000014B3000000E100E0FFFFF8FFFFFFFFF854504700FFFFF3FF89
S14328C0FFFFFFFCFFFFFCFF00ED00E09A8E82439A8686E74946F38E8B43F386C3E700221A650322998E0A439A867AE7F3640323F18E0B43F386B6E7534601331ED0336B26
S14329001940534631637365ADE7524601320FD0196B154A0A401A6352469A6561E7301C02F052FF381C1DE66B740023089390E6C0211A6B89040A431A6352E7C021336B00
S143294089020B4333638EE72278012A00D076E66DE6301C02F038FF1223EB560B20213300D1FFE5636967E6FFFFFFFC10B584B0EFF30383174A103B12685BB2DB009B5898
S143298001921C68EFF30380103840B202F0C0FE002C1DD0A368002B1AD0627C002A08D12368002B03D0626802A80292984704B010BD0121DA6A8A43DA6200229A649A6B0E
S14329C0BF318A439A63DA6B80398A43DA63E7E700BEECE714B30000024B00201A68024B1A6070479CB17F407001002000280CD0074B1A6800239178002902D1036000205E
S1432A00704753689B00D318F8E70120F8E7C0467001002000280ED0084B1A6853689B00D3181A7902601A7A42601A7B82601B7CC360002070470120FCE7C0469CB17F40BF
S1432A40F0B54F4646468946C0B4944600282FD0002A2DD0174B1E68002E1FD0164B07781B68002403E001340833B44216D09D79BD42F8D15D794288AD089542F3D1DA7945
S1432A80417815072D0F8D42EDD112094A45EAD162469B8814705370002005E0DF2362460B201370203353700CBC90469946F0BD0120F9E70409002014B3000082B0002811
S1432AC006D0044B1B6803600020019302B070470120FBE724B10000F0B55F4656464D464446F0B4002867D0002965D0844B05781E68B378012B4BD9B3689A00B3189A788F
S1432B009346954200D3A4E00F275A687D4C914622602A0994001C19904622892F409446FA40D20700D494E0A47A072F11D96246120A944602229246D04442469200904673
S1432B4098444246D27807271207120F90462F4044445A4665461209023292009A186A4BDB5D6A4F1D407B5D1C1964001219138852789B051B0DF318D2090CD14278002A1D
S1432B8059D063483CBC90469946A246AB46F0BD00239B78FFDE1A7845785208002D14D001265C4F1C78013D2642EAD0052A00D9A4E09200BA5897460120E3E708229B18A2
S1432BC01A785408221C002DECD1032A63D043D3042A73D100200024DA7812094A72DA781207120F8A725A788880CA800C72C8605B680B609307C4D50020C3E79A781201C4
S1432C000432DCE71C799A78624303340332A40812199200D3E71A790332920803329200CDE70C22CBE79C78620003340132A40812199200C3E7DA7812094A72DA78120778
S1432C40120F8A7201228A804288002A38D0324898E7AF20C00095E7DC7824094C72DC782407240F8C721C79A5B28D8040888542EDD99E68DD88B446454365440D60551E53
S1432C80012D27D95D78CD80022A2AD0002300200B72CB6076E7DA78002012094A72DA781207120F8A725A78CA809A7804338A8004220A720022CB600A6063E7642061E7A3
S1432CC018880002484408609B780020CB800A72CA6057E71D182D7BCD80002DD4D10E4850E79A7803340A724243A4081219023292009B180433CB60002043E700225EE7A2
S1432D00700100202004002084B000008CB00000790500006CB000007A050000034B04301B6889B28000C15200207047240400200022034B04301B688000C25200207047AD
S1432D40240400208021044B49421A68002013780B4313707047C046240400207F21034B00201A6813780B40137070472404002082B0002806D0044B1B6803600020019388
S1432D8002B070470120FBE744B1000000280DD0012801D0012070470022094B00201B681A7140321A7101321A71F4E74022044B1B6898709A7001329A700020EBE7C04622
S1432DC02404002070B588B0002836D000230B2203930493059306930793194B03AEDB68041C3270301C04A901939847002801D008B070BD049B134D301C2B6002F052FC3A
S1432E006368002B0ED000212868A3684A009C4662441378527804339B001A52636801318B42F2D82378002B05D080212A68494213780B4313700020DAE70120D8E7C04689
S1432E400CB10000240400200620704706207047002810D00523C3560F4A99008A589168002908D05268002A05D001680B4A0720914202D070470120FCE7094AC0331268BA
S1432E809B009858074901408020995099584004014399500020EDE7000800200043544428040020FFFFFEFF031E11D0094A19680720914200D070475B79074A5BB21168C7
S1432EC0C0339B005858054A02405A500020F2E70120F0E70043544428040020FFFFFFFE002837D0002935D000221B4B1B68DB898A719BB21AB2002A1CDB052282563F20E3
S1432F00164B9200D258D3788343802B0BD0D28992B28A80402B15D0002B06D1802300205B020B60704793898B8080235B000B600020F7E7052282565BB29A42DFD1012352
S1432F408B71DCE7BF331A4080235B008A800B600020E7E70120E5E7C00800200008002082B0002806D0044B1B6803600020019302B070470120FBE770B10000F0B54F4604
S1432F804646C0B483B0019100920AAA14780BAA11880122002808D0002906D0002B04D0324D06680632AE4205D0101C03B00CBC90469946F0BD2E4A052591464E4645576B
S1432FC0AA00B7583F26FA78B243802A3BD0294AC0351768AD00EA5994466646264A3240EA51264A10271268904645461278BA432A70019A002A35D005224D468256019F7A
S14330009200AD586F60009F002F03D04D46009FAD58AF604D46AA583F27D678351CBD43802D15D0002D00D1D181FFF711FF43461A781023134342461370431E984113229F
S143304040420240B1E7FF897F3A002FBFD1ACE79181D38103231C402D3324019E433443D470E2E7052282569200CCE7004354440008002028040020FFFFFFFEC008002015
S143308070B582B0019100920122002806D0002B04D02749046806328C4202D0101C02B070BD05213F264156224D8A00AC58E278B243802A31D0204AC031146889000E59D2
S14330C01E4A32400A5110211D4A146822788A432270019A002A27D005228256019E9200A9584E600099002902D0A958009E8E60A9583F25CA78AA43802A13D0002A00D1B2
S1433100CB81FFF7A5FE1023227813432370431E9841132240420240C0E7E4897F3A002CC9D1BBE78B81ECE7052282569200D9E7004354440008002028040020FFFFFFFE0E
S1433140C008002010B5031E18D00D4A19680720914200D010BD0B4A0B49106805229A56C0329200145821401150052200219A5606489200115019600020EBE70120E9E767
S14331800043544428040020FFFFFFFE00080020F0B54F464646C0B489B0002869D0002967D00B68002B64D09D783F262A1CB243402A5ED0DC780122A709032F53D0A70645
S14331C0BF0F032F4FD00C273D40042D4BD02740042F48D0B44304D0DC8980235B009C4241D84A4B02689A4245D0494F0D1C3B78061C002B41D0474B19682879002303E05D
S14332000133302B00D16DE01A1CC03292005458DFB2E4B2A042F3D152583F489B003271C258002A27D12A683F2400E01032D178A14301D0917BD1739178A143F6D11021B5
S1433240364A8846146822788A4322702A68C2502E4B777133606B79002B49D110232278134300222370101C09B00CBC90469946F0BD0122F7E70822F5E703AC6380637073
S143328008232370264B201CDB6804A901939847021EE8D1214B049A201C1A60984602F063FA0A220028DED1201C02F0FBF91A4B00219946181CC02206F0B9FD43464A4611
S14332C01B68201C5A600122197B0A431A73062304A92370019B98470E4B0499196001233B708AE79F239B00CB580B223371BAE7301CFFF7ADFD4346227813432370031C24
S1433300581E834113225B421A40ACE700435444C40800202804002000080020C00800200CB10000074B1968074B8A69C9691A60064AD9605A60802212029A601A6100225C
S14333405A617047900100207401002000127A00F0B54746344B80B41A682823D25C083313400DD0041C102B0DD0202B3BD000252E4E291C281C05F0FDFF05F03FFC706110
S143338004BC9046F0BD0321038D0B4028495B005D5A002DF4D00321530607D5038DDB06DB0F013B5A1E93415B4219401F4E8900705806F0F7FA071C281C06F0F3FA011C15
S14333C0381C05F0E5FD051C208D8004800E06F0A1FAFE21890505F05FFCFC21890505F0C9FF011CC6E72B27C35D124A9B095B009D5A002DC4D00D4EF06806F0D3FA80463D
S1433400281C06F0CFFA011C404605F0C1FD051C1F20E35D184006F0C5FAFE21890505F03BFC011CA6E7C0469001002074010020E0B10000D8B100002022F8B50C1C0B4B2C
S1433440051C1B6800209E5C01329F5C02F02CFA211CB9400648F2B22B5C1140934319432954002002F0F6F9F8BDC04690010020130400002222F8B50C1C0B4B051C1B68FE
S143348000209E5C01329F5C02F00EFA211CB9400648F2B22B5C1140934319432954002002F0D8F9F8BDC046900100208104000038B5051C00200C1C02F0F6F9052C09D8FA
S14334C0134BA4001B599F4690220121D200AB5C8B43AB54002002F0BDF938BD2A220121AB5C8B43AB54F5E736220121AB5C8B43AB54EFE738220121AB5C8B43AB54E9E7D4
S14335009222E2E732220121AB5C8B43AB54E1E774B1000038B5051C00200C1C02F0C4F9052C09D8134BA4001B599F4690220123D200A95C0B43AB54002002F08BF938BDDC
S14335402A220123A95C0B43AB54F5E736220123A95C0B43AB54EFE738220123A95C0B43AB54E9E79222E2E732220123A95C0B43AB54E1E78CB1000003290FD0052908D008
S1433580002901D0002070473C23C35C01201840F9E73C23C05C8006C00FF4E73C23C05C0007C00FEFE7C046052916D80C4B89005B589F469023DB00C35C012018400123A9
S14335C0584070472A23F7E73623F5E73823F3E79223DB00F0E73223EEE70020F1E7C046A4B10000036A2623C35C704738B5051C00200C1C02F058F901234021054A1C40AA
S1433600A301AC5C00208C431C43AC5402F022F938BDC0461304000038B5051C0020141C02F042F9A2220F21AB5C0C408B431C43AC54002002F00EF938BDC046084B1A6885
S14336402823D35C3022134004D12C3A82425B41D8B270470023052282425B41D8B2F8E7900100200622002382425B41D8B270472623C35C072018407047C04638B5051CE9
S143368000200C1C02F010F926220721AB5C0C408B431C43AC54002002F0DCF838BDC046084B1A682823D35C03225B0601D4101C7047038DDB06DB0F013B591E8B415B42EE
S14336C01A40F4E79001002038B5041C00200D1C02F0EAF8032D07D01023228D13432385002002F0B7F838BD1022238D93432385F6E7C046F0B547462825302480B41C4E65
S1433700071C336888465B5D2340102B17D0202B02D004BC9046F0BD002002F0C5F8404605F06CFA2B2201381F21031CB85C0B4088431843B854002002F08CF8E9E70020B0
S143374002F0B2F84146404605F0A6FA05F056FA3F23013818400302064A388D104018433885002002F076F833685B5D2340CEE790010020FFC0FFFFF8B546464F462825D9
S14337803024C0B41C4E804633680F1C5B5D2340102B1AD0202B03D00CBC90469946F8BD164B7F000020FC5A02F07EF803232B2142461C40A3013F24525C002014401C431B
S14337C043465C5402F046F8E6E70D4B4A00D35A0020994602F068F8434603214A461B8D0A408B43134342460020138502F032F833685B5D2340CDE790010020F0B1000004
S1433800E8B10000244B70B51A682923D35C051C0024180703D50878073404402403D80606D50726487830401C4E000234400443980606D507268878304069360001B4430E
S14338400443580604D50726C878B443304004432A20125CD20706D50A79233802401048120404401443DB0906D007224B7913400C4A1B0714401C4307228B790020134051
S1433880094A1B0614401C4302F00EF82C62002001F0E0FF70BDC04690010020FFF8FFFFFFFFF8FFFFFFFF8FFFFFFFF80723026A120B1A400A70026A120A1A404A70026A89
S14338C012091A408A70026A1A40CA70026A120C1A400A71026A120F1A404A71026A120E13408B717047C046F8B5134B00251E682423F25C43789A421AD326234768041CD5
S1433900F05C06F007F8391C05F006F900280FD12523F05C05F0FEFF011C381C05F0FCF8002805D12578032D04D06B425D41EDB2281CF8BD0125FBE79001002006291FD8B0
S1433940104B89005B589F46006A4000400F7047006A4001400FFAE7006A4004400FF6E7006A4005400FF2E7006A4006400FEEE7036A07201840EAE7006A4003400FE6E731
S14339800020E4E7BCB1000010B5041CFFF7D6FF26230722E35C1340024A9B009B58C340181C10BD74010020024B8000C358CB40181C704774010020F0B5474680B4041C8B
S14339C082B00120884601F06FFF6B46DD1D0023281C2B70AA2701F009FDA0260120E35DAA211B0901221842F9D1A35D1B091A42F5D10126A027635C93436354635C1B090E
S1433A001A42FBD1E35DA0201B091E42F6D14346042B2FD003214246235C0A408B4313432354AA270120A026E35DAA211B0901221842F9D1A35D1B091A42F5D14346042B1C
S1433A4020D0635C93436354AA2101220126A020635C1B091A42FBD1235C1B091E42F7D1287801F0C5FC012001F0F4FE02B004BC9046F0BD0322235C93431A1C02231343E5
S1433A802354CEE70123625C13436354DCE7C046AA22825C031C0420D20703D4A0229B5C013818407047C04610B5041C002001F0FBFE40238021E25C49420A43E254012218
S1433AC0E15C00200A43E25401F0C4FE10BDC04610B5041C002001F0E7FE40230121E25C00208A43E254E25C7E310A40E25401F0B1FE10BD4023C05CC00970474123C35C3F
S1433B00012018407047C04670B541260124835D1C400023012C01D0181C70BD051C002001F0C2FEAB5D0020A343AB5501F092FE0123F1E738B5051C00200C1C01F0B4FE66
S1433B4030220121AB5C0C408B431C43AC54002001F080FE38BDC04610B5041C002001F0A3FE52220123A15C00200B43A35401F071FE10BD10B5041C002001F095FE522208
S1433B800121A35C00208B43A35401F063FE10BD70B5051C00200E1C141C01F085FE3E227F217020AB5C0B407839AB540C402301AC5C0E4084431C43AC54AB5C00208B4335
S1433BC01E43AE5401F046FE70BDC04610B5041C002001F069FE3E228021A35C49420B43A354002001F036FE10BDC04610B5041C002001F059FE3E227F21A35C00200B40FA
S1433C00A35401F027FE10BD10B5041C002001F04BFE53220123A15C00200B43A35401F019FE10BD10B5041C002001F03DFE53220121A35C00208B43A35401F00BFE10BD24
S1433C4038B5051C00200C1C01F02EFE0723242270211C402301AC5C00208C431C43AC5401F0F8FD38BDC046134BF0B51C681968021C0120890700D4F0BD00260F49104FE0
S1433C801E60013A0D6ABA4202D91C600020F3E7C0245A600A6A24061202120A22430A6207229E601A600B6AAD0F1B02AD071B0A2B430B62E0E7C04610E000E000ED00E039
S1433CC0FFFFFF00502210B50F24835C2140A3431943815410BDC0465023C35C0F2018407047C04650228021835C49420B4383547047C04650227F21835C0B408354704730
S1433D005023C05CC0097047024B1B68036000207047C04660B2000070B5064C061C20680D1CFFF7A5FC291C30702068FFF7BEFD002070BD8C01002070B5051C82B00029B4
S1433D4053D000284ED04F4C2068FFF7A1FE061E042E47D020686946FFF7A8FD63689A68002A01D0022E49D0DA68002A31D0032E2FD129229A5C110700D56FE05969D0061B
S1433D8004D56846467805208E422CD3900604D56846867805208E4225D3500604D56846C67805208E421ED3D20904D06A46527905208A4217D32A229B5CDB0704D56B4609
S1433DC01B7905208B420ED36B469B7905208B4209D3291C012001F05FFB2068FFF764FE002000E0012002B070BD264C2068FFF785FE00283AD0CB204000F4E729229A5C48
S1433E00110738D41969D00604D56846467805208E42E8D3900604D56846867805208E42E1D3500604D56846C67805208E42DAD3D20904D06A46527905208A42D3D32A227F
S1433E409B5CDB0704D56B461B7905208B42CAD36B469B7905208B42C5D3BAE768465969067805208E4200D389E7BCE72068FFF72FFE0020B7E768461969067805208E42F3
S1433E80C1D2B0E78C01002038B5124C2068FFF735FE00280FD02068FFF7EAFB28236268051CD35C30221A4203D05B0608D405280DD0032D0BD02068FFF726FE002038BDD2
S1433EC02068FFF7EDFB052DF3D10328F3D19820FF30F4E78C01002008B5034B011C1868FFF728FE002008BD8C01002008B5034B1868FFF731FE002008BDC0468C01002066
S1433F0008B5034B1868FFF735FE002008BDC0468C01002008B5031C0A1C03490868191CFFF736FE002008BD8C01002008B5034B1868FFF74BFE002008BDC0468C01002020
S1433F4008B5034B1868FFF751FE002008BDC0468C01002010B51D4C88B0201D01F08CFA002302AA5380537003231370184B04A9DB68101C01939847049B2360154B0393A3
S1433F80FFF7D0F920680421FFF7C4FA05E0039B002B08D0039B013B039320680421FFF703FB0028F3D1039B002B03D1CD20400008B010BD206804210522FFF713FB2068AB
S1433FC00021FFF757FA0020F2E7C0468C0100200CB10000FFFF000038B5041CFFF72EFB031C0320002B00D138BD631E012B12D9042C10D0002C04D0FD22E31E0020134252
S1434000F2D10F4D211C2868FFF7CEFA00280CD1C8204000E8E70A4B211C1868FFF7C4FA431E98419130FF30DEE72868211CFFF7A3FA031C584258419330FF30D4E7C046BC
S14340408C01002070B59425061C0B4CFF3502E0013C002C0ED0301CFFF7BEFFA842F7D00025002806D0031C923BFF3B9BB2012B00D9051C281C70BDFEFF000070B582B0AA
S1434080041C0D1CFFF7DAFA002802D1032002B070BD554E3068052C12D0211CFFF784FA002802D09220FF30F1E7631E012B3FD9042C4BD0002C1DD0032C24D00020E6E701
S14340C00521FFF771FA00283AD1002D36D03068FFF7CEFA0528E5D0281CFFF705FC0028D4D029783068FFF75FFA002847D19530FF30CCE730680021FFF73EFA002817D02B
S14341009420FF30C3E730680321FFF735FA0028F6D1272372683068D15CFFF78DF930680021FFF763FA306803210922FFF774FA3068211CFFF7BCF90020A8E70120A6E785
S14341403068FFF705F99220FF30A0E730680421FFF7AEF9254B019305E0019B002B08D0019B013B019330680421FFF71DFA0028F3D0019B002BA1D1CD20400087E73068D8
S14341800521FFF7F9F90028BAD128237268D35C5B0603D529783068FFF796FA69783068FFF7EAFA69683068FFF7A4FA3068FFF7CFF8282372680520D15C0907090FFFF7B4
S14341C0F3FB73685B68984209D930680021FFF7F3FB30680521FFF76BF9002057E730680121FFF7E9FBF4E78C010020FFFF000030B583B0041CFFF721FA0323002802D1DC
S1434200181C03B030BD2C4D2868FFF731FA84422DD0052826D0012C2CD02868211CFFF7C3F900281CD0022C16D0042C2AD0002C03D0FD22E31E134212D12868211CFFF782
S14342409BF9002808D19423FF33D9E728680121FFF7AAF9002803D02868211CFFF75AF90023CDE72868FFF71BFAA042D3D19223FF33C5E72868FFF73DFC0028E6D09623BF
S1434280FF33BDE728680421FFF744F90B4B019305E0019B002B08D0019B013B019328680421FFF781F90028F3D1019B002BD7D1CD235B00A4E7C0468C010020FFFF00005B
S14342C008B501280ED0022801D0002008BD081C0021FFF7D3FE0028F7D09223FF339842F4D1F2E7081CFFF783FFEFE738B500230B60051C0C1CFFF7B5F90323002801D1C2
S1434300181C38BD034B291C1868FFF73DFB00232060F5E78C010020292370B5114D00206A68D35CDB0700D470BD01F0BDFA2868FFF7D8FC0C4E02E0002E0ED0013E2868F7
S1434340FFF7DEFC0028F7D000207442744101F081FA142064422040E6E7002001F07AFA1420E1E78C010020FFFF0F00292370B5114D00206A68D35CDB0700D470BD01F07D
S143438093FA2868FFF7B6FC0C4E02E0002E0ED0013E2868FFF7B4FC0028F7D100207442744101F057FA142064422040E6E7002001F050FA1420E1E78C010020FFFF0F00A2
S14343C0F0B54746292380B4204D6A68D25C0023D20704D51E4B1E5C0323FF2E03D1181C04BC9046F0BD002001F05EFA2868FFF787FC071CFFF7BAFF2868311CFFF762FCCF
S1434400144B984606E04346002B17D001235B429C46E0442868FFF75FFC8642F3D1002F09D1444600206242544101F013FA142364422340D3E7FFF76FFFF2E7002FFAD16B
S1434440002001F007FA1423C9E7C0468C01002058B20000FFFF0F00292208B5044B59688A5C920702D51868FFF7CEFB002008BD8C010020292208B5044B59688A5C92079F
S143448002D51868FFF7CEFB002008BD8C010020292208B5054B59688A5C520703D5011C1868FFF7CDFB002008BDC0468C01002008B500F0C1FF05F075FA011CFE2080059C
S14344C004F066FD084904F055FF011C074804F05FFD04F093FBFFF7C7FB031C5A42534112205B42184008BD0024744900401C4608B5031C0320002B00D108BDFFF7D8FF87
S1434500FBE7C046F0B587B0051C0E1CFFF796F80324002802D1201C07B0F0BD002E00D180E02923634F7A68D35C190766D4B179D80603D5707803248842ECD3DB0903D02B
S1434540737903248B42E6D32A23D35CDB0703D5337903248B42DED3042D55D000236A46281C1373FFF720FA062104903868FFF70BFA059003A800F06BFF041ECBD13868C6
S1434580FFF776F8854205D0002D4DD0FD22EB1E134249D03868002101ACFFF70DFA3868211CFFF783F9A279B3799A4245D23868311CFFF727F93868291CFFF75FF800F0FE
S14345C03BFF3D4B1860042D40D0022D60D0012D66D0032D4AD0052D64D006213868FFF7D3F901236A46059003A8137300F030FF041E00D08FE7FFF75BFF8CE7B17930788A
S1434600884200D287E793E7002901D0052482E77379002BFAD13868FFF76CFA0028F5D1B1799BE7012476E73868291CFEF7A4FF0028AFD1C92464006DE73868291CFFF7C7
S14346401DF83868311CFFF7DDF8B8E728237A68D35CDB0917D19368002B14D15368002BBBD038680121FFF7A7F9B6E77B685A68904201D9002AB0D19B68984217D9002B3D
S1434680ABD0002AEDD138680221FFF795F9A4E77B689A68002AF6D15B68002B9DD0E0E77B68F9E77B685B68984296D8D9E7002B93D0E8E78C010020D40A0020F0B54D4618
S14346C0564644465F46F0B4037887B06A46061C9946002304A9D01D0B704B708B70CB700B714B718B71D371FFF716FB737D02AD2B70F37C347EAB70337D48466B70F37D3D
S14347006C71EB70B37D2B71FEF798FF002807D1032007B03CBC90469946A246AB46F0BD3378EB5C012BF3D0022C42D0354B30279A465246282352680024D35C1F407B1E18
S14347409F419223FF339846331D9B460537E1B2052C3FD0285DFFF7B3FD002801D04045D7D10134BC42F2D14846FFF76BFC0028CFD1311C48460C31FFF7C4FE0028C8D1C5
S14347806B46DC79A1450AD02B5D012B1BD053461868FEF785FF2B5C011C012B01D00020B7E7052CFBD18145F9D00120FFF788FDAFE73079FEF742FF0028A9D03379EB5C6E
S14347C0012BB3D1A4E70120211CFFF779FD0028DDD09EE76B79022BBCD130790021FFF74DFC002801D0404593D13079FFF72AFC002800D08DE705305946FFF73FFC00286F
S1434800AFD0ACE78C01002082B0002806D0044B1B6803600020019302B070470120FBE78CB20000F0B5041C85B0002847D0002945D0437C0720002B01D105B0F0BDA3781B
S14348400438022BF9D0A768002F38D060690022012500E0321C2B1C9340561C1842F9D0103252009446BC44634601220B601F2300E02B1C161C9E405D1E3042F9D0624652
S143488010335B00FB189B1A5B1001334B60002302AA03931380238803A8438020230D1C0370084B02211B690193984702AB5B7800206B72238804335B002B72BDE70120CB
S14348C0BBE7C0460CB10000031E1BD0427C0720002A00D170479A68002A13D01B7C022B06D08021138889000B4313800020F1E713880820DB0BEDD11388034900200B43A9
S14349001380E7E70120E5E70080FFFF031E16D0427C0720002A00D170479A68002A0ED01B7C022B05D01188064B00200B401380F2E7138800205B045B0C1380ECE701209D
S1434940EAE7C046FFFDFFFF031E0BD0427C0720002A00D170479B68002B03D01888C00BC000F7E70120F5E770B500281FD0CB1CDBB203241E2B01D9201C70BD002907DB5A
S143498001238B4005880C4EAD00AD591D42F3D0437C0724002BEFD0002A0AD08368002B05D010314900CB5A00241380E4E70124E2E70224E0E7C046CC08002070B5031E39
S14349C023D0002921D0427C0720002A00D170BD0A780438D41CE4B2122CF8D852B2002A07DB012494401D88094EAD00AD592542EDD0497803200429E9D99B68002B04D096
S1434A009A18E03211700020E1E70120DFE7C046CC080020F0B54F464646C0B4031C89B000281AD0002918D0427C0720002A04D109B00CBC90469946F0BD9F68002F0CD0D6
S1434A401C1C1B880D1CBE4A09689B009A580023002904D103206361EAE70120E8E7C0239B051A43D2430B1C1142F3D139884904890F012900D12AE16A68002AEAD10023A6
S1434A8004AE301C337000F0E9FC3278930707D4C02369689B05194202D02B680320DAE72B68C021181C89058846084009D039880906CFD4520700D536E17A22BA5C002AAC
S1434AC0C8D13A7B520700D128E1E9686A68081C1A439043BED10029BCD02A7C002A00D042E180229BB2BB80AB885205BB82AB893B816B88FB80EB88FB82EB897B812B6871
S1434B00134202D16968114240D08022DE23FA5403AA9046002341462222039304937360B360F360874B0A70DB684046311C01939847002802D02B68636179E7824B049A5C
S1434B40404699461A6000F0ADFD2B68DB0000D490E080227B8A520013437B827A8A7B4B13407B820121EB681B0F0B401A1C7B8A8B4313437B824B461B6881391A780A43AD
S1434B801A70102219780A431A702B6880229205134202D16B68134217D0DF238022FA542B689B0053D57B8A8132FF3213437B827A8A674B13407B820221EB689B00DB0F45
S1434BC05A007B8A8B4313437B820023301C337000F044FC3378DB0707D503232A7C697C134066225B020B43BB522B89594A934237D08022BB52A3689846A378012B1ED042
S1434C0043461E887604B60F012E3DD018202056031C21330CD000F07BFD1F22237EC02113401E3A9A40131C4B4A490053501360434680221B8852011343424613802A89B1
S1434C40444B9A4212D02B6800206361F0E67A8A424B134080227B827B8A120113437B82AAE7A3689846A378012BC9D180233C4AFA52E8E77A8A3B4B134080227B827B8A88
S1434C80D20013437B826DE72A89324B9A4228D019202056031C21330AD000F039FD1F22637E13409E4062322B4BFF329E501E6043461A884023134342461380138A3F225A
S1434CC093431A1C0A231343424613829EE76968002900D1BEE61A43114200D1CFE60320B9E643461A8A3F23134342461382637E58B2021C21320AD01F2213409E40164B0D
S1434D0061329E500132FF329E5000F001FD434640221B8893434246138077E7EA68002A00D1DAE6032096E6404500D192E61A0100D08FE6A278002A00D1C2E603208AE6A7
S1434D40CC0800200CB10000C8080020FFFBFFFFFFF7FFFF0180000000E100E0FFFDFFFF0180FFFFFFFEFFFF0023301C337000F075FB3378DB0700D48FE62A7C072A00D9F4
S1434D808BE66B7C032B00D887E62B686868191C11408C46398810404904890F01290ED0624500D056E63A8812060ED4002800D197E62A89002A00D193E603204BE6624564
S1434DC0F1D08242EFD0032045E66246002AEDD0032040E630B585B0002800D181E0427C0723002A02D1181C05B030BD8368002B77D0037E041C58B2021C213215D01F2277
S1434E0013401E3A9A408021131C374A53500131FF31535000F07CFC1823344AE3561268DB009B58019200221A60637E58B2021C213215D01F2213401E3A9A408021131C48
S1434E40294A53500131FF31535000F061FC1923264AE3561268DB009B58019200221A6080210120A3685A5A0240012A35D01A885204920F012A2DD0FC211A8A89010A431E
S1434E801A8200221A802023029202AA13702388101C538000F000FC636903ADDB000DD5134B1B68002B01D000221A70002303AD0393281C22332B7000F0EEFB0023039309
S1434EC063742388281C6B8020232B7000F07CFC002388E7074A1A82D3E7585A90435852C5E701237FE7C04600E100E014B30000C80800203F3F0000F0B55F4656464D46A4
S1434F0044460023F0B40D1C061C87B005AC2380764B01901B69101C171C0221221C009398472378EA68337658B2002A00D195E0021C213200D18FE06D4AC10012680292F7
S1434F4094460A1C62440392AA7A0292002800DAA1E0820892009446664ADBB29046C02292009146C44462464E46965903221A40D2009046FF22414692468A40514696434F
S1434F80029A92010A4041468A40614632434E468A51039A0199126811601F2213401E3A9A408021131C534A53500131FF31535000F0AEFB381C221C009B03219847227838
S1434FC0019B57B25A76AB78022B3FD03B1C0020213334D04649FB0009688C4600919C44EB7A002F3EDB4349C0258846B80880004044AD00415903248846D1B2FF220C40F0
S1435000E40091464646A24096439A014B461A40131CA340334343516346019A1B68381C1A601F220A40012191400A1C8021314B5A500131FF315A5000F06AFB002007B090
S14350403CBC90469946A246AB46F0BDEB68002BBCD03B1C2133BDD10B20F0E7021C2132A8D069E7D1B20F22234803248046FF200A40083A92080C40E4009200424480461C
S1435080A040D5698543980143461840031CA3402B43D361C0E70F22DBB21A409446082252429046C4446246920892009446124A9046C4446246D269904603221A40D200C1
S14350C09146FF22494692468A409346424659468A4351469046029A92010A4049468A4041460A436146CA6153E7C0460CB1000014B3000000E100E000ED00E0002330B577
S143510087B00293039304930593114B041CDB680D1C101C02A901939847002815D1029B0C4AA36002ABDB88DB065B0F04335B00E3702B889B009958002906D1059C61889B
S14351409950E48824042143995007B030BDC0460CB10000CC080020F0B5474680B4021C84B0002800D1D9E0002900D1D6E08B888D785B040320002B09D18C79032C0AD936
S1435180261C02339E43812E05D0052C03D004B004BC9046F0BD2020CB7983431D38002BF5D10B7A022BF2D8022DF0D8CB78002B01D0052CEBD0CB68002B02D00320012D65
S14351C0E5D0022D00D1B1E0537C0820002BDED101930B8801AC63802023161C101C221C0D1C2370FFF78AFF0028D0D1F3780C2B00D195E00E2B00D1A0E0301C291C221CB9
S1435200FFF77AFE0028C2D1201C00F0ADFA0028BDD18021B36801305A5A0240012A00D195E01A885204920F012A00D1A3E0FC211A8A89010A431A8200221A80202302A86F
S143524002920370338803AF438000F025FA7369DB000DD54D4B1B68002B01D000221A70002303AF0393381C22333B7000F014FA00239846039320333B702B88381CB46813
S14352807B8000F00FFA434623806382AB78022B69D0012B72D080222388934323802B7A012B58D0002B08D180222388520013432380228A364B1340238203220621EB78BF
S14352C0002013405A00E3898B431343314AE3819446AB88634459425941E389CA035B045B0C1343E381EB79203B594259414A012021E3898B431343E381AB792373EB684B
S1435300F3602B8833802B697360AB78B3702B7A3374012373740023736138E7012036E7EB780330022B00D931E766E702230C89FF3303209C4200D029E745E7EB78032BCD
S143534000D15AE70320002B00D020E755E7585A9043585265E7228A0D4B13409022120113432382A9E722880B4B134080229201134323808FE7094A1A825DE72288064B6F
S143538013408022D2011343238084E7C8080020FFC0FFFF0080FFFFFF9FFFFF3F3F000010B584B0EFF303830F4A103B12685BB2DB009B5801921C68EFF30380103840B268
S14353C000F0A6F9002C0DD0002302AA93702388138063680393E368002B01D0101C984704B010BD00BEFBE714B30000002070470020704770B5C9240E4E84B03368640017
S143540001939847B3680020002101939847F5690020A847A042FBD1012302AA937153700023D3703369111C00200193984704B070BDC046F8B1000000B5044B83B09B69E7
S143544001A906209847019803B000BDF8B1000000207047012303707047C046FC23027813400422134303707047C046FC230278134003707047C046014B03607047C0467C
S143548090B20000034B0022191C303104C38B42FCD17047D4080020024B8000C15000207047C046D408002008B5A023554A5B00D35ADB0700D581E0A023524A5B00D35A2F
S14354C09B0700D56EE0A0234E4A5B00D35A5B075CD4A0234B4A5B00D35A1B074AD4A023484A5B00D35A5B0638D4A023454A5B00D35A1B0626D4A023424A5B00D35ADB0558
S143550013D4A0233F4A5B00D35A9B0500D408BD3D4B1B6A002B72D198228020394952008B5A800003438B52F1E7374BDB69002B62D198228020334952008B5A40000343B3
S14355408B52DEE7304B1B68002B52D1982280232C495200885A03438B52CCE72A4B5B68002B43D19822402326495200885A03438B52BAE7244B5B69002B34D1982208231A
S143558020495200885A03438B52A8E71E4B1B69002B25D1982204231A495200885A03438B5296E7184B9B68002B16D19822022314495200885A03438B5284E7124BDB685C
S14355C0002B07D1982201230E495200885A03438B5271E703209847F4E702209847E5E704209847D6E705209847C7E701209847B8E700209847A9E70720984799E70820C8
S1435600984789E700600040D40800200278F0B50123452A23D81E4B9C5C0323FF2C1ED0A5091C4EAD00AE59E5064788ED0E4078A40616D50124201CA8402B2A02D1002FC0
S143564021D1032300290AD1EFF31083012282F3108832688243326083F310880023181CF0BD38182D1A0120A8400029ECD0EFF31083012282F3108835680543356083F348
S143568010880023EBE7201C0135A840D9E7C046CCB20000BCB2000008B50121FFF7B6FF08BDC04608B50021FFF7B0FF08BDC0467047C04601380028FCD17047484338B590
S14356C00D1C041CFFF7B8FE8023011C1B02984201D8012D16D00D4803F08AF8011C844209D2FA208000604303F082F8800801D0FFF7E0FF38BD201C03F07AF8FA239B005F
S14357005843F3E70120FFF7D5FFF3E700CA9A3B002807DB044B80009C4660440268034B134003607047C04600630040FFFFFEFF094A0A4B10B59B1A094CDB0823600AD0AD
S143574000210848938801319B059B0D08C0236808328B42F6D810BD00050000380500000409002000630040144B10B51C68002C10D0134B00681A68136898420CD00432B5
S1435780002304E00432111F0968814205D00133A342F7D1032010BD00230A4A1268D318EFF31081012282F310881C780820002C01D100201A7081F31088ECE708090020AB
S14357C00C090020100900200E4B10B51C68002C10D00D4B00681B681A6890420BD00433002204E00433191F0968814204D00132A242F7D110BD00220021044B1B689954B5
S1435800F8E7C046080900200C0900201009002038B50A4A0A4B0B4C1A600B4D0B4B2D1B1C600B4BAD081D6007D0AD002D19201C0434FFF7C9FFAC42F9D138BD2401002091
S14358401009002038050000180600000C0900200809002030B5EFF31081012383F310880C4B40001A5A002A03D01A5A013A92B21A521B5A002B09D1074C084A084DA35AC8
S1435880285A084D2B4383439BB2A35281F3108830BDC0461409002000E00140FE03000018B3000000A5FFFF70B5EFF31084012383F310880A4940000B5A002B09D1094EAA
S14358C0094D0A4A735B1343094A125A13439BB273530B5A01339BB20B5284F3108870BD1409002000E00140FE03000000A5FFFF18B300000022024B1A805A809A807047AE
S1435900140900200C4A08B5031C106800280FD0032103338B430949C3188B4201D8136008BD04F061FA0C23036001204042F7E703481060ECE7C0461C090020882500203A
S14359408815002000BE704708B500F005F800F06FF9FEE77047C04610B5002082B0FFF7F9FFFFF78FFD1D4B00241B6801939847FFF7C0FFFFF73EFD0022194B19481A80DD
S1435980194B1B6801939847184819490023091A04D0C218013314708B42FAD115481649091A06D00023154CE25CC25401338B42FAD1FFF741FD124B18600120FFF7CAFF41
S14359C0FFF726FFFFF7B4FE0E4B0F481B68019398470020FFF76CFE02B010BD0CB100001C04002090B40000E8AF00000004002088150020000000205C010020D8B9000054
S1435A00D40A002028B1000020B30000012138B5104D4942281C01F0A5FC002801D000BEFDE70D4B1A78002A02D000F09FF938BD01221A7000F088F8084C2368013B236032
S1435A40002BF2D0281C01F0A9FC0028F5D000BEFDE7C046540D0020500D0020700D00200C4A00B5136889B0013313600A4B0B4900938023DB000193012302930393049391
S1435A800593AF330693064A0023064801F096FC09B000BD700D0020883500202CB300000D5A0000D80A00207047C046012138B5104D4942281C01F055FC002801D000BE62
S1435AC0FDE70D4B1A78002A02D000F09DF938BD01221A7000F038F8084C2368013B2360002BF2D0281C01F059FC0028F5D000BEFDE7C046540D0020500D0020700D00204B
S1435B000C4A00B5136889B0013313600A4B0B4900938023DB00019301230293039304930593AF330693064A0023064801F046FC09B000BD700D0020883900203CB30000DD
S1435B40AD5A0000880B002008B5FFF7ADFF08BD012138B5104D4942281C01F003FC002801D000BEFDE70D4B1A78002A02D000F0C5FB38BD01221A70FFF7E6FF084C23688B
S1435B80013B2360002BF2D0281C01F007FC0028F5D000BEFDE7C046540D0020500D0020700D00200C4A00B5136889B0013313600A4B0B4900938023DB0001930123029360
S1435BC0039304930593AF330693064A0023064801F0F4FB09B000BD700D0020883D00202CB40000515B0000A00C0020002310B5041C0B4A0B4913600B4A0C4813700122FD
S1435C001C3301F05DFBFFF77BFF00F041F8FFF727FFFFF7C7FF201C01F0EAF910BDC046700D00207CB40000500D0020540D002008B572B601F0F4FD002008BD012138B5EE
S1435C40104D4942281C01F08DFB002801D000BEFDE70D4B1A78002A02D000F0AFFF38BD01221A70FFF770FF084C2368013B2360002BF2D0281C01F091FB0028F5D000BE5E
S1435C80FDE7C046540D0020500D0020700D00200C4A00B5136889B0013313600A4B0B4900938023DB00019301230293039304930593AF330693064A0023064801F07EFB83
S1435CC009B000BD700D00208841002018B600003D5C0000740D00207047C04610B582B06A468020064BD41D5B68211CDB69800098472078013843425841C0B202B010BDD3
S1435D00B8B3000000B5084B83B019689A685B6800910193081C136801999847002800D0024803B000BDC046E4B300000530000030B50C4C83B02368E56800936368009874
S1435D400193191C2B689847002802D0064803B030BDA3680098019301996B6898470028F4D1F4E7D4B300000430000008B500F0D5F800F007F9322002F096F8F9E7C046D4
S1435D8000B585B001F028F9002809D003A91422002301F057F9002805D0094805B000BD0420FF30FAE71423009324330193054805490422039B01F0DBF90028EDD1EDE715
S1435DC0010200004C0E00202CB6000010B50A4C2388052B01D1094810BD0122011C5242074801F04DFA002801D00648F4E7238801332380F0E7C0466409002002020000ED
S1435E004C0E002003020000F8B55F464D46444656463220F0B402F047F80023394A3A4C13845384394B3A4F9B4601235A461370384B00259946384B984605E03B6801333A
S1435E403B60322002F030F8012225606560A560E560256165614846211C524201F0F0F90028EED1434642461B88013B13802378022BE3D16378002BE0D0013BDBB2023341
S1435E809B009A46261DA24409E0042B2FD0052B02D1B07800F004F9043656450CD03378032B29D0F1D8012BF6D17078B178043600F00EF95645F2D15B461B78012BBDD13E
S1435EC0104B104A5B8C128C9A42B7D00D495A468C4615705A00013355549BB26244557000220F2B00D81A1C064B5A84A6E77078B17800F0EFF8CFE77078B17800F0BAF84E
S1435F00CAE7C046240E00206C09002020000020680900204C0E002064090020C120134B10B55C680021236A800098478120236A002180009847236A00210D489847236AF5
S1435F4000210C4898478120236A0021C0009847236A002108489847236A002107489847236A00210648984710BDC046B8B300000502000007040000090400000A040000DC
S1435F800B04000038B5324C2378083BDBB2072B11D8304A9B00D3589F462F4B2F4D5B6829781B6A2E4898472B78012B4DD001232B700823237038BD284B2A481978264B3F
S1435FC05B681B6A98470F232370F4E7C120234B80001978204B5B681B6A984709232370E9E781201D4B800019781B4B5B681B6A98470A232370DEE7184B1B481978164B71
S14360005B681B6A98470B232370D4E7134B17481978114B5B681B6A98470C232370CAE781200E4BC00019780B4B5B681B6A98470D232370BFE7094B0D481978064B5B68F6
S14360401B6A98470E232370B5E700232B70B0E721000020A8B60000B8B30000220000200B0400000A04000005020000070400000904000010B582B0012802D0002002B0B7
S143608010BD064B9A681B6894690193181C01220023A047431E984180B2F0E7E4B3000008B5002808D0012805D1074B07485B6801211B6A984708BD034B00215B68034885
S14360C01B6A9847F7E7C046B8B30000060200007047C04630B583B002284AD031D9032819D0042815D1464B01295ED000295CD05C686B468520DD1D4000E369291C984796
S14361002B78012B00D174E08520236A40000121984703B030BD3A4B012940D000293ED05C686B460C20DD1DFF30E369291C98472B78012B51D00C20236A0121FF3098474B
S1436140E7E70128E5D12E4B01293AD0002938D05C686B460820DD1DFF30E369291C98472B78012B3FD00820236A0121FF309847CFE7234B01291ED000291CD05C686B46D1
S14361800E20DD1DFF30E369291C98472B78012B1DD00E20236A0121FF309847B9E70C205B68FF301B6A9847B3E785205B6840001B6A9847ADE70E205B68FF301B6A98478D
S14361C0A7E708205B68FF301B6A9847A1E70E20236A0021FF3098479BE70C20236A0021FF30984795E70820236A0021FF3098478FE78520236A00214000984789E7C046F5
S1436200B8B3000010B582B0082852D82A4B80001B589F466B46DC1D284B29485B68211CDB699847207802B010BD6B460420DC1D224B211C5B68FF30DB699847F2E76B4672
S14362408120DC1D1D4B211C5B684000DB699847E8E76B460220DC1D184B211C5B68FF30DB699847DEE76B468020DC1D134B211C5B684000DB699847D4E76B46DC1D0F4BD6
S1436280211C5B680F48DB699847CBE76B46DC1D0A4B211C5B680C48DB699847C2E76B468020DC1D054B211C5B68C000DB699847B8E76B46DC1DB5E7C8B60000B8B3000044
S14362C003040000010400000204000002280BD0032806D0012801D000207047044B1888FBE7044B1888F8E7034B1888F5E7C046860900208409002088090020F0B5474603
S143630080B4184B82B019689A685B6800910193081C136801999847134B1C68DD68201CAB689847114B124F9846124E02E0322001F0BAFD201C2B6998470028F7D14246BA
S14363406B69201C002198473A1C6B69201C012198476B69201C0321321C9847201CAB689847E4E750B40000D4B3000086090020880900208409002083681A78014B1A705D
S14363807047C0468A090020F8B54F464646144BC0B49946134B071C01250024124E984601E001340135002C0CD0042C13D0BB68301C195D03F0F0FD082DF2D10CBC90461E
S14363C09946F8BD404603F0E7FDBB68301C195D03F0E2FDE5E7484603F0DEFDF5E7C04600B70000ECB6000010B70000F0B5474680B48368051C9A781C7990461E785F786B
S1436400DB7824021C191D48311C3A1C4346A4B203F0C2FD002E24D0012E1BD0022C28D00524174803F0B8FD164EAB68301C195D013403F0B1FD0D2CF7D1AB681248597B2E
S143644003F0AAFDAB681148997B03F0A5FD04BC9046F0BD002F04D0052FDFD14346062BDCD801220A4B0B481A7003F095FD022CD6D1094803F090FDD2E7C04614B70000C7
S14364806CB7000074B7000078B700008CB700009009002020B7000060B7000038B58368051C5C781B78240209481C1903F074FD084BA4B29C4206D0AB68074859781A78DF
S14364C003F06AFD38BD054803F066FDF4E7C046A0B700009A100000C0B70000A8B7000010B58368064A1978064C5B7806481170237003F051FD2178044803F04DFD10BDA6
S14365008B09002092090020C8B70000E0B70000F0B51F4F041C05A80578387880282DD00130C6B23E70F1271A48077044708170C27006714571002D27D000229C5C8118FD
S143654001328C71D1B28D42F8D86E1EF6B286192B1D0636DBB2FB2D14D0447800220E4900E00C78013B1219DBB2013192B2FF2BF7D1D3B2120A7370B270F0BD0020002647
S14365803870D0E700220023F5E70423461DE5E791090020940E0020950E002010B58378A2B0FA2B01D022B010BD03F00FFD0A2102F094FAC8235B004B43FA21181C8900C5
S14365C01430FFF77BF802A80A49132203F026FC132322220093012102AB0020FFF798FF041C1B2100F0C8FB201C0021C82203F01EFCD8E79C00002030B58378A3B0FA2BE4
S143660001D023B030BD041C174D1022281CA16803F004FCA3681B7C2B74A3685A7C9B7C6A74022B01D0AB74EBE7FA21032314208900AB74FFF742F8291C02A8132203F065
S1436640EDFB132324220093012102AB0020FFF75FFF041C1B2100F08FFB201C0021C82203F0E5FBCDE7C0469C00002010B5A2B0FFF734FBFA2102AC207089000A20FFF738
S14366801DF801230F2200932121231C0020FFF73FFF041C092100F06FFB201C0021C82203F0C5FB22B010BD10B58368A2B0187802AC0130FFF7A6FDFA21207089000A205F
S14366C0FEF7FCFF0123032200932121231C0020FFF71EFF041C092100F04EFB201C0021C82203F0A4FB22B010BDC04610B58368A2B018780130FFF7E9FDFA210290890040
S14367000A20FEF7DBFF042306220093212102AB0020FFF7FDFE041C0C2100F02DFB201C0021C82203F083FB22B010BD10B50320A2B0FFF7CBFDFA21029089000A20FEF771
S1436740BDFF042311220093212102AB0020FFF7DFFE041C0C2100F00FFB201C0021C82203F065FB22B010BD0A1C031C002110B582B000910020191C0023FFF7C9FE041CC7
S1436780082100F0F9FA201C0021C82203F04FFB02B010BD70B583681C785E7800F036FB0134051CE1B20320321C00F01BFB00280AD1002D08D0281CFFF708FB002803D18A
S14367C0074B1B78002B00D170BDFA210A308900FEF774FF21200021FFF7C6FFF4E7C0468A09002070B583681C785E7800F00EFB0134051CE1B20120321C00F0F3FA0028C0
S14368000AD1002D08D0281CFFF7E0FA002803D1074B1B78002B00D170BDFA210A308900FEF74CFF21200021FFF79EFFF4E7C0468A09002070B583681C785E7800F0E6FA65
S14368400134051CE1B20420321C00F0CBFA00280AD1002D08D0281CFFF7B8FA002803D1074B1B78002B00D170BDFA210A308900FEF724FF21200021FFF776FFF4E7C04662
S14368808A09002070B583681C785E7800F0BEFA0134051CE1B20520321C00F0A3FA00280AD1002D08D0281CFFF790FA002803D1074B1B78002B00D170BDFA210A30890062
S14368C0FEF7FCFE21200021FFF74EFFF4E7C0468A090020FA2108B58900081CFEF7EEFE5520E021FFF740FF08BDC046012270B5154B1A708378012B00D070BD134C051CBA
S1436900261C0021783602E00834B44212D02278EB789A42F8D162782B799A42F4D1A278AB799A42F0D86368281C083498470121B442ECD10029E0D1054B1B78002BDCD016
S1436940FFF7C8FFD9E7C0465C0F0020240000208A090020554BF0B545469846012357464E469A460123E0B44718051E9946BD420DD043461C682E78002C2DD04A466378EF
S14369801A420ED1F12E07D00135BD42F1D11CBC90469946A246F0BD5246134363700135F3E7E2899119E181990705D402221343A67063700135E8E7590705D404221343AB
S14369C0E67063700135E0E719070FD408221343267163700135D8E71020012103F0F8F9434618600028CFD0041CC7E7D90605D410221343667163700135C6E72021194058
S1436A000BD120221A43A67162702170002E3AD16022134363700135B7E740210B4011D12278A168501C20708E5442461268907911788842A8D84021507813700143517007
S1436A400135A2E72078A389411CC00086409B19C9B29BB2E2812170A381012900D893E79A421FD0434618688368002B04D0181C03F0CAF94346186803F0C6F9002342468E
S1436A800135136081E7301C013103F0A1F9061EA06000D078E7201C03F0B6F9434601351E6072E7201CFFF721FFDBE78C09002010B50C1C01394B425941C9B2082803D852
S1436AC0224B80001B589F4600235B70FFDE204B20485B681B6A98471F4B00205C7010BD08201B4BFF305B681B6A98471B4BF4E70E20174BFF305B681B6A9847184BECE724
S1436B000C20134BFF305B681B6A9847154BE4E785200F4B40005B681B6A9847124BDCE70A200B4BFF305B681B6A98470F4BD4E7074B0F485B681B6A98470E4BCDE7044BA9
S1436B400D485B681B6A98470C4BC6E7F8B70000B8B3000003030000B009002094090020980900209C090020A0090020A409002001030000A809002002030000AC09002010
S1436B80431EDBB210B5072B05D90121FFF790FF0024201C10BD074A9B009B58002BF4D05C78002CF1D0012CF3D10021FFF780FFEFE7C0461CB800007047C04610B596203C
S1436BC082B001F071F90E4B01A81B685B689847019B0C48191D102203F020F96B46DC1C00F0F0F80128FBD100F0B0F801212070201CFFF7AFFE00F0E5F80128F4D0EFE74A
S1436C004CB300009C0000208320064B10B55C680021236A400098470620236A0021FF30984710BDB8B3000010B500280CD08320074B01215C684000236A98470620236A2E
S1436C40FF300121984710BDFFF7DEFFFBE7C046B8B300000620064B10B55C680021236AFF3098478320236A01214000984710BDB8B300008021002238B50C4BC9005A520C
S1436C800B495A520B495A520B4B01321A70FFF7BBFF0A4B9D681C685968201C2B6898476B68201C00210022984738BDE00F00200204000004040000AF00002074B3000087
S1436CC0022210B503791A4224D1D90916D08021194A1A4B1A4CD35AC900A3421ED0515A01398B421DD08168D15401339BB20021A34200D8191C114BD15210BD1121194260
S1436D00FBD16B311942F8D00B480E49435A1A404252F2E70C4B013A1A70EEE7545A002C03D10121074BD152E7E78C42F9D08168D1540021DFE7C046E00F0020020400000B
S1436D40FF03000004040000AF000020802310B5074ADB00D35A074CD05C01339BB20021A34200D8191C8023DB00D15210BDC046E00F0020FF030000002370B50D1C061C4A
S1436D800E4C82B001202370FFF74EFF0C4B311C9A681B680193019893682A1C98472378012B07D0FA2105208900FEF787FC2378012BF7D1FFF728FF02B070BDAF0000209D
S1436DC074B300008023054A0549DB00D35A505A181A431E9841C0B27047C046E00F00200204000030B5074D6B78052B08D09C002C192071002001336171A2716B7030BD2F
S1436E000148FCE7E81300200121000010B5054C0021201C182203F00AF80223201C237010BDC046E813002070B582B000236A46D371082810D84F4A8300D358061C9F468D
S1436E4023680025013B2360002B00DC86E06379002B00D10025657102B070BD6A46464B0F205B68D11DDB699847444C6B46DB79002B1CD02579EAB2002A6BD0012A62D193
S1436E802368013B2360002B19DC00232371283323600025DBE76A46374B04205B68D11DDB6998476B46DB79354C002BE2D12579EBB2002BC4D0012B45D128232360637974
S1436EC0002BC8D1002DC5D0731E072BC3D8301CFFF756FE6571BFE76A46274B0C205B68D11DDB699847274CC0E76A46224B0D205B68D11DDB699847234CB7E76A461E4B18
S1436F000E205B68D11DDB699847204CAEE76A46A020194BC0005B68D11DDB6998471C4CA4E76A46144B1B485B68D11DDB699847194C9BE76A46104B18485B68D11DDB6962
S1436F409847174C92E728230025236000236571237181E72823151C236078E7012323712733236063790135002B00D073E70125AAE7C0463CB80000B8B30000EC090020DF
S1436F80B4090020BC090020C4090020CC090020D409002001050000DC09002002050000E409002008B50120FFF73EFF0220FFF73BFF0320FFF738FF0420FFF735FF0520E7
S1436FC0FFF732FF0620FFF72FFF0720FFF72CFF0820FFF729FF08BD034B00201B78012B00D102487047C046F4090020F809002010B582B0041CFFF72DFE34230093CD3364
S14370000D480E49221CFF3300F054F8002800D0FEE701220A4B1A70FEF7B2FE0028F7D1FEF770FE0028F3D1FEF782FE0028EFD1FFF720FE02B010BDF809002060B8000008
S1437040F409002070B5041C0220002C03D0164D2668AE4200D070BD002922D00330002AF9D0E569AA42F6D8002B11D10F4EEFF305803568284307D0EFF3058530680C4E54
S143708005431320B542E6D9201C00F03DFAE2E7EFF30585054E306805430420002DDAD1E5E70320D7E7C04645545942B0000020EFF0F0F0F8B54F464646C0B4002802D022
S14370C0089C342C04D002200CBC90469946F8BDEFF3108472B6214F3D6801353D6084F310881F4D1F4C2E682468002E09D00025A04202D105E0A04203D00135E46AB542DC
S1437100F9D19946161C0D1C8046EFF3108372B63A68013A3A6083F3108800F0F5FEA045D1D0002E18D04B460520632BCCD9EFF305830D490A68134307D0EFF305830A68BC
S14371400E301343094A9342BED94046291C321C4B4600F06BFAB7E70320B5E7CC1400203014002014140020B0000020EFF0F0F0F0B54F464646C0B483B0002802D00B9C13
S1437180382C05D0092003B00CBC90469946F0BDEFF3108472B6254F3D6801353D6084F31088234D234C2E682468002E09D00025A04202D105E0A04203D00135246BB542BB
S14371C0F9D19946161C0D1C8046EFF3108372B63A68013A3A6083F3108800F095FEA045D0D04B46002B1ED0731E05200F2BCAD80A9B9B089E42C6D8EFF305830E490A6862
S1437200134307D0EFF305830A680E3013430B4A9342B8D90A9B40460093291C321C4B4600F01EFBAFE70320ADE7C046CC1400200C1400202C140020B0000020EFF0F0F085
S143724038B5031C0920002B03D00B4C1D68A54200D038BD00290DD0002A07D0EFF305840648006804430420002CF2D1181C00F02FFBEEE70320ECE755455551B0000020A4
S143728038B5031C0920002B03D00B4C1D68A54200D038BD00290DD0002A07D0EFF305840648006804430420002CF2D1181C00F001FCEEE70320ECE755455551B000002091
S14372C0F8B5002801D01C2B01D00C20F8BDEFF3108372B61E4CA4466546246801342C6083F310881B4B1C681B4B1D68002D09D00023A04202D105E0A04203D001336469A6
S1437300AB42F9D1171C0E1C051CEFF3108372B6624661461268013A0A6083F3108800F0F3FDA542D1D0EFF305830C490A68134307D0EFF305830A6813201343084A9342A9
S1437340C4D9281C311C3A1C00F040FCBEE7C046CC1400201014002020140020B0000020EFF0F0F0031C10B50C20002B03D0094A1C68944200D010BD002907D0EFF30582C6
S14373800548006802430420002AF4D1181C00F047FCF0E7414D4553B000002008B5031C0C20002B03D0044A1968914200D008BD181C00F073FCFAE7414D4553F0B55F4667
S14373C056464D464446F0B487B0002802D0169CB02C07D00E2007B03CBC90469946A246AB46F0BDEFF3108472B6424D414E2D680135356084F310883F4D404C2D6824681A
S1437400A846002D2AD0A04228D0109E119DB4468826013DAC44B24600250027E668B946109FB74207D3BB462769BB4503D20127B94600271097B44506D32669B44503D28A
S14374400126B1460026109656460135A459454504D0A04202D04E46012EDED11E1C151C88468146EFF3108372B6224A21491268013A0A6083F3108800F046FDA145A9D099
S1437480109B002B33D0002D31D0119B0520C72BA1D9129B0A301F2B9DD8139A0930934299D3159B0838012B95D8EFF3058314490A68134308D0EFF305830A680330134362
S14374C0104A934200D886E7109B48460093119B41460193129B2A1C0293139B0393149B0493159B0593331C00F002FC73E7032071E7C046CC140020C4140020BC14002027
S1437500B0000020EFF0F0F0F0B54746D51CAD0880B4041C0E1C9846AD00EFF3108372B6224A1768276283F31088201C291C00F0BFF8EFF3108372B6002806D0306083F3EF
S14375401088002004BC9046F0BD226ABA42E9D14246002A03D183F310881020F2E7144AFC66BA66A26AFE67511CBD67A162002A17D0626A516F3A6779670F6757670922CB
S14375803A63083ABA6342460A49FA640A6801320A6083F31088381C00F054FD8423F858D0E767623F677F67E9E7C046D0140020B9750000CC14002010B5EFF3108272B674
S14375C0C36E002B06D0816E002903D015491C688C4202D082F3108810BD996A0029F9D00024013984669962002918D0446F016F4C6721675C6A844211D0036B092BE9D19E
S143760010217B33C15008490B6801330B6082F3108800F099FCEFF3108272B6DAE75962EBE7C04645545942CC140020F8B51D1C161C0F1C34220021041C02F0F8FBAB08CB
S14376409B001A1C083AA2600222E361F318E2601A1F083B6760A6612661666114601E6033600F4B736000232362EFF3108072B60C4B0D4A236013680C49002B0BD0096838
S14376800D6B0C63EC622563E1620133136080F310880020F8BD0C60E4622463F5E7C046EEEEFFFF455459423014002014140020F0B546464F468846C0B4EFF3108472B6C4
S14376C083688B4264D90021354B42691D68C3680562013394468946324F13E012681E1C711E8E419B1B84F31088EFF3108472B6016AA94204D04269C368944601330562F3
S1437700002B43D05168B942E8D14946002900D1944611688E1A083EB04515D94E68BE4206D00A6801218946002BDCD0013BD6E70E681660C668013EC6600126B1464669E2
S14377408E42CCD14261CAE7002E1FD04346F31A132B0AD9434646460833D318196011495960C1680131C160136083685060083B9E1B866094450FD06346436184F3108829
S14377800832101C0CBC90469946F0BD6346436184F310880020F5E763461B689C46EBE7D0140020EEEEFFFF08B500F025FB01220E4B1A6000F018FD00230D4A13600D4A13
S14377C013600D4A13600D4A13600D4A13600D4A13600D4A13600D4A13600D4A13600D4A13600D4A13600D4A136008BDCC14002010140020201400202C1400200C14002031
S14378000014002024140020281400201C1400201414002030140020081400200414002010B50B4C0B4B22689A4205D00A4B236000F05EFDFFF7B8FF074B2360074B1868C8
S1437840FEF7D4F90023236000F098FD10BDC046B0000020F1F0F0F0F0F0F0F018140020F8B5041C151C0F1C382200211E1C02F0DEFAA560AD00291C6760069800F0B8FFFC
S143788045437519A661E561266266626061E060EFF3108072B60B4B0B4A236013680B49002B0BD009684D6B4C632C63656321630133136080F310880020F8BD0C60246346
S14378C06463F5E7554555510C1400202C140020F0B557464E464546E0B4EFF3108672B60569C46A002D24D0002C2CD1036A87681A1D1B6894460B60012F0BD97B1E043149
S143790010CA013B10C1002BFAD1664B98464744BF00BC44C369634500D1ABE0634603624369013D01334361056186F31088002004E0002A5FD186F310880A201CBC9046CF
S14379409946A246F0BD8023856AEB58012B72D08268036A92461A1D1B6890460B605346012B0AD9013B043180CA013B80C1002BFAD14C4B53449B009844C3699946434514
S143798000D18CE043460362474B9C4662461B68013313601368013B1360436AEA6F191D8846116819605346012B0BD94146013B043280CA013B80C1002BFAD1394F5744AA
S14379C0BF00B844C84567D04346013C4362002C53D1846200238422C462AB66AB50634662461B680133136086F31088281C00F0ABFA0020A2E72D4B1F682D4BF866BB66E4
S1437A008023F967FD50002C3DD187623F677F6705230134C462FA64234A3B63043BBB6313680133136086F31088381C00F00AFB8423F85882E7EA6F836817680F60012BC0
S1437A4007D9013B0431043280CA013B80C1002BFAD1013C002C1DD02B6F6A6F83625A67136700238422C462AB66AB500E4A13680133B8E783699C4650E72B6F6A6F8362D7
S1437A805A671367A6E7836A596F3B6779670F675F67BDE78462E4E78369984694E7836998466FE7FFFFFF3FCC140020D01400206D850000F8B5EFF3108572B64469C36A75
S1437AC0002C22D0002B26D103698668013303610A68436A013C44611F1D1A60012E0CD93A1C731E043110C9013B10C2002BFAD1324B9C466644B600BF19C369BB4254D0A8
S1437B00476285F31088002004E0002A2BD185F310880B20F8BD013B866A002B43D0326F746F826254672267C3620023F26FB366836808681060012B07D9013B0432043118
S1437B4010C9013B10C2002BFAD100228423F2501B4A13680133136085F31088301C00F0F3F90020D6E7174E174F3668F1678021B766F0667450002B19D18662366776676D
S1437B800133C3620523F2640D4A3363043BB36313680133136085F31088301C00F052FA8423F058B6E78362BEE78769A8E7816A4C6F3167746726674E67E1E7FFFFFF3FFA
S1437BC0CC140020D01400206D85000070B5041C0E1C151C00211C2202F029F96660A560EFF3108072B60B4B0B4A236013680B49002B0BD009688D698C616C61A561616127
S1437C000133136080F31088002070BD0C606461A461F5E7414D4553201400201014002070B5EFF3108272B68368002B26D1002903D182F310880D2070BD154B1C68154BFB
S1437C40E066A3660369002B1ED0C5686E6F2567666734676C67013303610623E1640E492363053BA3630B6801330B6082F31088201C00F0E7F98423E058DDE7013B836045
S1437C8082F310880020D7E7C46024676467E2E7D0140020ED850000CC14002038B5EFF3108472B60369002B1AD05A1EC168002A14D00B6F4D6FC3605D672B67026100232C
S1437CC084228B668B50094A13680133136084F31088081C00F038F9002038BDC260EDE783680133836084F31088F5E7CC140020F0B55F4656464D46E0B4071C8B46089EA6
S1437D00099C9246301C221CEF2199460A9D02F08EF8B022381C002102F089F85B46BB6253467B644B46BB6498237C61013CFE6036193E61FD62FD500C9B2022BB61FB615C
S1437D40A023FA500B9B9D423FD000237C32FB63BB5003233B63224BBF657B65381C214900F070FBEFF3108472B61F4B1F4A3B6013681F49002B1FD10F6088217F500431B0
S1437D807F50013313601B4B1A6801321A600D9A012A1ED084F31088EFF3108272B619680139196082F3108800F0AEF800201CBC91469A46A346F0BD8C20882509680E58FD
S1437DC00F5077513E507951DBE79C23FD63FD50BFE784F31088381C00F0B6F8E6E7C046B5810000617E000044524854C4140020BC140020CC14002010B5002420220E4BA5
S1437E0000211C600D4B0E481C600E4B1C600E4B1A60603202F00BF80C4B0D4A1C600D4B11681C600C4B1C600C4B1C60C5235B040B43136010BDC046D0140020D414002044
S1437E4034140020B8140020D8140020BC140020C0140020C4140020CC140020B41400200E4B10B51C68636CA06C98470C4B1B68002B01D0201C9847EFF3108372B60122CD
S1437E802263A26300220749E2640A6801320A6083F31088201C00F0D5F810BDD0140020B4140020CC14002038B5EFF3108172B6124B1C68002C05D0EFF30583104A126805
S1437EC0134303D081F31088132038BD002802D181F31088F9E7042284252263033AA263084A63511368E0640133136081F31088201C00F0A7F86059E7E7C046D0140020D0
S1437F00B0000020CC1400200B4B1B68002B12D10A4B1A680A4B1B689A420CD08022094B52055A60EFF30583002B04D1EFF3108362B683F310887047CC140020D014002058
S1437F40D414002000ED00E0436E70B5041C002B49D04C3000F0AEF9EFF3108172B6324A1368013B1360A36B002B1BD1236B002B22D12E4D2E4B186881F310882B689842DC
S1437F800FD01368002B0CD180222A4B52055A60EFF30583002B04D1EFF3108362B683F3108870BD236B013B012BE2D9636B002B13D1A3632363DCE7636B002B0DD1E06A03
S1437FC01D4D860023637359002B0ED0586A174D04625C6260622362CCE70023636303332363124DC6E7C364B6E7013383407451124D24622E68646233432B60104B1D689B
S1438000A842B6D2094D18602B68002B09D0DB6B9842AFD22C6081F310881368002BB3D0BFE72C60A6E7C046CC140020D4140020D014002000ED00E034140020B814002011
S1438040D8140020F0B54746514B80B4041C1D68EFF3108172B6A8423ED04E4A1368013B1360A36B012B18D04B4B81F310881B689D420FD01368002B0CD18022474B5205E1
S14380805A60EFF30583002B04D1EFF3108362B683F3108804BC9046F0BD0020266A8446A063E06A8046A64226D0636A3C4F73621E628300F858A04235D0374B1868844220
S14380C0D3D13848006880003858186081F310881368002BD1D0DDE7C36C013B033307D881F310884C3000F0B3F8EFF3108172B62D4BE2691A60B0E786006046284FB85193
S143810040468340294806689E43331E06600CD12024244804602048066081F310881368002BAAD0B6E7DE51C7E7704203400F2B09D80020032B01D99B0802305B081B1873
S143814018480360B9E7FF2B08D81E090420032E01D99E09023076083318F1E7144883420AD81E0A08200F2E01D91E0B0430032EF1D9B6080230EEE71E0C1020FF2E01D9D6
S14381801E0E08300F2EF2D936090430EFE7C046D0140020CC140020D414002000ED00E034140020D814002064150020B8140020FFFF000008B5EFF3108272B6036B042B3A
S14381C006D0836E82F31088002B00D0984708BD04490B6801330B6082F31088FFF7B4FEF5E7C046CC14002038B500240D4B0E4D1C600E4B281C1C600D4B00211C600D4B6C
S143820080221C6001F013FE0B4B1D600B4B1D600B4B80351D600B4B1C600B4B1C600B4B1C6038BD80150020E0140020641500207C1500206015002070150020DC14002024
S1438240681500206C150020741500207815002010B5EFF3108172B603685A1ED41C02D88469002C02D081F3108810BD7C34202B00D894000C4B0D4A1B6812681B1993427A
S143828003D39B1A0A4A1268D3181A68002A06D0546920615061026144618361E3E70061406118608361DEE7DC140020681500207015002010B5EFF3108472B68269002A62
S14382C00AD0036998420AD0416959610B61116881420AD00023836184F3108810BD13688342F7D100231360F4E79A611360F1E708B572B6184A194B64211A60184B1A6869
S1438300184B1A60184B186800F072FA174B013898420DD8164A17495060C0200B6A00061B021B0A03430B620023936007331360C021104A0906D3691B021B0A0B43D361F6
S1438340116A0D4B0B40C02109040B431362136A1B021B0A136208BD8C4500201814002000000000C8140020D40A0020FFFFFF0010E000E000ED00E0FFFF00FF0022044BF2
S14383801A6062B68022034B52055A60FEE7C046CC14002000ED00E0244B1A68002A42D09C46EFF30983103BF0C344464D4656465F46203BF0C3103B191C916063461C4908
S14383C00868002802D0906100220A6072B619480268002A1DD01A6062B61A68506801305060906908609021525896469C461B689B681B1CF0CBBB46B246A946A046F0CB60
S143840083F3098863467047FEE762B630BFBFF36F8F72B60268121C1A60002AF5D01B20054A5060D8E70249D0E7C046D014002064150020D414002000ED00E008B500F0EC
S143844023F808BD0269403A07239A430023136053609360D36013615361C36893610023D361136253629362D362136301235B425363916380235B041B1CD3638260032274
S143848090235242C25070472D4A10B51368013313602C4A1368002B26D12B4B2B4C1A6821681068002834D00122294B1A6000F009F92368002B14D1264B1B68002B0BD003
S14384C0254A1268934207D0244B1B68002B03D18022234B52055A6010BD1D4B1B68002BE5D100F0BDF8E7E7013B1360174C002B09D10121144B21601A681068002815D0A5
S1438500134B1960D3E7104B21681A6810680028CAD11448043200681A6082420CD00029DBD10B4B1B68002BC6D0C0E70D48043200681A608242D0D10B4A12681A60EEE7EB
S14385408015002064150020DC1400207C15002060150020D4140020D0140020CC14002000ED00E0681500207015002010B5EFF3108272B6C36E002B06D0816E002903D0BA
S143858018491C688C4202D082F3108810BDD96A0029F9D0002401398466D96200291BD0446F016F4C6721679C6A844214D0016B0529E9D11B69002B10D10A218423C150B7
S14385C009490B6801330B6082F31088FFF7BCFCEFF3108272B6D7E79962E8E784230631C150EDE755455551CC14002010B5EFF3108272B6C36E002B06D0816E002903D0B3
S143860015491C688C4202D082F3108810BD19690029F9D00024013984661961002918D0446F016F4C672167DC68844211D0036B062BE9D10D217E33C15008490B68013309
S14386400B6082F31088FFF77FFCEFF3108272B6DAE7D960EBE7C046414D4553CC140020124B10B51B68EFF3108272B6002010490860002B0DD0196B00290AD1D9690D4830
S143868099610160186A984203D0D96ADB6B994202D082F3108810BD074B084C1B6889009B0008511959064B1960F2E7D01400207C15002064150020D8140020341400209F
S14386C0D4140020F0B55F4656464D4644460023F0B485B00393EFF3108272B63F4B9B461B68002B5AD13E4B99461B68002B55D0012359460B603B4B002698463A4B00275A
S14387009A4643461B681B680293002B01D002A9996143461B6841461F6043461B6804330B60514609688B4250D04B461F6082F31088EFF3108272B611E0203B2360002330
S143874003ADA561246182F31088002B01D0301C9847EFF3108272B6A369AB422CD0029C002C15D023699C4224D06169029359610B6102A999612368202BDED86168A3685E
S1438780E6682160002912D003ADA5612461DAE74B461B68002BB4D159460B6082F3108805B03CBC90469946A246AB46F0BDA16103ADC8E70297DEE7A76182F31088201C0C
S14387C0FFF746FDEFF3108272B6C8E7074B1B680193434601991960A7E7C0466C15002060150020DC1400206815002070150020002243088B4274D303098B425FD3030A37
S14388008B4244D3030B8B4228D3030C8B420DD3FF22090212BA030C8B4202D31212090265D0030B8B4219D300E0090AC30B8B4201D3CB03C01A5241830B8B4201D38B0390
S1438840C01A5241430B8B4201D34B03C01A5241030B8B4201D30B03C01A5241C30A8B4201D3CB02C01A5241830A8B4201D38B02C01A5241430A8B4201D34B02C01A52413B
S1438880030A8B4201D30B02C01A5241CDD2C3098B4201D3CB01C01A524183098B4201D38B01C01A524143098B4201D34B01C01A524103098B4201D30B01C01A5241C3088A
S14388C08B4201D3CB00C01A524183088B4201D38B00C01A524143088B4201D34B00C01A5241411A00D20146524110467047FFE701B5002000F0FCF802BDC0460029F7D06A
S143890003B5FFF775FF0EBC4243891A1847C04603460B437FD4002243088B4274D303098B425FD3030A8B4244D3030B8B4228D3030C8B420DD3FF22090212BA030C8B42ED
S143894002D31212090265D0030B8B4219D300E0090AC30B8B4201D3CB03C01A5241830B8B4201D38B03C01A5241430B8B4201D34B03C01A5241030B8B4201D30B03C01AEB
S14389805241C30A8B4201D3CB02C01A5241830A8B4201D38B02C01A5241430A8B4201D34B02C01A5241030A8B4201D30B02C01A5241CDD2C3098B4201D3CB01C01A52413B
S14389C083098B4201D38B01C01A524143098B4201D34B01C01A524103098B4201D30B01C01A5241C3088B4201D3CB00C01A524183088B4201D38B00C01A524143088B42A1
S1438A0001D34B00C01A5241411A00D201465241104670475DE0CA0F00D04942031000D34042534000229C4603098B422DD3030A8B4212D3FC22890112BA030A8B420CD35D
S1438A40890192118B4208D3890192118B4204D389013AD0921100E08909C3098B4201D3CB01C01A524183098B4201D38B01C01A524143098B4201D34B01C01A5241030925
S1438A808B4201D30B01C01A5241C3088B4201D3CB00C01A524183088B4201D38B00C01A5241D9D243088B4201D34B00C01A5241411A00D20146634652415B10104601D33C
S1438AC04042002B00D54942704763465B1000D3404201B5002000F00BF802BD0029F8D003B5FFF715FF0EBC4243891A1847C0467047C0468446081C6146FFE71FB500F0B7
S1438B00F3FB002801D40021C8421FBD10B500F077FB4042013010BD10B500F0E5FB002801DB002010BD012010BDC04610B500F0DBFB002801DD002010BD012010BDC046AC
S1438B4010B500F087FB002801DC002010BD012010BDC04610B500F07DFB002801DA002010BD012010BDC046002B11D1002A0FD1002900D1002802D00021C943081C07B4AC
S1438B80024802A14018029003BDC04665FFFFFF03B4684601B5029800F064F8019B9E4602B00CBC7047C046F0B54F46464605042D0C2C1CC0B41704160C3F0C9946030CC0
S1438BC07C4375435F4373437D19260CAD199C46AF4203D980235B029846C4444B465143434324042E0C240C2D0466442C1959188919201C0CBC90469946F0BD9E2110B525
S1438C00C905041CFFF7A6FF002803D1201C00F061FE10BD9E21201CC90500F0DDFC00F059FE80231B069C466044F2E7F0B583B0161C1F1C0090019100F01AFF041C0D1C9E
S1438C40221C2B1C301C391CFFF7AEFF009A019B121A8B410899201C0A604B60291C03B0F0BDC046F0B5141C83B01D1C0090019100F0F6FF221C2B1C061C0F1CFFF794FFB9
S1438C80009A019B121A8B410899301C0A604B60391C03B0F0BDC046F8B54A00430244004E02C50F240E281C9B09120EC90FB7098D4240D0A01A002800DC84E0002A1CD137
S1438CC0002F5CD15A0704D00F221A40042A00D004338022D2041A40281C002A24D00134FF2C00D17BE09B015B0AE4B25B02E4055B0A2343C0071843F8BDFF2CE2D0802261
S1438D00D204174301261B2808DC391C20223E1CC140101A8640771EBE410E439B1B5A0133D4281C5A07CFD1DB08FF2C1ED05B025B0AE4B2DAE7A11A002957DD002A3AD02C
S1438D40FF2CBFD08022D204174301261B2972DD9B195A01E5D50134FF2C00D187E001218A4A194013405B080B43ABE7002B36D08022D20313435B025B0AFF24B6E70138AA
S1438D8000283FD1DB1B5A01CBD59B019E09301C00F050FE05388640844223DC001B1F24321C431C201ADA408640131C741EA6410024334386E7002F00D183E70139002950
S1438DC050D1DB19C5E7002820D1621CD2B2012A5EDDDE1B720128D5FE1A0D1CD7E7FF24002383E7694B241A33406BE7002958D1621CD1B201293CDDFF2A37D0FB185B0822
S1438E00141C5FE7FF2C00D07CE75BE7002C1ED0FF2A23D08024E404404223431B285BDD0123FB1A141C0D1CADE7002EAFD100230020002478E73A1CCA40944620223E1C83
S1438E40511A8E406246771EBE41164380E7002B3ED0C0430028E4D0FF2ADFD13B1CFF240D1C2FE7FF2C00D06FE72BE7FF2400235AE7002C5AD1002B7FD0002F00D121E74C
S1438E80DB195A0100D44CE7404A0134134019E7002C15D1002B2FD1002F5DD03B1C0D1C10E7002C21D1002B53D0C943002904D0FF2A4BD01B2957DD0123DB19141C48E78E
S1438EC0002B22D1002F4AD03B1C0D1CFF24F9E63B1C141C0D1CF5E61D1C2024C540201A8340581E83412B439BE7FF2A2ED08024E40449422343DDE7002F00D1E2E6DA1B2C
S1438F0050013CD5FB1A0D1CDCE6FF24002F00D1D8E68022DB08D203134204D0FE08164201D1331C0D1CDB00FF24CBE6002B0DD0FF24002F00D1C5E68022DB08D20313428B
S1438F40F1D0FE081642EED1331CECE73B1CFF24B8E63B1C141CB5E6231C0020E4E6802300209B04FF24DFE61E1C2024CE40611A8B40591E8B4133439FE73B1CA2E6131E1F
S1438F8000D0CEE600230020CEE6C046FFFFFFFBF0B556464D465F464446F0B443024500C70F83B08A465C0A2E0EB94641D0FF2E26D080231B042343DC00002398469B466F
S1438FC07F3E53465B025D0A53465A00DB0F120E9A4639D0FF2A33D080231B042B43DD0000237F3A5146B21A46467940081C01921E430F2E00D976E07E4AB6009659B746C2
S1439000002C30D108239846063B9B46D9E780230021DB03FF245B02E4055B0AC90723430B43181C03B03CBC90469946A246AB46F0BD002C28D104239846033B9B46C0E716
S1439040002D1FD1022302E0002D11D10123B21A50464646784001921E430F2E27D86649B60089598F460C239846093B9B46A8E7281C00F0DFFC7622431F52429D40121A3C
S14390800023AFE70323ADE7201C00F0D3FC431F9C4076235B421E1A002398469B4690E70025D1469B465B464846022B6FD10121FF2401400023AEE77E23019A5B429B1AB4
S14390C01B2B6DDD01214B46194000240023A2E78023DB031C4249D18023DB0323435B025B0A391C96E763016D01AB4237D389461A2001215B1B01241E1C49005B00002EF1
S143910001DBAB4201D35B1B214301380028F3D1581E83410B431D1C019C7F34002CCBDD6B0704D00F232B40042B00D004352B0104D5019A314B8032141C1D40FE2C07DD26
S14391404B460121FF241940002364E7251CAAE701214A46AB015B0AE4B211405BE7019A8946013A01921B200021C4E71D4207D023435B025B0A391C4CE700256302ABD561
S14391808023DB032B435B025B0A514642E7032B25D0012BC0D101210024014000233AE7291CD9402B1C019A9E3293405D1EAB410B435A0704D00F221A40042A00D0043302
S14391C05A0105D54B46012101241940002322E701214A469B015B0A114000241BE7802301214A46DB032B435B020A405B0A111C10E7C04670B80000B0B80000FFFFFFF754
S1439200430270B542004C005D0AC30F4802120E460A240EC90FFF2A05D0FF2C08D00120A2420BD070BD0120002DFBD1FF2CF6D10120002EF6D10120A242F3D1B542F1D183
S14392408B4205D0002AEDD1281C431E9841E9E70020E7E7F0B543024D024A0044005E0A240EC30F6D0A120EC90FFF2C0DD0FF2A31D0002C0DD177427741002A23D1002D8A
S143928021D10020002F0BD107E0002E28D1FF2A21D0002A05D08B4207D0584201231843F0BD002DF9D08B42F7D19442F5DC04DBAE42F2D80020AE42F2D25842434101201E
S14392C05B421843ECE7002FE5D048424141012049420843E4E7002D02D1002CCBD0DAE702204042DCE7C0464302F0B542004C005E0AC30F4802120E450A240EC90FFF2A5A
S14393000FD0FF2C1AD0002A10D177427741002C29D0002F17D0484241410120494208430BE00220002E08D1FF2C07D0002C0AD1002D08D1584201231843F0BD0220002D43
S1439340FBD1002AE1D08B42F4D1A242F2DC04DBAE42EFD80020AE42EFD25842434101205B421843E9E7002DD3D10020002FE4D1E0E7C046F0B55F4656464D464446F0B447
S143938045024600C40F83B00F1C6D0A360EA34645D0FF2E25D080231B041D4300239A46ED007F3E01937B025B0A98467800FB0F000E994640D0FF2838D0802342461B04F5
S14393C01343DB00984600237F384A46019F30186240411C1F430F2F69D87D4EBF00F659B746002D45D108230193063B9A46DAE793465346022B2FD15B46012400251C4088
S1439400FF236D02DB056D0AE4071D432543281C03B03CBC90469946A246AB46F0BD002D2CD104230193033B9A46BCE743465A4253410322D31AC8E742460123002AC4D0D9
S1439440404600F0F7FA4246431F9A4076235B42181A90460023B8E7032B00D1ADE0012B00D08CE05B4654461C40E4B200230025C7E70C230193093B9A4694E7281C00F010
S1439480D9FA7626431F9D4000237642361A01939A4688E780250024ED03FF23B1E74546CB469A46A5E7454693469A46A1E743462C041B0C9C46230C444626041C1C360C86
S14394C02F0C7443351C66467D4373437743EB18260C9E19B54203D980235B029C46674424043304240C1B199D016C1EA5419B0E360C2B43BD19AD011D432B0104D50123C6
S143950068081D400543081C031C7F33002B2CDD690704D00F212940042900D00435290103D52C4B1D40031C8033FE2B17DD0124FF231440002564E78020C003054209D083
S14395404346034206D1454605436D026D0A4C46FF2356E705436D026D0AFF2351E70124AD016D0ADBB214404BE77E235B421B1A1B2B07DD012400231440002541E7081C09
S14395805A46C1E79E30291C8540D940681E85410D436B0704D00F232B40042B00D004356B0104D5012401231440002529E70124AD016D0A1440002323E78023DB031D43F4
S14395C001245B466D0223401C1C6D0AFF2318E7F0B80000FFFFFFF7F8B54A00430244004D02C00F240E061C9B09120EC90FAD09FF2A00D175E001277940884250D0A01A4B
S1439600002800DC8FE0002A1ED1002D00D075E05A0704D00F221A40042A00D0043380220120D2041A403040002A32D00134FF2C00D184E09B015B0AE4B25B02E4055B0AED
S14396402343C0071843F8BDFF2CE1D08022D20415431B287ADD01255B1B5A015DD59B019F09381C00F0E6F905388740844269DC001B1F243A1C431C201ADA408740131C67
S14396807C1EA74100243B43C2E7131E45D100230020DB08FF2C28D05B025B0AE4B2CCE7A11A00295BDD002A2ED0FF2CB0D08022D20415431B2974DC2F1C2022CF40511AE4
S14396C08D40691E8D413D435B195A0125D50134FF2C74D001217E4A194013405B080B4396E7002D00D088E785E7002B27D08022D20313435B025B0AFF249EE70138002801
S1439700AAD0FF2CA5D183E7002D00D180E701390029D9D0FF2CCDD17AE75A0700D079E701203040B5E7002825D1621CD2B2012A55DD5F1B7A012DD5EF1A0E1C91E7FF2405
S143974000237AE7624B241A3B4061E7291C2022C140101A8540681E85410D437CE7002946D1621CD1B201292BDDFF2A26D0EB185B08141C4CE7002C15D0FF2A1AD080241A
S1439780E404404223431B284DDD0123EB1A141C0E1C62E7002F00D063E700230020002477E7012590E7002B39D0C0430028EDD0FF2AE8D12B1CFF240E1C29E7FF24002309
S14397C067E7002C5AD1002B7FD0002D00D11FE75B195A01A1D53E4A0134134018E7002C15D1002B2FD1002D5ED02B1C0E1C0FE7002C21D1002B54D0C943002904D0FF2A50
S14398004CD01B2958DD01235B19141C5DE7002B23D1002D4BD02B1C0E1CFF24F8E62B1C141C0E1CF4E61E1C2024C640201A8340581E83413343A9E7FF2A2FD08024E404BA
S143984049422343DDE7002D00D1E1E65A1B500100D41AE7EB1A0E1CDAE6FF24002D00D1D6E68022DB08D203134204D0ED08154201D12B1C0E1CDB00FF24C9E6002B0DD03C
S1439880FF24002D00D1C3E68022DB08D2031342F1D0ED081542EED12B1CECE72B1CFF24B6E62B1C141CB3E6231C0020F1E6802300209B04FF24ECE61F1C2024CF40611A99
S14398C08B40591E8B413B439EE72B1CA0E6C046FFFFFFFB4202510A4200C30F120E00207E2A0DDD9D2A0CDC802000040143952A0ADC9620821AD1400A1C58424240D0183A
S14399007047034A9818FBE7963A91400A1CF4E7FFFFFF7F70B5041E39D0C50F00D04442201C00F087F89E23261C1B1A962B07DC082801DD083884406402640AD8B21EE000
S1439940992B0ADD0522211C121AD1400A1C011C1B318E40711E8E411643052801DD421F96400F4C3440720704D00F221640042E00D0043462010ED4A401640AD8B264021C
S1439980C005640AED0704432C43201C70BD002500200024F3E7024B1C409F231B1AEBE7FFFFFFFB10B5041E35D000F043F89E21091A962909DC082830DD021C231C083A37
S14399C093405B025B0AC8B220E099290CDD0522231C121AD3401A1C031C1B339C40231C5C1EA34113431C1C052801DD431F9C400F4B2340620704D00F221440042C00D092
S1439A0004335A010ED49B015B0AC8B25B025B0AC005184310BD00200023F7E763025B0AC8B2F3E79F21024A091A1340EBE7C046FFFFFFFB1C2101231B04984201D3000CB9
S1439A4010391B0A984201D3000A08391B09984201D30009043902A2105C40187047C04604030202010101010000000000000000F0B544465F4656464D46F0B41C1C85B01B
S1439A80002900DAA9E00F1C0021061C8846101C191C002C00DA97E0341C3D1C82468946B94273D870D04946504600F085F98346391C301C00F080F95B46181A031C834615
S1439AC0203B9C4600D59CE00023002251460092019363469940019151468140019B0091BB4200D983E000D17EE0009A019B341C3D1CA41A9D416346002B00DA9AE0002608
S1439B0000270296039701369E400396012686400296002800D171E00099019AD30799464B464E081E435708002301220CE0AF4201D1A6420AD8A41BBD4124196D41013817
S1439B40A4185D41002806D0AF42F0D9013824196D410028F8D12022029E039F5B46524236196F4199185AD4281CC8402C1C5B46DC40002968DB041C8C40231C59468840D4
S1439B80021CB61A9F4103E0B0428CD90026002741464B1E9941002300910193009A019B002554429D41331C6340181C3B1C6B40191C009B019CC018614105B03CBC9046D9
S1439BC09946A246AB46F0BD4346DB430C1C9846131C00215842A1415EE7002746428F4101214942884652E7B14200D87DE70026002702960397002800D08DE7029E039FAF
S1439C00C6E720215346091ACB400022191C0023009201934B4683400B4301935CE75A4620239B1A2A1C9A40201C131C5A46D04018439BE720260027331A00260296039790
S1439C400127DF40039761E75B4620215D46C91A031CAC40CB40191C231C0B438EE7C046F0B545464E465746E0B4041C82B00D1C914698468B4262D85FD04146484600F09C
S1439C809BF8291C061C201C00F096F82023311A5B428A46C81865D44B4683401F1C4B468B401E1CAF4258D855D0A41BBD41002800DA77E0002200230092019301328240F7
S1439CC0019201238B40009300293CD0FB079846404672087B080243012600270CE0AB4201D1A2420AD8A41A9D4124196D410139A4197D41002906D0AB42F0D90139241947
S1439D006D410029F8D120220098019953465242001969419E183AD42F1CF7405346DD40002E29DB3C1CB440231C5446A7403A1C801A99410090019105E082429DD90023B3
S1439D400024009301940098019902B01CBC90469946A246F0BDA342A7D90022002300920193B1E720224B46521AD3401A1C43468B401F1C174392E7534620245646E41AC4
S1439D803B1CB540E3401C1C2B1C2343CDE7524620239B1A2A1C9A40271C131C5246D7401F43BBE720230022581A0023009201930132C240019284E710B5002903D1FFF7B7
S1439DC039FE203002E0081CFFF734FE10BDC04608B5031C0A1C03490868191C00F02FF808BDC04614010020014B18687047C0461401002008B5034B011C186800F074F80B
S1439E0008BDC0461401002008B5034B011C186800F024F808BDC04614010020002310B5934203D0CC5CC4540133F9E710BD031C8218934202D019700133FAE770474A4377
S1439E4038B5111C141C00F04FF8051E03D00021221CFFF7ECFF281C38BDFFFF30B500293ED004390B68002B00DAC9181D4A1368141C002B02D14B60116031E099420DD247
S1439E8008680A189A4203D11368C3180B6053684B60216024E08A4203D8131C5A68002AF9D11D685C198C420BD10968691858181960904214D110685268091819605A6068
S1439EC00EE08C4202D90C23036009E008680C18944203D114685268001908604A60596030BDC046300A0020032370B5CC1C9C430834051C0C2C01D20C2405E0002C03DA0F
S1439F000C2300202B6042E08C42F9D3204A1368101C191C002913D00A68121B0DD40B2A02D90A608B181FE08B4202D15A6802601BE04A685A600B1C17E00B1C4968E9E7A8
S1439F40144E3368002B03D1281C00F07BF83060281C211C00F076F8031C421CD0D00322C61C964386420AD11C60181C07210B301A1D8843821A0AD05142995007E0311AF2
S1439F80281C00F05FF8431CBAD0331CECE770BD300A00202C0A00200FB40B4B13B51C68002C05D0A369002B02D1201C00F09EF805AB201CA168049A019300F04FF916BCC7
S1439FC008BC04B01847C04614010020154B10B51C68A36B002B15D11820FFF70BFF124BA0630380114B01224380114B8380114BC380114B038105234381063383810023FC
S143A00002614361A46B0D4A206961690C4BFEF7CBFD0122002380185941206161614800400810BD140100200E330000CDABFFFF341200006DE6FFFFECDEFFFF2D7F954C58
S143A0402DF4515838B50023064C051C081C2360FBF758FC431C03D12368002B00D02B6038BDC0468415002008B5024900F0AEF808BDC04619AB0000002310B5041C036012
S143A0804360836081814366C281036143618361191C08225C30FFF7CAFE054B24626362044BA362044BE362044B236310BDC04689A70000B1A70000E9A7000015A8000093
S143A0C070B568254B1E5D430E1C291C7431FFF70BFF041E08D000212A1C016046600C30A0606832FFF7A3FE201C70BD836913B5002B28D18364C3640365134B134A1B68C3
S143A10082620193984201D101238361041C00F01FF86060201C00F01BF8A060201C00F017F80421E06000226068FFF7A5FFA06809210122FFF7A0FFE06812210222FFF726
S143A1409BFF0123A36113BD34B9000069A00000F8B51D4B061C1D68AB69002B02D1281CFFF7C4FF4835AC686B68013B05D40C22A75E002F10D06834F7E72B68002B06D1BE
S143A180301C0421FFF79CFF2860002801D02D68E9E70C23336016E00123201C5B42E3810233A38167662760A760676027616761A7615C30391C0822FFF739FE201C676389
S143A1C0A763A764E764F8BD34B90000F7B5041C071C002601914834002C16D06368A5680093009B013B00930DD4AB89012B08D90E22AB5E013304D0381C291C019B9847D8
S143A20006436835EDE72468E6E7301CFEBD936810B5013B9360002B05DA9469A34208DBCBB20A2B05D01368581C10601970C8B201E000F0F5FA10BDF8B5061C0F1C141CA2
S143A240D518AC4208D02178301C3A1CFFF7DFFF0134431CF5D100E00020F8BDF0B59FB0061C0F1C02920593002804D08369002B01D1FFF73BFF794B9F4201D1776808E049
S143A280774B9F4201D1B76803E0764B9F4200D1F768BB891B070AD53B69002B07D0002306AD6B6120336B761033AB763DE0301C391C00F021FB0028F1D001204042CAE02C
S143A2C0059A111D12680591002A7EDB0992013423782E2B00D189E021786348032200F0B3FC002808D0604B0134C01A40238340181C2B68184328602178631C5B48062287
S143A3000293297600F0A0FC002800D191E0584B002B00D084E00722059B07339343083305936B69039A9B186B61029C2378002B04D1029BE31A049311D003E0252BF8D00B
S143A3400134F3E7049B301C391C029AFFF774FF431C7BD06A69049B944663446B612378002B73D00122002352426A6002A95432521801342B60EB60AB601370AB65217892
S143A3803C48052200F060FC002809D0394B0134C01A01238340181C2B6818432860EEE72B68DA0604D55322202102A8121811701A0704D553222B2102A8121811702278A7
S143A3C02A2A00D17CE7099B05E05242EA60022213432B607BE72278303A092A04D80A214B4301349B18F6E7099371E763782A2B09D1059B02341A1D1B680592002B0DDA3B
S143A40001235B420AE0002301342278303A092A04D80A214B4301349B18F6E707935BE705AB0093301C291C3A1C134B00E000BF07E005AB0093301C291C3A1C0E4B00F027
S143A4408BF80390039B013300D06AE7BB895B0600D532E70B981FB0F0BDC04638B9000058B9000078B900009EB90000A2B900000000000098B9000039A20000F7B5171C27
S143A48001930A698B6800900C1C934200DA131C221C3B6043321278002A01D001333B6023689B0602D53B6802333B60062523681D401ED0231C43331B785A1E93412268D1
S143A4C092061CD53020E1184031C870211C5A1C45310978A21840320233D1700FE0221C0123009801991932089EB047431C0ED00135E3683A689B1A9D42F0DBDAE7221C68
S143A500009801994332089DA847431C02D10120404220E006232068E1683A6803400025042B03D18D1AEB43DB171D40A3682269934201DD9B1AED180027AF420ADA221C9F
S143A5400123009801991A32089EB047431CDED00137F2E70020FEBDF0B58BB006920A1C43320793059004920A7E0C1C109B6E2A00D1A8E011D8632A22D009D8002A00D137
S143A580B2E0582A00D0C2E045310A707C4A4FE0642A1DD0692A1BD0B9E0732A00D1A7E009D86F2A29D0702A00D0B0E0202209680A43226037E0752A1FD0782A33D0A6E0E6
S143A5C00E1C1A684236111D196013683370A1E021681A68080606D4490604D5111D19600023D55E02E0111D19601568002D3BDA2D23049A6D42137036E021681A6808063E
S143A60006D4490604D51568111D1960ADB202E0111D196015685A4B227E03930A276F2A1DD108271BE0221C782145321170554A19680392081D226818600D68100602D4C2
S143A640500600D5ADB2D30702D520231A4322601027002D03D1202322689A432260231C002243331A7002E00A27454B03936368A360002B03DB0422216891432160002D73
S143A68002D1049E002B0ED0049E281C391CFEF735F9039B013E5B5C281C3370391CFEF7A7F8051EF1D1082F09D12368DB0706D563682269934202DC3023013E3370049B3B
S143A6C09B1B23612BE009681A68080607D4490605D5111D19601368A28A1A8004E0111D1960136862691A600023049E236116E01A68111D196016680021301C626800F0CC
S143A700A3FA002801D0801B6060636803E0261C42363270012323610023049A1370079B05980093211C069B09AAFFF7A7FE431C02D10120404221E0236905980699321C44
S143A740079DA847431CF4D023689B0705D4099BE068984212DA181C10E00025E368099A9B1A9D42F3DA221C0123059806991932079EB047431CDCD00135EFE70BB0F0BDCB
S143A780A9B90000BAB9000038B50C1C0E25495F00F066FA002803DB636D1B18636503E0A289024B1340A38138BDC046FFEFFFFFF8B51E1C8B89051C0C1C171CDB0505D5C5
S143A7C00E23C95E0022022300F0D2F9A289054B281C1340A3813A1C0E23E15E331C00F077F8F8BDFFEFFFFF38B50C1C0E25495F00F0BEF9A389421C03D1054A1340A381F5
S143A80004E0802252011343A381606538BDC046FFEFFFFF08B50E23C95E00F0E1F808BD70B5051C0E1C141C002804D08369002B01D1FFF75BFC234B9C4201D16C6808E0C6
S143A840214B9C4201D1AC6803E0204B9C4200D1EC68A369A360A3891B070AD52369002B07D023682269F6B2981A636998420FDB08E0281C211C00F03FF80028F1D00120EF
S143A88040421DE0281C211C00F046F90028F6D1A3680130013BA36023685A1C22601E706369984205D0A389301CDB0708D50A2E06D1281C211C00F02FF90028DFD1301C6C
S143A8C070BDC04638B9000058B9000078B9000038B5051C0020074C2060081C111C1A1C00F09EFA431C03D12368002B00D02B6038BDC04684150020354B70B51D68061C9A
S143A9000C1C002D05D0AB69002B02D1281CFFF7EDFB304B9C4201D16C6808E02E4B9C4201D1AC6803E02D4B9C4200D1EC68A3899AB2110723D4D10607D40922012032601C
S143A94037321343A381404240E0530713D5616B002908D0231C4433994202D0301CFFF77DFA002363632422A3899343A38100236360236923600822A3891343A38123697D
S143A980002B0BD1A023A2899B00134080229200934203D0301C211C00F0FEF80123A289134005D00023A36063695B42A36103E0910700D46369A36000202369834205D1F6
S143A9C0130603D540231A43A281013870BDC0461401002038B9000058B9000078B9000038B50023064C051C081C236000F044FA431C03D12368002B00D02B6038BDC04614
S143AA0084150020F7B58A89051C0C1C13075ED44B68002B02DC0B6C002B1ADDE76A002F17D000232E682B6080235B011A4001D0626D15E0281C216A0123B847021C431CA8
S143AA400ED12B68002B0BD01D2B01D0162B02D12E6000205EE04021A3890B43A38159E0A3895B0706D56368D21A636B002B01D0236CD21A0023281C216AE76AB847A38936
S143AA80421C06D12A68002A03D01D2A01D0162A19D10022626022692260DB0405D5431C02D12B68002B00D16065616B2E600029CFD0231C4433994202D0281CFFF7CEF9D6
S143AAC00020606326E040221343A38122E00F69002FBED00B680F60DB1B01930023920700D14B69A360019B002BB2DD281C216A3A1C019BA66AB047002806DC40220120FB
S143AB00A38940421343A38104E0019B3F181B1A0193E8E7FEBDFFFF38B50B69051C0C1C002B01D100201CE0002804D08369002B01D1FFF7DBFA0B4B9C4201D16C6808E08C
S143AB40094B9C4201D1AC6803E0084B9C4200D1EC680C22A35E002BE4D0281C211CFFF751FF38BD38B9000058B9000078B9000038B5051C0020074C2060081C111C1A1CFB
S143AB8000F03AF9431C03D12368002B00D02B6038BDC04684150020F0B58B8991B09B0706D50B1C47330B600B6101234B6145E00C1C0E23C95E061C002904DA8023A58918
S143ABC01D4010D10CE001AA00F05EF80028F5DBF023029D1B021D40194BED186B425D418027FF0001E000254027301C391CFFF77BF900280CD1A3899A051FD40222134303
S143AC00A381231C4733236023610123636115E080220C4BB362A38920601343A38120616761002D0AD00E23E15E301C00F03EF8002803D00122A3891343A38111B0F0BDB7
S143AC4000E0FFFF69A00000C9B28218904204D003788B4202D00130F8E700207047FFFF38B5051C0020074C2060081C111C1A1C00F06CF8431C03D12368002B00D02B600F
S143AC8038BDC0468415002038B50023064C051C081C111C236000F038F9431C03D12368002B00D02B6038BD8415002038B50023064C051C081C236000F034F9431C03D1F8
S143ACC02368002B00D02B6038BDC046841500200A4B10B5041C1868002804D08369002B01D1FFF703FA0020132C05D8044BE400E258013200D0181910BDC0461401002014
S143AD00340A0020F8B5051CFFF76EF80027061C1324201C391CABBE041C281C3460F8BD08B5431C01D1FFF7EDFF08BD30B585B001AD0190029103920624201C291CABBE36
S143AD40041C201CFFF7ECFF05B030BD70B50E1C151CFFF7BDFF041E05D1FFF745F8092303600A3B0BE00068311C2A1CFFF7DEFF031C421C03D062682B1AD2186260181CC7
S143AD8070BDF7B50C1C161CFFF7A2FF051E03D1FFF72AF8092304E0022E06D9FFF724F8162303600120404225E0012E03D14368E41810D5F2E7022E0DD103680A3600938D
S143ADC06F46301C391CABBE061C301CFFF7A8FF2418431CE6D02B686F46009301940A26301C391CABBE061C301CFFF799FF0028D8DB201C6C60FEBD08B5FFF7C2FF08BDB7
S143AE0030B585B001AD0190029103920524201C291CABBE041C201CFFF782FF05B030BD70B50E1C151CFFF753FF041E04D1FEF7DBFF0923036010E00068311C2A1CFFF707
S143AE40DFFF031E09DB6268281A121862609D4205D10020FFF756FF01E00120404270BD37B50224019001AD201C291CABBE041C201CFFF755FF3EBD38B5051CFFF728FF1B
S143AE80041E06D1FEF7B0FF092303600120404214E0013D012D09D8094B9A681B699A4204D101235B420360002007E02068FFF7D7FF002802D101235B42236038BDC0463A
S143AEC0340A002070B50C1CFFF702FF061E05D1FEF78AFF092303600A3B14E0802362689B01134363608023DB00E3620C25281C311CABBE051C281CFFF712FF031C421C73
S143AF0001D000232061181C70BD38B5051C0C1C3C22081C0021FEF78AFF281C211CFFF7D1FF38BD70B5FFF7D3FE0925041E03D1FEF75AFF056010E0281C211CABBE041CE7
S143AF40012084420AD0FEF74FFF0024061C1325281C211CABBE051C3560201C70BDFFFFF8B5C046F8BC08BC9E467047F8B5C046F8BC08BC9E4670470600000001000800A9
S143AF800101000010000001000018000000010120000000000040000001000160000000010280000000000100010001000280010000010300020000000200040001000385
S143AFC0000800000003FFFF00040810BD0C00003907000095070000810B000079060000A5080000E9060000351E0000591D0000991E0000D51B0000A91A0000511B00003D
S143B0000D1D0000011A0000411F0000D11C00007D1A0000211B0000511A00009D1C0000C11B0000AE2100000C22000038220000522200006E220000802200009A210000EF
S143B0402125000099200000C52000001D210000F1200000BD220000C92300003D230000892400000D20000003010101222C0000162C0000042C0000FC2B0000BC2B0000C0
S143B080262C0000000103070F1F3F7F00010102010202030102020302030304010202030203030402030304030404050102020302030304020303040304040502030304B7
S143B0C00304040503040405040505060102020302030304020303040304040502030304030404050304040504050506020303040304040503040405040505060304040558
S143B100040505060405050605060607D9290000ED290000152A0000D92A0000412A0000BD2A000001010201C52D00008D2D00001D2D0000312D0000452D00005D2D0000CA
S143B140712D0000020102019131000081300000512E0000A92E0000492E00004D2E0000E12E000045310000612F00007D2F000003010201E8340000F4340000003500002B
S143B18004350000C8340000DC3400004C3500005835000064350000683500002C35000040350000C8350000CC350000D0350000D6350000B4350000C435000058390000AB
S143B1C0603900006839000070390000783900004839000050390000010002000400FFFF010002000300FFFF000001000200FFFF0000010000000200553F0000BD46000009
S143B2007D400000F141000005450000193D0000ED420000D93F0000393D0000893E0000D93E0000ED3E0000013F0000153F00002D3F0000413F0000C143000019430000D5
S143B2406D430000594400007544000091440000F1440000093D000004FF000201FFFFFF0401020159510000154A0000C94800000D4900004949000069490000BD490000AF
S143B280D54D000025480000094800000101030100093D0000127A0040420F0000093D000400000002000000006CDC020024F4000803030000FF0000815000001CE0014078
S143B2C0007004400470044008700440FFFFFFFFFFFFFFFF16FFFF8EFFFFFFFFFF808D815F495383FFFF9F9CFFFFFFFFD0D3FFFFDCDDFFFFFFFFFFE5EEFFFFC342FFFF6BB8
S143B300FFFFFFFFFFFFFFFFFFFFFFFFFFFFFFFFFFFFFFFF00050000010002000800FFFF010000000000000000000000626C696E6B795F74687265616400FFFF636F6E74FC
S143B340726F6C5F74687265616400FF0CB100000000000000C20100000000000202020298B300008CB30000C16C000074B3000080B30000580C002050B30000CCAF00000B
S143B380000001000000000001000000380C0020A4B3000048B10000480C0020C0B3000048B10000100000207700FF00000000008CB300000000000000000000E8AF000077
S143B3C0000000207600FF000000000098B3000000000000840C0020F0B3000038B4000064B20000380900200CB4000040B000000000000000000020020102FFD95C0000AA
S143B400D4B30000000000000000000000000000FA000000020000003200000000040200B96B0000E4B300004CB4000068775F74687265616400FFFF0B00000000000000D3
S143B440000000000000000000180000010000004C0900205CB4000040B000000000000005000000030000003200000000020201A56F000050B4000008B400005353502011
S143B480436F6D6D6F6E20496E69742053656D003000000098B400000080000000000000008000000100000000000000020000000080000003000000000000000400000020
S143B4C0000000000C000000000000000D000000000000000E000000000000000F000000000000000001000000000000010100000000000002010000000000000301000008
S143B500000001040401000004040000050100000404000006010000040400000701000000000100080100000404000009010000040400000A010000040400000B0100008D
S143B540000001040C010000040400000D0100000000000000020000040000000402000004000000050200000404000006020000000000000C020000000001030D02000057
S143B580000000000E020000000000000F02000000000100000300000404000001030000040400000203000004000000030300000400000004030000000000000004000030
S143B5C0000000000104000000000000020400000000000003040000040000000704000004000000080400000400000009040000040000000A040000040000000B040000E0
S143B60000000000000500000000000001050000000000000205000072733438355F636F6D6D5F74687265616400FFFF636F6E74726F6C5F6D73675F717565756500000063
S143B640332E2070726F63657373696E6720636D640A0D00322E2068616E646C696E6720636D640A0D0000004A656C6C796669736820444F414F204D6F64756C6520496E23
S143B680697469616C697A65642C206E6F77207374617274696E672054687265616473202E2E2E2E0D0A00FFCC5F0000E25F0000F85F00000C60000020600000366000007D
S143B6C0B85F00009A5F0000B26200002A6200003E62000052620000666200007A6200008C6200009E62000014620000456D6265722076657273696F6E3A20760000000059
S143B7000A4D4D422076657273696F6E3A20760025752E000A7625752E25752E257520000A205A6967626565206D6F64756C65206669726D776172652076657273696F6ECE
S143B74020746F6F206C6F772C2075706772616465206669726D776172652E200000000052617069644841200000000045554936343A2000257820004861726477617265B7
S143B78020547970653A257820000000426F6F746C6F6164657220547970653A25780A0066773A20000000004D4D42206D616E7566616374757265722069643A2000000097
S143B7C03078257825780A000A2072756E6E696E675F73746174653A20307825780000000A20636F6E6669675F73746174653A203078257800FFFFFFC86A0000E06A0000D7
S143B800F06A0000006B0000106B0000206B0000306B00003E6B0000CE6A000094090020980900209C090020A0090020A4090020A8090020AC090020B0090020586E00009F
S143B840966E0000D86E0000EA6E0000FC6E00000E6F0000226F0000346F00005C6E000074785F627974655F706F6F6C00000000E6900000AE900000CA900000A2900000E5
S143B880CA9000000E900000CA900000A2900000AE900000AE9000000E900000A29000004C9100004C9100004C910000D0900000AE900000AE90000096910000A0900000EA
S143B8C0969100000E90000096910000A0900000AE900000AE9000000E900000A09000004C9100004C9100004C9100007A910000AE940000A6940000A69400009E94000054
S143B900F0930000F0930000949400009E940000F093000094940000F09300009E940000F2930000F2930000F2930000389500004300FFFFB40000200000000000000000D2
S143B94000000000000000000000000000000000000000000000000000000000000000000000000000000000000000000000000000000000000000000000000000000000C3
S143B980000000000000000000000000000000000000000000000000232D302B2000686C4C00656667454647003031323334353637383941424344454600303132333435C3
S113B9C03637383961626364656600FF0000000041
S10BB9D0A0E0FF7F010000006C
S143B9D800000800000000000000000000000000000010080000000000000000000000000108010055030F00ED6300005505050089630000554102009D64000055300000E1
S143BA187963000055210100E1640000012100009D65000001230000F965000021010000E56700002104000095670000210B000035680000210D000085680000210E00000A
S143BA586D66000021020000A966000021050000ED660000211000002D670000000102030405060708090A0B0C0D0E0FFA010001F0F0F0F00000000038B9000058B9000031
S143BA9878B900000000000000000000000000000000000030B900000000000000000000000000000000000000000000000000000000000000000000000000000000000050
S143BAD80000000000000000000000000000000000000000B400002041060000190600000000000000000000000000000000000000000000000000000000000000000000F0
S11FBB18000000000000000000000000000000000000000000000000000000000D
S90359495A
