Archive member included because of file (symbol)

c:/program files (x86)/gnu tools arm embedded/4.9 2015q3/bin/../lib/gcc/arm-none-eabi/4.9.3/armv6-m\libgcc.a(_udivsi3.o)
                              ./synergy/ssp/src/driver/r_sci_uart/r_sci_uart.o (__aeabi_uidiv)
c:/program files (x86)/gnu tools arm embedded/4.9 2015q3/bin/../lib/gcc/arm-none-eabi/4.9.3/armv6-m\libgcc.a(_dvmd_tls.o)
                              c:/program files (x86)/gnu tools arm embedded/4.9 2015q3/bin/../lib/gcc/arm-none-eabi/4.9.3/armv6-m\libgcc.a(_udivsi3.o) (__aeabi_idiv0)
c:/program files (x86)/gnu tools arm embedded/4.9 2015q3/bin/../lib/gcc/arm-none-eabi/4.9.3/armv6-m\libgcc.a(_arm_cmpsf2.o)
                              ./synergy/ssp/src/driver/r_cgc/hw/hw_cgc.o (__aeabi_fcmplt)
c:/program files (x86)/gnu tools arm embedded/4.9 2015q3/bin/../lib/gcc/arm-none-eabi/4.9.3/armv6-m\libgcc.a(_aeabi_uldivmod.o)
                              ./synergy/ssp/src/driver/r_gpt/r_gpt.o (__aeabi_uldivmod)
c:/program files (x86)/gnu tools arm embedded/4.9 2015q3/bin/../lib/gcc/arm-none-eabi/4.9.3/armv6-m\libgcc.a(_muldi3.o)
                              ./synergy/ssp/src/driver/r_gpt/r_gpt.o (__aeabi_lmul)
c:/program files (x86)/gnu tools arm embedded/4.9 2015q3/bin/../lib/gcc/arm-none-eabi/4.9.3/armv6-m\libgcc.a(_fixunssfsi.o)
                              ./synergy/ssp/src/driver/r_cgc/hw/hw_cgc.o (__aeabi_f2uiz)
c:/program files (x86)/gnu tools arm embedded/4.9 2015q3/bin/../lib/gcc/arm-none-eabi/4.9.3/armv6-m\libgcc.a(bpabi.o)
                              c:/program files (x86)/gnu tools arm embedded/4.9 2015q3/bin/../lib/gcc/arm-none-eabi/4.9.3/armv6-m\libgcc.a(_aeabi_uldivmod.o) (__gnu_uldivmod_helper)
c:/program files (x86)/gnu tools arm embedded/4.9 2015q3/bin/../lib/gcc/arm-none-eabi/4.9.3/armv6-m\libgcc.a(addsf3.o)
                              ./synergy/ssp/src/driver/r_cgc/hw/hw_cgc.o (__aeabi_fadd)
c:/program files (x86)/gnu tools arm embedded/4.9 2015q3/bin/../lib/gcc/arm-none-eabi/4.9.3/armv6-m\libgcc.a(divsf3.o)
                              ./synergy/ssp/src/driver/r_flash_lp/hw/target/hw_flash_lp.o (__aeabi_fdiv)
c:/program files (x86)/gnu tools arm embedded/4.9 2015q3/bin/../lib/gcc/arm-none-eabi/4.9.3/armv6-m\libgcc.a(eqsf2.o)
                              c:/program files (x86)/gnu tools arm embedded/4.9 2015q3/bin/../lib/gcc/arm-none-eabi/4.9.3/armv6-m\libgcc.a(_arm_cmpsf2.o) (__eqsf2)
c:/program files (x86)/gnu tools arm embedded/4.9 2015q3/bin/../lib/gcc/arm-none-eabi/4.9.3/armv6-m\libgcc.a(gesf2.o)
                              c:/program files (x86)/gnu tools arm embedded/4.9 2015q3/bin/../lib/gcc/arm-none-eabi/4.9.3/armv6-m\libgcc.a(_arm_cmpsf2.o) (__gesf2)
c:/program files (x86)/gnu tools arm embedded/4.9 2015q3/bin/../lib/gcc/arm-none-eabi/4.9.3/armv6-m\libgcc.a(lesf2.o)
                              c:/program files (x86)/gnu tools arm embedded/4.9 2015q3/bin/../lib/gcc/arm-none-eabi/4.9.3/armv6-m\libgcc.a(_arm_cmpsf2.o) (__lesf2)
c:/program files (x86)/gnu tools arm embedded/4.9 2015q3/bin/../lib/gcc/arm-none-eabi/4.9.3/armv6-m\libgcc.a(mulsf3.o)
                              ./synergy/ssp/src/driver/r_flash_lp/hw/target/hw_flash_lp.o (__aeabi_fmul)
c:/program files (x86)/gnu tools arm embedded/4.9 2015q3/bin/../lib/gcc/arm-none-eabi/4.9.3/armv6-m\libgcc.a(subsf3.o)
                              c:/program files (x86)/gnu tools arm embedded/4.9 2015q3/bin/../lib/gcc/arm-none-eabi/4.9.3/armv6-m\libgcc.a(_fixunssfsi.o) (__aeabi_fsub)
c:/program files (x86)/gnu tools arm embedded/4.9 2015q3/bin/../lib/gcc/arm-none-eabi/4.9.3/armv6-m\libgcc.a(fixsfsi.o)
                              ./synergy/ssp/src/driver/r_flash_lp/hw/target/hw_flash_lp.o (__aeabi_f2iz)
c:/program files (x86)/gnu tools arm embedded/4.9 2015q3/bin/../lib/gcc/arm-none-eabi/4.9.3/armv6-m\libgcc.a(floatsisf.o)
                              ./synergy/ssp/src/driver/r_cgc/hw/hw_cgc.o (__aeabi_i2f)
c:/program files (x86)/gnu tools arm embedded/4.9 2015q3/bin/../lib/gcc/arm-none-eabi/4.9.3/armv6-m\libgcc.a(floatunsisf.o)
                              ./synergy/ssp/src/driver/r_flash_lp/hw/target/hw_flash_lp.o (__aeabi_ui2f)
c:/program files (x86)/gnu tools arm embedded/4.9 2015q3/bin/../lib/gcc/arm-none-eabi/4.9.3/armv6-m\libgcc.a(_clzsi2.o)
                              c:/program files (x86)/gnu tools arm embedded/4.9 2015q3/bin/../lib/gcc/arm-none-eabi/4.9.3/armv6-m\libgcc.a(addsf3.o) (__clzsi2)
c:/program files (x86)/gnu tools arm embedded/4.9 2015q3/bin/../lib/gcc/arm-none-eabi/4.9.3/armv6-m\libgcc.a(_divdi3.o)
                              c:/program files (x86)/gnu tools arm embedded/4.9 2015q3/bin/../lib/gcc/arm-none-eabi/4.9.3/armv6-m\libgcc.a(bpabi.o) (__divdi3)
c:/program files (x86)/gnu tools arm embedded/4.9 2015q3/bin/../lib/gcc/arm-none-eabi/4.9.3/armv6-m\libgcc.a(_udivdi3.o)
                              c:/program files (x86)/gnu tools arm embedded/4.9 2015q3/bin/../lib/gcc/arm-none-eabi/4.9.3/armv6-m\libgcc.a(bpabi.o) (__udivdi3)
c:/program files (x86)/gnu tools arm embedded/4.9 2015q3/bin/../lib/gcc/arm-none-eabi/4.9.3/armv6-m\libgcc.a(_clzdi2.o)
                              c:/program files (x86)/gnu tools arm embedded/4.9 2015q3/bin/../lib/gcc/arm-none-eabi/4.9.3/armv6-m\libgcc.a(_divdi3.o) (__clzdi2)
c:/program files (x86)/gnu tools arm embedded/4.9 2015q3/bin/../lib/gcc/arm-none-eabi/4.9.3/../../../../arm-none-eabi/lib/armv6-m\libg_nano.a(lib_a-errno.o)
                              ./synergy/ssp/src/bsp/mcu/all/bsp_sbrk.o (__errno)
c:/program files (x86)/gnu tools arm embedded/4.9 2015q3/bin/../lib/gcc/arm-none-eabi/4.9.3/../../../../arm-none-eabi/lib/armv6-m\libg_nano.a(lib_a-exit.o)
                              c:/program files (x86)/gnu tools arm embedded/4.9 2015q3/bin/../lib/gcc/arm-none-eabi/4.9.3/../../../../arm-none-eabi/lib/armv6-m/rdimon-crt0.o (exit)
c:/program files (x86)/gnu tools arm embedded/4.9 2015q3/bin/../lib/gcc/arm-none-eabi/4.9.3/../../../../arm-none-eabi/lib/armv6-m\libg_nano.a(lib_a-impure.o)
                              c:/program files (x86)/gnu tools arm embedded/4.9 2015q3/bin/../lib/gcc/arm-none-eabi/4.9.3/../../../../arm-none-eabi/lib/armv6-m\libg_nano.a(lib_a-exit.o) (_global_impure_ptr)
c:/program files (x86)/gnu tools arm embedded/4.9 2015q3/bin/../lib/gcc/arm-none-eabi/4.9.3/../../../../arm-none-eabi/lib/armv6-m\libg_nano.a(lib_a-init.o)
                              c:/program files (x86)/gnu tools arm embedded/4.9 2015q3/bin/../lib/gcc/arm-none-eabi/4.9.3/../../../../arm-none-eabi/lib/armv6-m/rdimon-crt0.o (__libc_init_array)
c:/program files (x86)/gnu tools arm embedded/4.9 2015q3/bin/../lib/gcc/arm-none-eabi/4.9.3/../../../../arm-none-eabi/lib/armv6-m\libg_nano.a(lib_a-memcpy.o)
                              ./src/int_prot_frame.o (memcpy)
c:/program files (x86)/gnu tools arm embedded/4.9 2015q3/bin/../lib/gcc/arm-none-eabi/4.9.3/../../../../arm-none-eabi/lib/armv6-m\libg_nano.a(lib_a-memset.o)
                              c:/program files (x86)/gnu tools arm embedded/4.9 2015q3/bin/../lib/gcc/arm-none-eabi/4.9.3/../../../../arm-none-eabi/lib/armv6-m/rdimon-crt0.o (memset)
c:/program files (x86)/gnu tools arm embedded/4.9 2015q3/bin/../lib/gcc/arm-none-eabi/4.9.3/../../../../arm-none-eabi/lib/armv6-m\libg_nano.a(lib_a-printf.o)
                              ./src/payload_processing.o (printf)
c:/program files (x86)/gnu tools arm embedded/4.9 2015q3/bin/../lib/gcc/arm-none-eabi/4.9.3/../../../../arm-none-eabi/lib/armv6-m\libg_nano.a(lib_a-findfp.o)
                              c:/program files (x86)/gnu tools arm embedded/4.9 2015q3/bin/../lib/gcc/arm-none-eabi/4.9.3/../../../../arm-none-eabi/lib/armv6-m\libg_nano.a(lib_a-printf.o) (__sinit)
c:/program files (x86)/gnu tools arm embedded/4.9 2015q3/bin/../lib/gcc/arm-none-eabi/4.9.3/../../../../arm-none-eabi/lib/armv6-m\libg_nano.a(lib_a-fwalk.o)
                              c:/program files (x86)/gnu tools arm embedded/4.9 2015q3/bin/../lib/gcc/arm-none-eabi/4.9.3/../../../../arm-none-eabi/lib/armv6-m\libg_nano.a(lib_a-findfp.o) (_fwalk)
c:/program files (x86)/gnu tools arm embedded/4.9 2015q3/bin/../lib/gcc/arm-none-eabi/4.9.3/../../../../arm-none-eabi/lib/armv6-m\libg_nano.a(lib_a-nano-mallocr.o)
                              c:/program files (x86)/gnu tools arm embedded/4.9 2015q3/bin/../lib/gcc/arm-none-eabi/4.9.3/../../../../arm-none-eabi/lib/armv6-m\libg_nano.a(lib_a-findfp.o) (_malloc_r)
c:/program files (x86)/gnu tools arm embedded/4.9 2015q3/bin/../lib/gcc/arm-none-eabi/4.9.3/../../../../arm-none-eabi/lib/armv6-m\libg_nano.a(lib_a-nano-vfprintf.o)
                              c:/program files (x86)/gnu tools arm embedded/4.9 2015q3/bin/../lib/gcc/arm-none-eabi/4.9.3/../../../../arm-none-eabi/lib/armv6-m\libg_nano.a(lib_a-printf.o) (_vfprintf_r)
c:/program files (x86)/gnu tools arm embedded/4.9 2015q3/bin/../lib/gcc/arm-none-eabi/4.9.3/../../../../arm-none-eabi/lib/armv6-m\libg_nano.a(lib_a-nano-vfprintf_i.o)
                              c:/program files (x86)/gnu tools arm embedded/4.9 2015q3/bin/../lib/gcc/arm-none-eabi/4.9.3/../../../../arm-none-eabi/lib/armv6-m\libg_nano.a(lib_a-nano-vfprintf.o) (_printf_i)
c:/program files (x86)/gnu tools arm embedded/4.9 2015q3/bin/../lib/gcc/arm-none-eabi/4.9.3/../../../../arm-none-eabi/lib/armv6-m\libg_nano.a(lib_a-sbrkr.o)
                              c:/program files (x86)/gnu tools arm embedded/4.9 2015q3/bin/../lib/gcc/arm-none-eabi/4.9.3/../../../../arm-none-eabi/lib/armv6-m\libg_nano.a(lib_a-nano-mallocr.o) (_sbrk_r)
c:/program files (x86)/gnu tools arm embedded/4.9 2015q3/bin/../lib/gcc/arm-none-eabi/4.9.3/../../../../arm-none-eabi/lib/armv6-m\libg_nano.a(lib_a-stdio.o)
                              c:/program files (x86)/gnu tools arm embedded/4.9 2015q3/bin/../lib/gcc/arm-none-eabi/4.9.3/../../../../arm-none-eabi/lib/armv6-m\libg_nano.a(lib_a-findfp.o) (__sread)
c:/program files (x86)/gnu tools arm embedded/4.9 2015q3/bin/../lib/gcc/arm-none-eabi/4.9.3/../../../../arm-none-eabi/lib/armv6-m\libg_nano.a(lib_a-wbuf.o)
                              c:/program files (x86)/gnu tools arm embedded/4.9 2015q3/bin/../lib/gcc/arm-none-eabi/4.9.3/../../../../arm-none-eabi/lib/armv6-m\libg_nano.a(lib_a-nano-vfprintf.o) (__swbuf_r)
c:/program files (x86)/gnu tools arm embedded/4.9 2015q3/bin/../lib/gcc/arm-none-eabi/4.9.3/../../../../arm-none-eabi/lib/armv6-m\libg_nano.a(lib_a-writer.o)
                              c:/program files (x86)/gnu tools arm embedded/4.9 2015q3/bin/../lib/gcc/arm-none-eabi/4.9.3/../../../../arm-none-eabi/lib/armv6-m\libg_nano.a(lib_a-stdio.o) (_write_r)
c:/program files (x86)/gnu tools arm embedded/4.9 2015q3/bin/../lib/gcc/arm-none-eabi/4.9.3/../../../../arm-none-eabi/lib/armv6-m\libg_nano.a(lib_a-wsetup.o)
                              c:/program files (x86)/gnu tools arm embedded/4.9 2015q3/bin/../lib/gcc/arm-none-eabi/4.9.3/../../../../arm-none-eabi/lib/armv6-m\libg_nano.a(lib_a-nano-vfprintf.o) (__swsetup_r)
c:/program files (x86)/gnu tools arm embedded/4.9 2015q3/bin/../lib/gcc/arm-none-eabi/4.9.3/../../../../arm-none-eabi/lib/armv6-m\libg_nano.a(lib_a-closer.o)
                              c:/program files (x86)/gnu tools arm embedded/4.9 2015q3/bin/../lib/gcc/arm-none-eabi/4.9.3/../../../../arm-none-eabi/lib/armv6-m\libg_nano.a(lib_a-stdio.o) (_close_r)
c:/program files (x86)/gnu tools arm embedded/4.9 2015q3/bin/../lib/gcc/arm-none-eabi/4.9.3/../../../../arm-none-eabi/lib/armv6-m\libg_nano.a(lib_a-fflush.o)
                              c:/program files (x86)/gnu tools arm embedded/4.9 2015q3/bin/../lib/gcc/arm-none-eabi/4.9.3/../../../../arm-none-eabi/lib/armv6-m\libg_nano.a(lib_a-findfp.o) (_fflush_r)
c:/program files (x86)/gnu tools arm embedded/4.9 2015q3/bin/../lib/gcc/arm-none-eabi/4.9.3/../../../../arm-none-eabi/lib/armv6-m\libg_nano.a(lib_a-fvwrite.o)
                              c:/program files (x86)/gnu tools arm embedded/4.9 2015q3/bin/../lib/gcc/arm-none-eabi/4.9.3/../../../../arm-none-eabi/lib/armv6-m\libg_nano.a(lib_a-nano-vfprintf.o) (__sfvwrite_r)
c:/program files (x86)/gnu tools arm embedded/4.9 2015q3/bin/../lib/gcc/arm-none-eabi/4.9.3/../../../../arm-none-eabi/lib/armv6-m\libg_nano.a(lib_a-lseekr.o)
                              c:/program files (x86)/gnu tools arm embedded/4.9 2015q3/bin/../lib/gcc/arm-none-eabi/4.9.3/../../../../arm-none-eabi/lib/armv6-m\libg_nano.a(lib_a-stdio.o) (_lseek_r)
c:/program files (x86)/gnu tools arm embedded/4.9 2015q3/bin/../lib/gcc/arm-none-eabi/4.9.3/../../../../arm-none-eabi/lib/armv6-m\libg_nano.a(lib_a-makebuf.o)
                              c:/program files (x86)/gnu tools arm embedded/4.9 2015q3/bin/../lib/gcc/arm-none-eabi/4.9.3/../../../../arm-none-eabi/lib/armv6-m\libg_nano.a(lib_a-wsetup.o) (__smakebuf_r)
c:/program files (x86)/gnu tools arm embedded/4.9 2015q3/bin/../lib/gcc/arm-none-eabi/4.9.3/../../../../arm-none-eabi/lib/armv6-m\libg_nano.a(lib_a-memchr.o)
                              c:/program files (x86)/gnu tools arm embedded/4.9 2015q3/bin/../lib/gcc/arm-none-eabi/4.9.3/../../../../arm-none-eabi/lib/armv6-m\libg_nano.a(lib_a-nano-vfprintf.o) (memchr)
c:/program files (x86)/gnu tools arm embedded/4.9 2015q3/bin/../lib/gcc/arm-none-eabi/4.9.3/../../../../arm-none-eabi/lib/armv6-m\libg_nano.a(lib_a-memmove.o)
                              c:/program files (x86)/gnu tools arm embedded/4.9 2015q3/bin/../lib/gcc/arm-none-eabi/4.9.3/../../../../arm-none-eabi/lib/armv6-m\libg_nano.a(lib_a-fvwrite.o) (memmove)
c:/program files (x86)/gnu tools arm embedded/4.9 2015q3/bin/../lib/gcc/arm-none-eabi/4.9.3/../../../../arm-none-eabi/lib/armv6-m\libg_nano.a(lib_a-nano-freer.o)
                              c:/program files (x86)/gnu tools arm embedded/4.9 2015q3/bin/../lib/gcc/arm-none-eabi/4.9.3/../../../../arm-none-eabi/lib/armv6-m\libg_nano.a(lib_a-wsetup.o) (_free_r)
c:/program files (x86)/gnu tools arm embedded/4.9 2015q3/bin/../lib/gcc/arm-none-eabi/4.9.3/../../../../arm-none-eabi/lib/armv6-m\libg_nano.a(lib_a-nano-reallocr.o)
                              c:/program files (x86)/gnu tools arm embedded/4.9 2015q3/bin/../lib/gcc/arm-none-eabi/4.9.3/../../../../arm-none-eabi/lib/armv6-m\libg_nano.a(lib_a-fvwrite.o) (_realloc_r)
c:/program files (x86)/gnu tools arm embedded/4.9 2015q3/bin/../lib/gcc/arm-none-eabi/4.9.3/../../../../arm-none-eabi/lib/armv6-m\libg_nano.a(lib_a-readr.o)
                              c:/program files (x86)/gnu tools arm embedded/4.9 2015q3/bin/../lib/gcc/arm-none-eabi/4.9.3/../../../../arm-none-eabi/lib/armv6-m\libg_nano.a(lib_a-stdio.o) (_read_r)
c:/program files (x86)/gnu tools arm embedded/4.9 2015q3/bin/../lib/gcc/arm-none-eabi/4.9.3/../../../../arm-none-eabi/lib/armv6-m\libg_nano.a(lib_a-reent.o)
                              c:/program files (x86)/gnu tools arm embedded/4.9 2015q3/bin/../lib/gcc/arm-none-eabi/4.9.3/../../../../arm-none-eabi/lib/armv6-m\libg_nano.a(lib_a-sbrkr.o) (errno)
c:/program files (x86)/gnu tools arm embedded/4.9 2015q3/bin/../lib/gcc/arm-none-eabi/4.9.3/../../../../arm-none-eabi/lib/armv6-m\libg_nano.a(lib_a-fstatr.o)
                              c:/program files (x86)/gnu tools arm embedded/4.9 2015q3/bin/../lib/gcc/arm-none-eabi/4.9.3/../../../../arm-none-eabi/lib/armv6-m\libg_nano.a(lib_a-makebuf.o) (_fstat_r)
c:/program files (x86)/gnu tools arm embedded/4.9 2015q3/bin/../lib/gcc/arm-none-eabi/4.9.3/../../../../arm-none-eabi/lib/armv6-m\libg_nano.a(lib_a-isattyr.o)
                              c:/program files (x86)/gnu tools arm embedded/4.9 2015q3/bin/../lib/gcc/arm-none-eabi/4.9.3/../../../../arm-none-eabi/lib/armv6-m\libg_nano.a(lib_a-makebuf.o) (_isatty_r)
c:/program files (x86)/gnu tools arm embedded/4.9 2015q3/bin/../lib/gcc/arm-none-eabi/4.9.3/../../../../arm-none-eabi/lib/armv6-m\libg_nano.a(lib_a-nano-msizer.o)
                              c:/program files (x86)/gnu tools arm embedded/4.9 2015q3/bin/../lib/gcc/arm-none-eabi/4.9.3/../../../../arm-none-eabi/lib/armv6-m\libg_nano.a(lib_a-nano-reallocr.o) (_malloc_usable_size_r)
c:/program files (x86)/gnu tools arm embedded/4.9 2015q3/bin/../lib/gcc/arm-none-eabi/4.9.3/armv6-m\libgcc.a(_divsi3.o)
                              c:/program files (x86)/gnu tools arm embedded/4.9 2015q3/bin/../lib/gcc/arm-none-eabi/4.9.3/../../../../arm-none-eabi/lib/armv6-m\libg_nano.a(lib_a-fvwrite.o) (__aeabi_idiv)
c:/program files (x86)/gnu tools arm embedded/4.9 2015q3/bin/../lib/gcc/arm-none-eabi/4.9.3/../../../../arm-none-eabi/lib/armv6-m\librdimon_nano.a(rdimon-syscalls.o)
                              c:/program files (x86)/gnu tools arm embedded/4.9 2015q3/bin/../lib/gcc/arm-none-eabi/4.9.3/../../../../arm-none-eabi/lib/armv6-m/rdimon-crt0.o (initialise_monitor_handles)
c:/program files (x86)/gnu tools arm embedded/4.9 2015q3/bin/../lib/gcc/arm-none-eabi/4.9.3/../../../../arm-none-eabi/lib/armv6-m\librdimon_nano.a(rdimon-_exit.o)
                              c:/program files (x86)/gnu tools arm embedded/4.9 2015q3/bin/../lib/gcc/arm-none-eabi/4.9.3/../../../../arm-none-eabi/lib/armv6-m\libg_nano.a(lib_a-exit.o) (_exit)
c:/program files (x86)/gnu tools arm embedded/4.9 2015q3/bin/../lib/gcc/arm-none-eabi/4.9.3/../../../../arm-none-eabi/lib/armv6-m\librdimon_nano.a(rdimon-_kill.o)
                              c:/program files (x86)/gnu tools arm embedded/4.9 2015q3/bin/../lib/gcc/arm-none-eabi/4.9.3/../../../../arm-none-eabi/lib/armv6-m\librdimon_nano.a(rdimon-_exit.o) (_kill)
c:/program files (x86)/gnu tools arm embedded/4.9 2015q3/bin/../lib/gcc/arm-none-eabi/4.9.3/../../../../arm-none-eabi/lib/armv6-m\libc_nano.a(lib_a-strlen.o)
                              c:/program files (x86)/gnu tools arm embedded/4.9 2015q3/bin/../lib/gcc/arm-none-eabi/4.9.3/../../../../arm-none-eabi/lib/armv6-m\librdimon_nano.a(rdimon-syscalls.o) (strlen)

Allocating common symbols
Common symbol       size              file

p_jump_to_app       0x4               ./src/hal_entry.o
rcv_buffer          0x10              ./src/int_prot_frame.o
buffer_2            0x400             ./src/frame_processing.o
errno               0x4               c:/program files (x86)/gnu tools arm embedded/4.9 2015q3/bin/../lib/gcc/arm-none-eabi/4.9.3/../../../../arm-none-eabi/lib/armv6-m\libg_nano.a(lib_a-reent.o)
SystemCoreClock     0x4               ./synergy/ssp/src/bsp/cmsis/Device/RENESAS/S128/Source/system_S128.o
g_transfer0_ctrl    0x10              ./src/synergy_gen/hal_data.o
snd_buffer          0xc8              ./src/int_prot_frame.o
firmware_info       0x162             ./src/hal_entry.o
g_transfer1_ctrl    0x10              ./src/synergy_gen/hal_data.o
rx_buffer           0x406             ./src/rs485_driver.o
buffer_1            0x400             ./src/frame_processing.o
my_addr             0x1               ./src/int_prot_frame.o
data_buff           0x64              ./src/frame_processing.o
CRC_test            0x1               ./src/hal_entry.o
rcv_payload         0x7f              ./src/int_prot_frame.o
g_uart0_ctrl        0x2c              ./src/synergy_gen/hal_data.o
frame_header_buff   0x5               ./src/frame_processing.o
g_flash0_ctrl       0x10              ./src/synergy_gen/hal_data.o
downld_new_app      0x1               ./src/hal_entry.o
new_command         0x4               ./src/payload_processing.o
p_jump_to_boot      0x4               ./src/time_out_handlers.o

Discarded input sections

 .text          0x00000000        0x0 c:/program files (x86)/gnu tools arm embedded/4.9 2015q3/bin/../lib/gcc/arm-none-eabi/4.9.3/armv6-m/crti.o
 .data          0x00000000        0x0 c:/program files (x86)/gnu tools arm embedded/4.9 2015q3/bin/../lib/gcc/arm-none-eabi/4.9.3/armv6-m/crti.o
 .bss           0x00000000        0x0 c:/program files (x86)/gnu tools arm embedded/4.9 2015q3/bin/../lib/gcc/arm-none-eabi/4.9.3/armv6-m/crti.o
 .data          0x00000000        0x4 c:/program files (x86)/gnu tools arm embedded/4.9 2015q3/bin/../lib/gcc/arm-none-eabi/4.9.3/armv6-m/crtbegin.o
 .text          0x00000000       0xe8 c:/program files (x86)/gnu tools arm embedded/4.9 2015q3/bin/../lib/gcc/arm-none-eabi/4.9.3/../../../../arm-none-eabi/lib/armv6-m/rdimon-crt0.o
 .data          0x00000000      0x110 c:/program files (x86)/gnu tools arm embedded/4.9 2015q3/bin/../lib/gcc/arm-none-eabi/4.9.3/../../../../arm-none-eabi/lib/armv6-m/rdimon-crt0.o
 .bss           0x00000000        0x0 c:/program files (x86)/gnu tools arm embedded/4.9 2015q3/bin/../lib/gcc/arm-none-eabi/4.9.3/../../../../arm-none-eabi/lib/armv6-m/rdimon-crt0.o
 .ARM.extab     0x00000000        0x0 c:/program files (x86)/gnu tools arm embedded/4.9 2015q3/bin/../lib/gcc/arm-none-eabi/4.9.3/../../../../arm-none-eabi/lib/armv6-m/rdimon-crt0.o
 .ARM.exidx     0x00000000        0x8 c:/program files (x86)/gnu tools arm embedded/4.9 2015q3/bin/../lib/gcc/arm-none-eabi/4.9.3/../../../../arm-none-eabi/lib/armv6-m/rdimon-crt0.o
 .ARM.attributes
                0x00000000       0x1b c:/program files (x86)/gnu tools arm embedded/4.9 2015q3/bin/../lib/gcc/arm-none-eabi/4.9.3/../../../../arm-none-eabi/lib/armv6-m/rdimon-crt0.o
 .group         0x00000000        0x8 ./synergy/ssp/src/driver/r_sci_uart/r_sci_uart.o
 .group         0x00000000        0x8 ./synergy/ssp/src/driver/r_sci_uart/r_sci_uart.o
 .group         0x00000000        0x8 ./synergy/ssp/src/driver/r_sci_uart/r_sci_uart.o
 .group         0x00000000        0x8 ./synergy/ssp/src/driver/r_sci_uart/r_sci_uart.o
 .group         0x00000000        0x8 ./synergy/ssp/src/driver/r_sci_uart/r_sci_uart.o
 .group         0x00000000        0x8 ./synergy/ssp/src/driver/r_sci_uart/r_sci_uart.o
 .group         0x00000000        0x8 ./synergy/ssp/src/driver/r_sci_uart/r_sci_uart.o
Memory Configuration

Name             Origin             Length             Attributes
FLASH            0x00000000         0x00015000         xr
RAM              0x20000000         0x00006000         xrw
DATA_FLASH       0x40100000         0x00001000         xr
*default*        0x00000000         0xffffffff

Linker script and memory map

LOAD c:/program files (x86)/gnu tools arm embedded/4.9 2015q3/bin/../lib/gcc/arm-none-eabi/4.9.3/armv6-m/crti.o
LOAD c:/program files (x86)/gnu tools arm embedded/4.9 2015q3/bin/../lib/gcc/arm-none-eabi/4.9.3/armv6-m/crtbegin.o
LOAD c:/program files (x86)/gnu tools arm embedded/4.9 2015q3/bin/../lib/gcc/arm-none-eabi/4.9.3/../../../../arm-none-eabi/lib/armv6-m/rdimon-crt0.o
START GROUP
LOAD ./synergy/ssp/src/driver/r_sci_uart/r_sci_uart.o
LOAD ./synergy/ssp/src/driver/r_ioport/r_ioport.o
LOAD ./synergy/ssp/src/driver/r_gpt/r_gpt.o
LOAD ./synergy/ssp/src/driver/r_fmi/r_fmi.o
LOAD ./synergy/ssp/src/driver/r_flash_lp/hw/target/flash_lp_core/hw_codeflash.o
LOAD ./synergy/ssp/src/driver/r_flash_lp/hw/target/flash_lp_core/hw_codeflash_extra.o
LOAD ./synergy/ssp/src/driver/r_flash_lp/hw/target/flash_lp_core/hw_dataflash.o
LOAD ./synergy/ssp/src/driver/r_flash_lp/hw/target/flash_lp_core/hw_flash_common.o
LOAD ./synergy/ssp/src/driver/r_flash_lp/hw/target/hw_flash_lp.o
LOAD ./synergy/ssp/src/driver/r_flash_lp/r_flash_lp.o
LOAD ./synergy/ssp/src/driver/r_elc/r_elc.o
LOAD ./synergy/ssp/src/driver/r_dtc/r_dtc.o
LOAD ./synergy/ssp/src/driver/r_cgc/hw/hw_cgc.o
LOAD ./synergy/ssp/src/driver/r_cgc/r_cgc.o
LOAD ./synergy/ssp/src/bsp/mcu/s128/bsp_cache.o
LOAD ./synergy/ssp/src/bsp/mcu/s128/bsp_clocks.o
LOAD ./synergy/ssp/src/bsp/mcu/s128/bsp_feature.o
LOAD ./synergy/ssp/src/bsp/mcu/s128/bsp_fmi_R7FS128783A01CFM.o
LOAD ./synergy/ssp/src/bsp/mcu/s128/bsp_group_irq.o
LOAD ./synergy/ssp/src/bsp/mcu/s128/bsp_hw_locks.o
LOAD ./synergy/ssp/src/bsp/mcu/s128/bsp_module_stop.o
LOAD ./synergy/ssp/src/bsp/mcu/s128/bsp_rom_registers.o
LOAD ./synergy/ssp/src/bsp/mcu/all/bsp_common.o
LOAD ./synergy/ssp/src/bsp/mcu/all/bsp_common_leds.o
LOAD ./synergy/ssp/src/bsp/mcu/all/bsp_delay.o
LOAD ./synergy/ssp/src/bsp/mcu/all/bsp_irq.o
LOAD ./synergy/ssp/src/bsp/mcu/all/bsp_locking.o
LOAD ./synergy/ssp/src/bsp/mcu/all/bsp_register_protection.o
LOAD ./synergy/ssp/src/bsp/mcu/all/bsp_sbrk.o
LOAD ./synergy/ssp/src/bsp/cmsis/Device/RENESAS/S128/Source/startup_S128.o
LOAD ./synergy/ssp/src/bsp/cmsis/Device/RENESAS/S128/Source/system_S128.o
LOAD ./src/synergy_gen/common_data.o
LOAD ./src/synergy_gen/hal_data.o
LOAD ./src/synergy_gen/main.o
LOAD ./src/synergy_gen/pin_data.o
LOAD ./src/frame_processing.o
LOAD ./src/hal_entry.o
LOAD ./src/int_prot_frame.o
LOAD ./src/payload_processing.o
LOAD ./src/rs485_driver.o
LOAD ./src/time_out_handlers.o
LOAD C:\git\module_bootloader\Module_Bootloader\synergy\ssp\src\bsp\cmsis\DSP_Lib\cm0plus_gcc\libDSP_Lib.a
END GROUP
START GROUP
LOAD c:/program files (x86)/gnu tools arm embedded/4.9 2015q3/bin/../lib/gcc/arm-none-eabi/4.9.3/armv6-m\libgcc.a
LOAD c:/program files (x86)/gnu tools arm embedded/4.9 2015q3/bin/../lib/gcc/arm-none-eabi/4.9.3/../../../../arm-none-eabi/lib/armv6-m\libg_nano.a
LOAD c:/program files (x86)/gnu tools arm embedded/4.9 2015q3/bin/../lib/gcc/arm-none-eabi/4.9.3/../../../../arm-none-eabi/lib/armv6-m\libc_nano.a
END GROUP
START GROUP
LOAD c:/program files (x86)/gnu tools arm embedded/4.9 2015q3/bin/../lib/gcc/arm-none-eabi/4.9.3/armv6-m\libgcc.a
LOAD c:/program files (x86)/gnu tools arm embedded/4.9 2015q3/bin/../lib/gcc/arm-none-eabi/4.9.3/../../../../arm-none-eabi/lib/armv6-m\libc_nano.a
LOAD c:/program files (x86)/gnu tools arm embedded/4.9 2015q3/bin/../lib/gcc/arm-none-eabi/4.9.3/../../../../arm-none-eabi/lib/armv6-m\librdimon_nano.a
END GROUP
START GROUP
LOAD c:/program files (x86)/gnu tools arm embedded/4.9 2015q3/bin/../lib/gcc/arm-none-eabi/4.9.3/armv6-m\libgcc.a
LOAD c:/program files (x86)/gnu tools arm embedded/4.9 2015q3/bin/../lib/gcc/arm-none-eabi/4.9.3/../../../../arm-none-eabi/lib/armv6-m\libc_nano.a
LOAD c:/program files (x86)/gnu tools arm embedded/4.9 2015q3/bin/../lib/gcc/arm-none-eabi/4.9.3/../../../../arm-none-eabi/lib/armv6-m\librdimon_nano.a
END GROUP
LOAD c:/program files (x86)/gnu tools arm embedded/4.9 2015q3/bin/../lib/gcc/arm-none-eabi/4.9.3/armv6-m/crtend.o
LOAD c:/program files (x86)/gnu tools arm embedded/4.9 2015q3/bin/../lib/gcc/arm-none-eabi/4.9.3/armv6-m/crtn.o
START GROUP
LOAD c:/program files (x86)/gnu tools arm embedded/4.9 2015q3/bin/../lib/gcc/arm-none-eabi/4.9.3/armv6-m\libgcc.a
LOAD c:/program files (x86)/gnu tools arm embedded/4.9 2015q3/bin/../lib/gcc/arm-none-eabi/4.9.3/../../../../arm-none-eabi/lib/armv6-m\libc.a
LOAD c:/program files (x86)/gnu tools arm embedded/4.9 2015q3/bin/../lib/gcc/arm-none-eabi/4.9.3/../../../../arm-none-eabi/lib/armv6-m\libm.a
LOAD c:/program files (x86)/gnu tools arm embedded/4.9 2015q3/bin/../lib/gcc/arm-none-eabi/4.9.3/../../../../arm-none-eabi/lib/armv6-m\libnosys.a
END GROUP

.text           0x00000000     0xdab8
                0x00000000                __ROM_Start = .
 *(.vectors)
 .vectors       0x00000000       0x40 ./synergy/ssp/src/bsp/cmsis/Device/RENESAS/S128/Source/startup_S128.o
                0x00000000                __Vectors
 *(SORT(.vector.*))
 .vector.GPT_0_COUNTER_OVERFLOW
                0x00000040        0x4 ./src/synergy_gen/hal_data.o
                0x00000040                g_vector_GPT_0_COUNTER_OVERFLOW
 .vector.SCI_0_ERI
                0x00000044        0x4 ./src/synergy_gen/hal_data.o
                0x00000044                g_vector_SCI_0_ERI
 .vector.SCI_0_RXI
                0x00000048        0x4 ./src/synergy_gen/hal_data.o
                0x00000048                g_vector_SCI_0_RXI
 .vector.SCI_0_TEI
                0x0000004c        0x4 ./src/synergy_gen/hal_data.o
                0x0000004c                g_vector_SCI_0_TEI
 .vector.SCI_0_TXI
                0x00000050        0x4 ./src/synergy_gen/hal_data.o
                0x00000050                g_vector_SCI_0_TXI
                0x00000054                __Vectors_End = .
                0x00000054                __Vectors_Size = (__Vectors_End - __Vectors)
                0x00000054                __end__ = .
                0x00000400                . = (__ROM_Start + 0x400)
 *fill*         0x00000054      0x3ac ff
 *(.rom_registers*)
 .rom_registers
                0x00000400        0x8 ./synergy/ssp/src/bsp/mcu/s128/bsp_rom_registers.o
                0x00000500                . = (__ROM_Start + 0x500)
 *fill*         0x00000408       0xf8 ff
                0x00000500                __Vector_Info_Start = .
 *(SORT(.vector_info.*))
 .vector_info.GPT_0_COUNTER_OVERFLOW
                0x00000500        0x8 ./src/synergy_gen/hal_data.o
                0x00000500                g_vector_info_GPT_0_COUNTER_OVERFLOW
 .vector_info.SCI_0_ERI
                0x00000508        0x8 ./src/synergy_gen/hal_data.o
                0x00000508                g_vector_info_SCI_0_ERI
 .vector_info.SCI_0_RXI
                0x00000510        0x8 ./src/synergy_gen/hal_data.o
                0x00000510                g_vector_info_SCI_0_RXI
 .vector_info.SCI_0_TEI
                0x00000518        0x8 ./src/synergy_gen/hal_data.o
                0x00000518                g_vector_info_SCI_0_TEI
 .vector_info.SCI_0_TXI
                0x00000520        0x8 ./src/synergy_gen/hal_data.o
                0x00000520                g_vector_info_SCI_0_TXI
                0x00000528                __Vector_Info_End = .
                0x00000028                __Vector_Info_Size = (__Vector_Info_End - __Vector_Info_Start)
                0x00000528                __Lock_Lookup_Start = .
 *(SORT(.hw_lock_lookup.*))
 .hw_lock_lookup.ADC_0U_0U
                0x00000528        0x4 ./synergy/ssp/src/bsp/mcu/s128/bsp_hw_locks.o
                0x00000528                g_lock_lookup_ADC_0U_0U
 .hw_lock_lookup.AES_0U_0U
                0x0000052c        0x4 ./synergy/ssp/src/bsp/mcu/s128/bsp_hw_locks.o
                0x0000052c                g_lock_lookup_AES_0U_0U
 .hw_lock_lookup.AGT_0U_0U
                0x00000530        0x4 ./synergy/ssp/src/bsp/mcu/s128/bsp_hw_locks.o
                0x00000530                g_lock_lookup_AGT_0U_0U
 .hw_lock_lookup.AGT_0U_1U
                0x00000534        0x4 ./synergy/ssp/src/bsp/mcu/s128/bsp_hw_locks.o
                0x00000534                g_lock_lookup_AGT_0U_1U
 .hw_lock_lookup.BSC_0U_1U
                0x00000538        0x4 ./synergy/ssp/src/bsp/mcu/s128/bsp_hw_locks.o
                0x00000538                g_lock_lookup_BSC_0U_1U
 .hw_lock_lookup.CAC_0U_0U
                0x0000053c        0x4 ./synergy/ssp/src/bsp/mcu/s128/bsp_hw_locks.o
                0x0000053c                g_lock_lookup_CAC_0U_0U
 .hw_lock_lookup.CAN_0U_0U
                0x00000540        0x4 ./synergy/ssp/src/bsp/mcu/s128/bsp_hw_locks.o
                0x00000540                g_lock_lookup_CAN_0U_0U
 .hw_lock_lookup.COMP_HS_0U_0U
                0x00000544        0x4 ./synergy/ssp/src/bsp/mcu/s128/bsp_hw_locks.o
                0x00000544                g_lock_lookup_COMP_HS_0U_0U
 .hw_lock_lookup.COMP_HS_0U_1U
                0x00000548        0x4 ./synergy/ssp/src/bsp/mcu/s128/bsp_hw_locks.o
                0x00000548                g_lock_lookup_COMP_HS_0U_1U
 .hw_lock_lookup.COMP_HS_0U_2U
                0x0000054c        0x4 ./synergy/ssp/src/bsp/mcu/s128/bsp_hw_locks.o
                0x0000054c                g_lock_lookup_COMP_HS_0U_2U
 .hw_lock_lookup.COMP_LP_0U_0U
                0x00000550        0x4 ./synergy/ssp/src/bsp/mcu/s128/bsp_hw_locks.o
                0x00000550                g_lock_lookup_COMP_LP_0U_0U
 .hw_lock_lookup.COMP_LP_0U_1U
                0x00000554        0x4 ./synergy/ssp/src/bsp/mcu/s128/bsp_hw_locks.o
                0x00000554                g_lock_lookup_COMP_LP_0U_1U
 .hw_lock_lookup.CRC_0U_0U
                0x00000558        0x4 ./synergy/ssp/src/bsp/mcu/s128/bsp_hw_locks.o
                0x00000558                g_lock_lookup_CRC_0U_0U
 .hw_lock_lookup.CTSU_0U_0U
                0x0000055c        0x4 ./synergy/ssp/src/bsp/mcu/s128/bsp_hw_locks.o
                0x0000055c                g_lock_lookup_CTSU_0U_0U
 .hw_lock_lookup.DAC_0U_0U
                0x00000560        0x4 ./synergy/ssp/src/bsp/mcu/s128/bsp_hw_locks.o
                0x00000560                g_lock_lookup_DAC_0U_0U
 .hw_lock_lookup.DAC_0U_1U
                0x00000564        0x4 ./synergy/ssp/src/bsp/mcu/s128/bsp_hw_locks.o
                0x00000564                g_lock_lookup_DAC_0U_1U
 .hw_lock_lookup.DAC_0U_2U
                0x00000568        0x4 ./synergy/ssp/src/bsp/mcu/s128/bsp_hw_locks.o
                0x00000568                g_lock_lookup_DAC_0U_2U
 .hw_lock_lookup.DOC_0U_0U
                0x0000056c        0x4 ./synergy/ssp/src/bsp/mcu/s128/bsp_hw_locks.o
                0x0000056c                g_lock_lookup_DOC_0U_0U
 .hw_lock_lookup.DTC_0U_0U
                0x00000570        0x4 ./synergy/ssp/src/bsp/mcu/s128/bsp_hw_locks.o
                0x00000570                g_lock_lookup_DTC_0U_0U
 .hw_lock_lookup.ELC_0U_0U
                0x00000574        0x4 ./synergy/ssp/src/bsp/mcu/s128/bsp_hw_locks.o
                0x00000574                g_lock_lookup_ELC_0U_0U
 .hw_lock_lookup.FCU_0U_0U
                0x00000578        0x4 ./synergy/ssp/src/bsp/mcu/s128/bsp_hw_locks.o
                0x00000578                g_lock_lookup_FCU_0U_0U
 .hw_lock_lookup.GPT_0U_0U
                0x0000057c        0x4 ./synergy/ssp/src/bsp/mcu/s128/bsp_hw_locks.o
                0x0000057c                g_lock_lookup_GPT_0U_0U
 .hw_lock_lookup.GPT_0U_1U
                0x00000580        0x4 ./synergy/ssp/src/bsp/mcu/s128/bsp_hw_locks.o
                0x00000580                g_lock_lookup_GPT_0U_1U
 .hw_lock_lookup.GPT_0U_2U
                0x00000584        0x4 ./synergy/ssp/src/bsp/mcu/s128/bsp_hw_locks.o
                0x00000584                g_lock_lookup_GPT_0U_2U
 .hw_lock_lookup.GPT_0U_3U
                0x00000588        0x4 ./synergy/ssp/src/bsp/mcu/s128/bsp_hw_locks.o
                0x00000588                g_lock_lookup_GPT_0U_3U
 .hw_lock_lookup.GPT_0U_4U
                0x0000058c        0x4 ./synergy/ssp/src/bsp/mcu/s128/bsp_hw_locks.o
                0x0000058c                g_lock_lookup_GPT_0U_4U
 .hw_lock_lookup.GPT_0U_5U
                0x00000590        0x4 ./synergy/ssp/src/bsp/mcu/s128/bsp_hw_locks.o
                0x00000590                g_lock_lookup_GPT_0U_5U
 .hw_lock_lookup.GPT_0U_6U
                0x00000594        0x4 ./synergy/ssp/src/bsp/mcu/s128/bsp_hw_locks.o
                0x00000594                g_lock_lookup_GPT_0U_6U
 .hw_lock_lookup.ICU_0U_0U
                0x00000598        0x4 ./synergy/ssp/src/bsp/mcu/s128/bsp_hw_locks.o
                0x00000598                g_lock_lookup_ICU_0U_0U
 .hw_lock_lookup.ICU_0U_1U
                0x0000059c        0x4 ./synergy/ssp/src/bsp/mcu/s128/bsp_hw_locks.o
                0x0000059c                g_lock_lookup_ICU_0U_1U
 .hw_lock_lookup.ICU_0U_2U
                0x000005a0        0x4 ./synergy/ssp/src/bsp/mcu/s128/bsp_hw_locks.o
                0x000005a0                g_lock_lookup_ICU_0U_2U
 .hw_lock_lookup.ICU_0U_3U
                0x000005a4        0x4 ./synergy/ssp/src/bsp/mcu/s128/bsp_hw_locks.o
                0x000005a4                g_lock_lookup_ICU_0U_3U
 .hw_lock_lookup.ICU_0U_4U
                0x000005a8        0x4 ./synergy/ssp/src/bsp/mcu/s128/bsp_hw_locks.o
                0x000005a8                g_lock_lookup_ICU_0U_4U
 .hw_lock_lookup.ICU_0U_5U
                0x000005ac        0x4 ./synergy/ssp/src/bsp/mcu/s128/bsp_hw_locks.o
                0x000005ac                g_lock_lookup_ICU_0U_5U
 .hw_lock_lookup.ICU_0U_6U
                0x000005b0        0x4 ./synergy/ssp/src/bsp/mcu/s128/bsp_hw_locks.o
                0x000005b0                g_lock_lookup_ICU_0U_6U
 .hw_lock_lookup.ICU_0U_7U
                0x000005b4        0x4 ./synergy/ssp/src/bsp/mcu/s128/bsp_hw_locks.o
                0x000005b4                g_lock_lookup_ICU_0U_7U
 .hw_lock_lookup.IIC_0U_0U
                0x000005b8        0x4 ./synergy/ssp/src/bsp/mcu/s128/bsp_hw_locks.o
                0x000005b8                g_lock_lookup_IIC_0U_0U
 .hw_lock_lookup.IIC_0U_1U
                0x000005bc        0x4 ./synergy/ssp/src/bsp/mcu/s128/bsp_hw_locks.o
                0x000005bc                g_lock_lookup_IIC_0U_1U
 .hw_lock_lookup.IIC_0U_2U
                0x000005c0        0x4 ./synergy/ssp/src/bsp/mcu/s128/bsp_hw_locks.o
                0x000005c0                g_lock_lookup_IIC_0U_2U
 .hw_lock_lookup.IWDT_0U_0U
                0x000005c4        0x4 ./synergy/ssp/src/bsp/mcu/s128/bsp_hw_locks.o
                0x000005c4                g_lock_lookup_IWDT_0U_0U
 .hw_lock_lookup.KEY_0U_0U
                0x000005c8        0x4 ./synergy/ssp/src/bsp/mcu/s128/bsp_hw_locks.o
                0x000005c8                g_lock_lookup_KEY_0U_0U
 .hw_lock_lookup.LVD_0U_0U
                0x000005cc        0x4 ./synergy/ssp/src/bsp/mcu/s128/bsp_hw_locks.o
                0x000005cc                g_lock_lookup_LVD_0U_0U
 .hw_lock_lookup.LVD_0U_1U
                0x000005d0        0x4 ./synergy/ssp/src/bsp/mcu/s128/bsp_hw_locks.o
                0x000005d0                g_lock_lookup_LVD_0U_1U
 .hw_lock_lookup.OPS_0U_0U
                0x000005d4        0x4 ./synergy/ssp/src/bsp/mcu/s128/bsp_hw_locks.o
                0x000005d4                g_lock_lookup_OPS_0U_0U
 .hw_lock_lookup.POEG_0U_0U
                0x000005d8        0x4 ./synergy/ssp/src/bsp/mcu/s128/bsp_hw_locks.o
                0x000005d8                g_lock_lookup_POEG_0U_0U
 .hw_lock_lookup.POEG_0U_1U
                0x000005dc        0x4 ./synergy/ssp/src/bsp/mcu/s128/bsp_hw_locks.o
                0x000005dc                g_lock_lookup_POEG_0U_1U
 .hw_lock_lookup.RTC_0U_0U
                0x000005e0        0x4 ./synergy/ssp/src/bsp/mcu/s128/bsp_hw_locks.o
                0x000005e0                g_lock_lookup_RTC_0U_0U
 .hw_lock_lookup.SCI_0U_0U
                0x000005e4        0x4 ./synergy/ssp/src/bsp/mcu/s128/bsp_hw_locks.o
                0x000005e4                g_lock_lookup_SCI_0U_0U
 .hw_lock_lookup.SCI_0U_1U
                0x000005e8        0x4 ./synergy/ssp/src/bsp/mcu/s128/bsp_hw_locks.o
                0x000005e8                g_lock_lookup_SCI_0U_1U
 .hw_lock_lookup.SCI_0U_9U
                0x000005ec        0x4 ./synergy/ssp/src/bsp/mcu/s128/bsp_hw_locks.o
                0x000005ec                g_lock_lookup_SCI_0U_9U
 .hw_lock_lookup.SPI_0U_0U
                0x000005f0        0x4 ./synergy/ssp/src/bsp/mcu/s128/bsp_hw_locks.o
                0x000005f0                g_lock_lookup_SPI_0U_0U
 .hw_lock_lookup.SPI_0U_1U
                0x000005f4        0x4 ./synergy/ssp/src/bsp/mcu/s128/bsp_hw_locks.o
                0x000005f4                g_lock_lookup_SPI_0U_1U
 .hw_lock_lookup.TRNG_0U_0U
                0x000005f8        0x4 ./synergy/ssp/src/bsp/mcu/s128/bsp_hw_locks.o
                0x000005f8                g_lock_lookup_TRNG_0U_0U
 .hw_lock_lookup.TSN_0U_0U
                0x000005fc        0x4 ./synergy/ssp/src/bsp/mcu/s128/bsp_hw_locks.o
                0x000005fc                g_lock_lookup_TSN_0U_0U
 .hw_lock_lookup.USB_0U_0U
                0x00000600        0x4 ./synergy/ssp/src/bsp/mcu/s128/bsp_hw_locks.o
                0x00000600                g_lock_lookup_USB_0U_0U
 .hw_lock_lookup.WDT_0U_0U
                0x00000604        0x4 ./synergy/ssp/src/bsp/mcu/s128/bsp_hw_locks.o
                0x00000604                g_lock_lookup_WDT_0U_0U
                0x00000608                __Lock_Lookup_End = .
                0x000000e0                __Lock_Lookup_Size = (__Lock_Lookup_End - __Lock_Lookup_Start)
 *(.text*)
 .text          0x00000608       0x60 c:/program files (x86)/gnu tools arm embedded/4.9 2015q3/bin/../lib/gcc/arm-none-eabi/4.9.3/armv6-m/crtbegin.o
 .text.NVIC_EnableIRQ
                0x00000668       0x2c ./synergy/ssp/src/driver/r_sci_uart/r_sci_uart.o
 .text.NVIC_DisableIRQ
                0x00000694       0x2c ./synergy/ssp/src/driver/r_sci_uart/r_sci_uart.o
 .text.NVIC_SetPriority
                0x000006c0       0xd4 ./synergy/ssp/src/driver/r_sci_uart/r_sci_uart.o
 .text.R_SSP_CurrentIrqGet
                0x00000794       0x30 ./synergy/ssp/src/driver/r_sci_uart/r_sci_uart.o
 .text.R_SSP_VectorInfoGet
                0x000007c4       0x2c ./synergy/ssp/src/driver/r_sci_uart/r_sci_uart.o
 .text.HW_SCI_FifoEnable
                0x000007f0       0x18 ./synergy/ssp/src/driver/r_sci_uart/r_sci_uart.o
 .text.HW_SCI_ReceiveFifoReset
                0x00000808       0x18 ./synergy/ssp/src/driver/r_sci_uart/r_sci_uart.o
 .text.HW_SCI_ReceiveFifoResetStatusRead
                0x00000820       0x24 ./synergy/ssp/src/driver/r_sci_uart/r_sci_uart.o
 .text.HW_SCI_RXIeventSelect
                0x00000844       0x18 ./synergy/ssp/src/driver/r_sci_uart/r_sci_uart.o
 .text.HW_SCI_RxTriggerNumberSet
                0x0000085c       0x40 ./synergy/ssp/src/driver/r_sci_uart/r_sci_uart.o
 .text.HW_SCI_RTSTriggerNumberSet
                0x0000089c       0x34 ./synergy/ssp/src/driver/r_sci_uart/r_sci_uart.o
 .text.HW_SCI_TransmitFifoReset
                0x000008d0       0x30 ./synergy/ssp/src/driver/r_sci_uart/r_sci_uart.o
 .text.HW_SCI_TransmitFifoResetStatusRead
                0x00000900       0x24 ./synergy/ssp/src/driver/r_sci_uart/r_sci_uart.o
 .text.HW_SCI_TxTriggerNumberSet
                0x00000924       0x3c ./synergy/ssp/src/driver/r_sci_uart/r_sci_uart.o
 .text.HW_SCI_AsyncModeSet
                0x00000960       0x18 ./synergy/ssp/src/driver/r_sci_uart/r_sci_uart.o
 .text.HW_SCI_ParityBitEnable
                0x00000978       0x18 ./synergy/ssp/src/driver/r_sci_uart/r_sci_uart.o
 .text.HW_SCI_ParityBitDisable
                0x00000990       0x18 ./synergy/ssp/src/driver/r_sci_uart/r_sci_uart.o
 .text.HW_SCI_ParityOddSelect
                0x000009a8       0x18 ./synergy/ssp/src/driver/r_sci_uart/r_sci_uart.o
 .text.HW_SCI_ParityEvenSelect
                0x000009c0       0x18 ./synergy/ssp/src/driver/r_sci_uart/r_sci_uart.o
 .text.HW_SCI_DataBits7bitsSelect
                0x000009d8       0x24 ./synergy/ssp/src/driver/r_sci_uart/r_sci_uart.o
 .text.HW_SCI_DataBits8bitsSelect
                0x000009fc       0x24 ./synergy/ssp/src/driver/r_sci_uart/r_sci_uart.o
 .text.HW_SCI_DataBits9bitsSelect
                0x00000a20       0x24 ./synergy/ssp/src/driver/r_sci_uart/r_sci_uart.o
 .text.HW_SCI_StopBits2bitsSelect
                0x00000a44       0x18 ./synergy/ssp/src/driver/r_sci_uart/r_sci_uart.o
 .text.HW_SCI_StopBits1bitSelect
                0x00000a5c       0x18 ./synergy/ssp/src/driver/r_sci_uart/r_sci_uart.o
 .text.HW_SCI_Write9bits
                0x00000a74       0x34 ./synergy/ssp/src/driver/r_sci_uart/r_sci_uart.o
 .text.HW_SCI_Read9bits
                0x00000aa8       0x1c ./synergy/ssp/src/driver/r_sci_uart/r_sci_uart.o
 .text.HW_SCI_WriteAddrGet
                0x00000ac4       0x24 ./synergy/ssp/src/driver/r_sci_uart/r_sci_uart.o
 .text.HW_SCI_WriteFIFO
                0x00000ae8       0x34 ./synergy/ssp/src/driver/r_sci_uart/r_sci_uart.o
 .text.HW_SCI_ReadAddrGet
                0x00000b1c       0x24 ./synergy/ssp/src/driver/r_sci_uart/r_sci_uart.o
 .text.HW_SCI_ReadFIFO
                0x00000b40       0x1c ./synergy/ssp/src/driver/r_sci_uart/r_sci_uart.o
 .text.HW_SCI_TDFEClear
                0x00000b5c       0x18 ./synergy/ssp/src/driver/r_sci_uart/r_sci_uart.o
 .text.HW_SCI_RDFClear
                0x00000b74       0x24 ./synergy/ssp/src/driver/r_sci_uart/r_sci_uart.o
 .text.HW_SCI_FIFO_WriteCount
                0x00000b98       0x20 ./synergy/ssp/src/driver/r_sci_uart/r_sci_uart.o
 .text.HW_SCI_FIFO_ReadCount
                0x00000bb8       0x1c ./synergy/ssp/src/driver/r_sci_uart/r_sci_uart.o
 .text.HW_SCI_IsDataLength9bits
                0x00000bd4       0x28 ./synergy/ssp/src/driver/r_sci_uart/r_sci_uart.o
 .text.HW_SCI_CtsInEnable
                0x00000bfc       0x18 ./synergy/ssp/src/driver/r_sci_uart/r_sci_uart.o
 .text.HW_SCI_RtsOutEnable
                0x00000c14       0x18 ./synergy/ssp/src/driver/r_sci_uart/r_sci_uart.o
 .text.HW_SCI_StartBitFallingEdgeSet
                0x00000c2c       0x1c ./synergy/ssp/src/driver/r_sci_uart/r_sci_uart.o
 .text.HW_SCI_TransmitterLevelSet
                0x00000c48       0x28 ./synergy/ssp/src/driver/r_sci_uart/r_sci_uart.o
 .text.HW_SCI_TxIrqEnable
                0x00000c70       0x54 ./synergy/ssp/src/driver/r_sci_uart/r_sci_uart.o
 .text.HW_SCI_RxIrqEnable
                0x00000cc4       0x5c ./synergy/ssp/src/driver/r_sci_uart/r_sci_uart.o
 .text.HW_SCI_TeIrqEnable
                0x00000d20       0x50 ./synergy/ssp/src/driver/r_sci_uart/r_sci_uart.o
 .text.HW_SCI_TxIrqDisable
                0x00000d70       0x50 ./synergy/ssp/src/driver/r_sci_uart/r_sci_uart.o
 .text.HW_SCI_RxIrqDisable
                0x00000dc0       0x5c ./synergy/ssp/src/driver/r_sci_uart/r_sci_uart.o
 .text.HW_SCI_TeIrqDisable
                0x00000e1c       0x50 ./synergy/ssp/src/driver/r_sci_uart/r_sci_uart.o
 .text.HW_SCI_TransmitterEnable
                0x00000e6c       0x20 ./synergy/ssp/src/driver/r_sci_uart/r_sci_uart.o
 .text.HW_SCI_TransmitterDisable
                0x00000e8c       0x20 ./synergy/ssp/src/driver/r_sci_uart/r_sci_uart.o
 .text.HW_SCI_ReceiverEnable
                0x00000eac       0x20 ./synergy/ssp/src/driver/r_sci_uart/r_sci_uart.o
 .text.HW_SCI_ReceiverDisable
                0x00000ecc       0x20 ./synergy/ssp/src/driver/r_sci_uart/r_sci_uart.o
 .text.HW_SCI_FifoDisable
                0x00000eec       0x18 ./synergy/ssp/src/driver/r_sci_uart/r_sci_uart.o
 .text.HW_SCI_Write
                0x00000f04       0x2c ./synergy/ssp/src/driver/r_sci_uart/r_sci_uart.o
 .text.HW_SCI_Read
                0x00000f30       0x18 ./synergy/ssp/src/driver/r_sci_uart/r_sci_uart.o
 .text.HW_SCI_RegisterReset
                0x00000f48       0x80 ./synergy/ssp/src/driver/r_sci_uart/r_sci_uart.o
 .text.HW_SCI_ClockPhaseDelayDisable
                0x00000fc8       0x18 ./synergy/ssp/src/driver/r_sci_uart/r_sci_uart.o
 .text.HW_SCI_ClockPorarityNormalSet
                0x00000fe0       0x18 ./synergy/ssp/src/driver/r_sci_uart/r_sci_uart.o
 .text.HW_SCI_BaudRateGenInternalClkSelect
                0x00000ff8       0x18 ./synergy/ssp/src/driver/r_sci_uart/r_sci_uart.o
 .text.HW_SCI_BaudRateGenExternalClkSelect
                0x00001010       0x20 ./synergy/ssp/src/driver/r_sci_uart/r_sci_uart.o
 .text.HW_SCI_IsBaudRateInternalClkSelected
                0x00001030       0x20 ./synergy/ssp/src/driver/r_sci_uart/r_sci_uart.o
 .text.HW_SCI_BaudRateGenExternalClkDivideBy8
                0x00001050       0x18 ./synergy/ssp/src/driver/r_sci_uart/r_sci_uart.o
 .text.HW_SCI_BaudRateGenExternalClkDivideBy16
                0x00001068       0x18 ./synergy/ssp/src/driver/r_sci_uart/r_sci_uart.o
 .text.HW_SCI_IsBaudRateGenClkDivideBy8Selected
                0x00001080       0x20 ./synergy/ssp/src/driver/r_sci_uart/r_sci_uart.o
 .text.HW_SCI_UartBitRateSet
                0x000010a0       0xac ./synergy/ssp/src/driver/r_sci_uart/r_sci_uart.o
 .text.HW_SCI_BitRateDefaultSet
                0x0000114c       0x34 ./synergy/ssp/src/driver/r_sci_uart/r_sci_uart.o
 .text.HW_SCI_BaudClkOutputEnable
                0x00001180       0x34 ./synergy/ssp/src/driver/r_sci_uart/r_sci_uart.o
 .text.HW_SCI_BaudClkOutputDisable
                0x000011b4       0x34 ./synergy/ssp/src/driver/r_sci_uart/r_sci_uart.o
 .text.HW_SCI_NoiseFilterSet
                0x000011e8       0x28 ./synergy/ssp/src/driver/r_sci_uart/r_sci_uart.o
 .text.HW_SCI_NoiseFilterClear
                0x00001210       0x20 ./synergy/ssp/src/driver/r_sci_uart/r_sci_uart.o
 .text.HW_SCI_OverRunErrorCheck
                0x00001230       0x20 ./synergy/ssp/src/driver/r_sci_uart/r_sci_uart.o
 .text.HW_SCI_FramingErrorCheck
                0x00001250       0x20 ./synergy/ssp/src/driver/r_sci_uart/r_sci_uart.o
 .text.HW_SCI_BreakDetectionCheck
                0x00001270       0x20 ./synergy/ssp/src/driver/r_sci_uart/r_sci_uart.o
 .text.HW_SCI_ErrorConditionClear
                0x00001290       0x20 ./synergy/ssp/src/driver/r_sci_uart/r_sci_uart.o
 .text.HW_SCI_StartBitLowLevelSet
                0x000012b0       0x18 ./synergy/ssp/src/driver/r_sci_uart/r_sci_uart.o
 .text.HW_SCI_BitRateModulationEnable
                0x000012c8       0x38 ./synergy/ssp/src/driver/r_sci_uart/r_sci_uart.o
 .text.HW_SCI_BitRateModulationCheck
                0x00001300       0x20 ./synergy/ssp/src/driver/r_sci_uart/r_sci_uart.o
 .text.HW_SCI_UartBitRateModulationSet
                0x00001320       0x1c ./synergy/ssp/src/driver/r_sci_uart/r_sci_uart.o
 .text.R_SCI_UartOpen
                0x0000133c      0x378 ./synergy/ssp/src/driver/r_sci_uart/r_sci_uart.o
                0x0000133c                R_SCI_UartOpen
 .text.R_SCI_UartClose
                0x000016b4       0x58 ./synergy/ssp/src/driver/r_sci_uart/r_sci_uart.o
                0x000016b4                R_SCI_UartClose
 .text.R_SCI_UartRead
                0x0000170c       0xb8 ./synergy/ssp/src/driver/r_sci_uart/r_sci_uart.o
                0x0000170c                R_SCI_UartRead
 .text.R_SCI_UartWrite
                0x000017c4      0x144 ./synergy/ssp/src/driver/r_sci_uart/r_sci_uart.o
                0x000017c4                R_SCI_UartWrite
 .text.R_SCI_UartBaudSet
                0x00001908       0xc4 ./synergy/ssp/src/driver/r_sci_uart/r_sci_uart.o
                0x00001908                R_SCI_UartBaudSet
 .text.R_SCI_UartInfoGet
                0x000019cc       0xcc ./synergy/ssp/src/driver/r_sci_uart/r_sci_uart.o
                0x000019cc                R_SCI_UartInfoGet
 .text.R_SCI_UartVersionGet
                0x00001a98       0x2c ./synergy/ssp/src/driver/r_sci_uart/r_sci_uart.o
                0x00001a98                R_SCI_UartVersionGet
 .text.r_sci_uart_transfer_open
                0x00001ac4      0x1fc ./synergy/ssp/src/driver/r_sci_uart/r_sci_uart.o
 .text.r_sci_uart_config_set
                0x00001cc0      0x150 ./synergy/ssp/src/driver/r_sci_uart/r_sci_uart.o
 .text.r_sci_uart_fifo_reset
                0x00001e10       0x90 ./synergy/ssp/src/driver/r_sci_uart/r_sci_uart.o
 .text.r_sci_uart_fifo_enable
                0x00001ea0       0x34 ./synergy/ssp/src/driver/r_sci_uart/r_sci_uart.o
 .text.r_sci_irq_cfg
                0x00001ed4       0x8c ./synergy/ssp/src/driver/r_sci_uart/r_sci_uart.o
 .text.r_sci_close_hardware
                0x00001f60       0x98 ./synergy/ssp/src/driver/r_sci_uart/r_sci_uart.o
 .text.r_sci_uart_baud_set
                0x00001ff8      0x1f0 ./synergy/ssp/src/driver/r_sci_uart/r_sci_uart.o
 .text.sci_uart_txi_isr
                0x000021e8      0x198 ./synergy/ssp/src/driver/r_sci_uart/r_sci_uart.o
                0x000021e8                sci_uart_txi_isr
 .text.sci_uart_rxi_isr
                0x00002380      0x15c ./synergy/ssp/src/driver/r_sci_uart/r_sci_uart.o
                0x00002380                sci_uart_rxi_isr
 .text.sci_uart_tei_isr
                0x000024dc       0x84 ./synergy/ssp/src/driver/r_sci_uart/r_sci_uart.o
                0x000024dc                sci_uart_tei_isr
 .text.sci_uart_eri_isr
                0x00002560       0xe8 ./synergy/ssp/src/driver/r_sci_uart/r_sci_uart.o
                0x00002560                sci_uart_eri_isr
 .text.ioport_port_address_get
                0x00002648       0x2c ./synergy/ssp/src/driver/r_ioport/r_ioport.o
 .text.ioport_pfs_address_get
                0x00002674       0x38 ./synergy/ssp/src/driver/r_ioport/r_ioport.o
 .text.HW_IOPORT_EthernetModeCfg
                0x000026ac       0xa0 ./synergy/ssp/src/driver/r_ioport/r_ioport.o
 .text.HW_IOPORT_PinWrite
                0x0000274c       0x64 ./synergy/ssp/src/driver/r_ioport/r_ioport.o
 .text.HW_IOPORT_PortWriteWithPCNTR3
                0x000027b0       0x54 ./synergy/ssp/src/driver/r_ioport/r_ioport.o
 .text.HW_IOPORT_PortEventInputDataRead
                0x00002804       0x4c ./synergy/ssp/src/driver/r_ioport/r_ioport.o
 .text.HW_IOPORT_PortEventOutputDataWrite
                0x00002850       0x5c ./synergy/ssp/src/driver/r_ioport/r_ioport.o
 .text.HW_IOPORT_PinRead
                0x000028ac       0x38 ./synergy/ssp/src/driver/r_ioport/r_ioport.o
 .text.HW_IOPORT_PortRead
                0x000028e4       0x48 ./synergy/ssp/src/driver/r_ioport/r_ioport.o
 .text.HW_IOPORT_PortDirectionRead
                0x0000292c       0x3c ./synergy/ssp/src/driver/r_ioport/r_ioport.o
 .text.HW_IOPORT_PinDirectionSet
                0x00002968       0x64 ./synergy/ssp/src/driver/r_ioport/r_ioport.o
 .text.HW_IOPORT_PortDirectionSet
                0x000029cc       0x50 ./synergy/ssp/src/driver/r_ioport/r_ioport.o
 .text.HW_IOPORT_PFSAccessEnable
                0x00002a1c       0x58 ./synergy/ssp/src/driver/r_ioport/r_ioport.o
 .text.HW_IOPORT_PFSAccessDisable
                0x00002a74       0x64 ./synergy/ssp/src/driver/r_ioport/r_ioport.o
 .text.HW_IOPORT_PFSRead
                0x00002ad8       0x2c ./synergy/ssp/src/driver/r_ioport/r_ioport.o
 .text.HW_IOPORT_PFSWrite
                0x00002b04       0x74 ./synergy/ssp/src/driver/r_ioport/r_ioport.o
 .text.R_IOPORT_Init
                0x00002b78       0xc4 ./synergy/ssp/src/driver/r_ioport/r_ioport.o
                0x00002b78                R_IOPORT_Init
 .text.R_IOPORT_PinsCfg
                0x00002c3c       0x74 ./synergy/ssp/src/driver/r_ioport/r_ioport.o
                0x00002c3c                R_IOPORT_PinsCfg
 .text.R_IOPORT_PinCfg
                0x00002cb0       0x34 ./synergy/ssp/src/driver/r_ioport/r_ioport.o
                0x00002cb0                R_IOPORT_PinCfg
 .text.R_IOPORT_PinRead
                0x00002ce4       0x34 ./synergy/ssp/src/driver/r_ioport/r_ioport.o
                0x00002ce4                R_IOPORT_PinRead
 .text.R_IOPORT_PortRead
                0x00002d18       0x34 ./synergy/ssp/src/driver/r_ioport/r_ioport.o
                0x00002d18                R_IOPORT_PortRead
 .text.R_IOPORT_PortWrite
                0x00002d4c       0x6c ./synergy/ssp/src/driver/r_ioport/r_ioport.o
                0x00002d4c                R_IOPORT_PortWrite
 .text.R_IOPORT_PinWrite
                0x00002db8       0x38 ./synergy/ssp/src/driver/r_ioport/r_ioport.o
                0x00002db8                R_IOPORT_PinWrite
 .text.R_IOPORT_PortDirectionSet
                0x00002df0       0xbc ./synergy/ssp/src/driver/r_ioport/r_ioport.o
                0x00002df0                R_IOPORT_PortDirectionSet
 .text.R_IOPORT_PinDirectionSet
                0x00002eac       0x38 ./synergy/ssp/src/driver/r_ioport/r_ioport.o
                0x00002eac                R_IOPORT_PinDirectionSet
 .text.R_IOPORT_PortEventInputRead
                0x00002ee4       0x34 ./synergy/ssp/src/driver/r_ioport/r_ioport.o
                0x00002ee4                R_IOPORT_PortEventInputRead
 .text.R_IOPORT_PinEventInputRead
                0x00002f18       0x98 ./synergy/ssp/src/driver/r_ioport/r_ioport.o
                0x00002f18                R_IOPORT_PinEventInputRead
 .text.R_IOPORT_PortEventOutputWrite
                0x00002fb0       0x6c ./synergy/ssp/src/driver/r_ioport/r_ioport.o
                0x00002fb0                R_IOPORT_PortEventOutputWrite
 .text.R_IOPORT_PinEventOutputWrite
                0x0000301c       0xa0 ./synergy/ssp/src/driver/r_ioport/r_ioport.o
                0x0000301c                R_IOPORT_PinEventOutputWrite
 .text.R_IOPORT_VersionGet
                0x000030bc       0x2c ./synergy/ssp/src/driver/r_ioport/r_ioport.o
                0x000030bc                R_IOPORT_VersionGet
 .text.R_IOPORT_EthernetModeCfg
                0x000030e8       0x54 ./synergy/ssp/src/driver/r_ioport/r_ioport.o
                0x000030e8                R_IOPORT_EthernetModeCfg
 .text.NVIC_EnableIRQ
                0x0000313c       0x2c ./synergy/ssp/src/driver/r_gpt/r_gpt.o
 .text.NVIC_DisableIRQ
                0x00003168       0x2c ./synergy/ssp/src/driver/r_gpt/r_gpt.o
 .text.NVIC_ClearPendingIRQ
                0x00003194       0x2c ./synergy/ssp/src/driver/r_gpt/r_gpt.o
 .text.NVIC_SetPriority
                0x000031c0       0xd4 ./synergy/ssp/src/driver/r_gpt/r_gpt.o
 .text.R_SSP_CurrentIrqGet
                0x00003294       0x30 ./synergy/ssp/src/driver/r_gpt/r_gpt.o
 .text.R_SSP_VectorInfoGet
                0x000032c4       0x2c ./synergy/ssp/src/driver/r_gpt/r_gpt.o
 .text.HW_GPT_ModeSet
                0x000032f0       0x34 ./synergy/ssp/src/driver/r_gpt/r_gpt.o
 .text.HW_GPT_TimerCycleSet
                0x00003324       0x18 ./synergy/ssp/src/driver/r_gpt/r_gpt.o
 .text.HW_GPT_TimerCycleGet
                0x0000333c       0x14 ./synergy/ssp/src/driver/r_gpt/r_gpt.o
 .text.HW_GPT_DivisorSet
                0x00003350       0x34 ./synergy/ssp/src/driver/r_gpt/r_gpt.o
 .text.HW_GPT_DivisorGet
                0x00003384       0x20 ./synergy/ssp/src/driver/r_gpt/r_gpt.o
 .text.HW_GPT_CounterStartStop
                0x000033a4       0x30 ./synergy/ssp/src/driver/r_gpt/r_gpt.o
 .text.HW_GPT_CounterSet
                0x000033d4       0x18 ./synergy/ssp/src/driver/r_gpt/r_gpt.o
 .text.HW_GPT_CounterGet
                0x000033ec       0x14 ./synergy/ssp/src/driver/r_gpt/r_gpt.o
 .text.HW_GPT_DirectionSet
                0x00003400       0x44 ./synergy/ssp/src/driver/r_gpt/r_gpt.o
 .text.HW_GPT_DirectionGet
                0x00003444       0x1c ./synergy/ssp/src/driver/r_gpt/r_gpt.o
 .text.HW_GPT_InterruptEnable
                0x00003460       0x30 ./synergy/ssp/src/driver/r_gpt/r_gpt.o
 .text.HW_GPT_InterruptDisable
                0x00003490       0x18 ./synergy/ssp/src/driver/r_gpt/r_gpt.o
 .text.HW_GPT_InterruptClear
                0x000034a8       0x18 ./synergy/ssp/src/driver/r_gpt/r_gpt.o
 .text.HW_GPT_CounterStartBitGet
                0x000034c0       0x1c ./synergy/ssp/src/driver/r_gpt/r_gpt.o
 .text.HW_GPT_GTIOCRegLookup
                0x000034dc       0x2c ./synergy/ssp/src/driver/r_gpt/r_gpt.o
 .text.HW_GPT_GTIOCPinLevelStoppedSet
                0x00003508       0x38 ./synergy/ssp/src/driver/r_gpt/r_gpt.o
 .text.HW_GPT_GTIOCPinOutputEnable
                0x00003540       0x3c ./synergy/ssp/src/driver/r_gpt/r_gpt.o
 .text.HW_GPT_GTIOCCycleEndOutputSet
                0x0000357c       0x38 ./synergy/ssp/src/driver/r_gpt/r_gpt.o
 .text.HW_GPT_DutyCycleModeSet
                0x000035b4       0x70 ./synergy/ssp/src/driver/r_gpt/r_gpt.o
 .text.HW_GPT_InitialCompareMatchSet
                0x00003624       0x30 ./synergy/ssp/src/driver/r_gpt/r_gpt.o
 .text.HW_GPT_SingleBufferEnable
                0x00003654       0x48 ./synergy/ssp/src/driver/r_gpt/r_gpt.o
 .text.HW_GPT_CompareMatchSet
                0x0000369c       0x30 ./synergy/ssp/src/driver/r_gpt/r_gpt.o
 .text.HW_GPT_GTIOCCompareMatchOutputSet
                0x000036cc       0x38 ./synergy/ssp/src/driver/r_gpt/r_gpt.o
 .text.HW_GPT_GTIOCInitialOutputSet
                0x00003704       0x38 ./synergy/ssp/src/driver/r_gpt/r_gpt.o
 .text.HW_GPT_RegisterInit
                0x0000373c       0xb4 ./synergy/ssp/src/driver/r_gpt/r_gpt.o
 .text.HW_GPT_GetCounterOverFlowEvent
                0x000037f0       0x28 ./synergy/ssp/src/driver/r_gpt/r_gpt.o
 .text.R_GPT_TimerOpen
                0x00003818      0x10c ./synergy/ssp/src/driver/r_gpt/r_gpt.o
                0x00003818                R_GPT_TimerOpen
 .text.R_GPT_Stop
                0x00003924       0x28 ./synergy/ssp/src/driver/r_gpt/r_gpt.o
                0x00003924                R_GPT_Stop
 .text.R_GPT_Start
                0x0000394c       0x28 ./synergy/ssp/src/driver/r_gpt/r_gpt.o
                0x0000394c                R_GPT_Start
 .text.R_GPT_CounterGet
                0x00003974       0x2c ./synergy/ssp/src/driver/r_gpt/r_gpt.o
                0x00003974                R_GPT_CounterGet
 .text.R_GPT_Reset
                0x000039a0       0x74 ./synergy/ssp/src/driver/r_gpt/r_gpt.o
                0x000039a0                R_GPT_Reset
 .text.R_GPT_PeriodSet
                0x00003a14       0x48 ./synergy/ssp/src/driver/r_gpt/r_gpt.o
                0x00003a14                R_GPT_PeriodSet
 .text.R_GPT_DutyCycleSet
                0x00003a5c       0x74 ./synergy/ssp/src/driver/r_gpt/r_gpt.o
                0x00003a5c                R_GPT_DutyCycleSet
 .text.R_GPT_InfoGet
                0x00003ad0       0x8c ./synergy/ssp/src/driver/r_gpt/r_gpt.o
                0x00003ad0                R_GPT_InfoGet
 .text.R_GPT_Close
                0x00003b5c       0xd8 ./synergy/ssp/src/driver/r_gpt/r_gpt.o
                0x00003b5c                R_GPT_Close
 .text.R_GPT_VersionGet
                0x00003c34       0x20 ./synergy/ssp/src/driver/r_gpt/r_gpt.o
                0x00003c34                R_GPT_VersionGet
 .text.gpt_common_open
                0x00003c54      0x18c ./synergy/ssp/src/driver/r_gpt/r_gpt.o
 .text.gpt_hardware_initialize
                0x00003de0       0xf4 ./synergy/ssp/src/driver/r_gpt/r_gpt.o
 .text.period_to_pclk
                0x00003ed4      0x2e8 ./synergy/ssp/src/driver/r_gpt/r_gpt.o
 .text.gpt_set_period
                0x000041bc       0xb8 ./synergy/ssp/src/driver/r_gpt/r_gpt.o
 .text.gpt_set_duty_cycle
                0x00004274       0x6c ./synergy/ssp/src/driver/r_gpt/r_gpt.o
 .text.gpt_clock_frequency_get
                0x000042e0       0x58 ./synergy/ssp/src/driver/r_gpt/r_gpt.o
 .text.duty_cycle_to_pclk
                0x00004338      0x14c ./synergy/ssp/src/driver/r_gpt/r_gpt.o
 .text.gpt_set_output_pin
                0x00004484       0xdc ./synergy/ssp/src/driver/r_gpt/r_gpt.o
 .text.gpt_counter_overflow_isr
                0x00004560       0x84 ./synergy/ssp/src/driver/r_gpt/r_gpt.o
                0x00004560                gpt_counter_overflow_isr
 .text.HW_FMI_RecordLocate
                0x000045e4       0x40 ./synergy/ssp/src/driver/r_fmi/r_fmi.o
 .text.HW_FMI_IPLocate
                0x00004624      0x130 ./synergy/ssp/src/driver/r_fmi/r_fmi.o
 .text.HW_FMI_EventGet
                0x00004754       0xd8 ./synergy/ssp/src/driver/r_fmi/r_fmi.o
 .text.R_FMI_Init
                0x0000482c       0x1c ./synergy/ssp/src/driver/r_fmi/r_fmi.o
 .text.R_FMI_ProductInfoGet
                0x00004848       0x24 ./synergy/ssp/src/driver/r_fmi/r_fmi.o
 .text.R_FMI_UniqueIdGet
                0x0000486c       0x50 ./synergy/ssp/src/driver/r_fmi/r_fmi.o
 .text.R_FMI_FeatureGet
                0x000048bc      0x2e0 ./synergy/ssp/src/driver/r_fmi/r_fmi.o
 .text.R_FMI_EventInfoGet
                0x00004b9c       0x50 ./synergy/ssp/src/driver/r_fmi/r_fmi.o
 .text.R_FMI_VersionGet
                0x00004bec       0x20 ./synergy/ssp/src/driver/r_fmi/r_fmi.o
 .text.r_fmi_size_lookup
                0x00004c0c       0xa4 ./synergy/ssp/src/driver/r_fmi/r_fmi.o
 .text.NVIC_DisableIRQ
                0x00004cb0       0x2c ./synergy/ssp/src/driver/r_flash_lp/hw/target/flash_lp_core/hw_codeflash.o
 .text.NVIC_EnableIRQ
                0x00004cdc       0x2c ./synergy/ssp/src/driver/r_flash_lp/hw/target/flash_lp_core/hw_dataflash.o
 .text.HW_FLASH_LP_dataflash_enable
                0x00004d08       0x3c ./synergy/ssp/src/driver/r_flash_lp/hw/target/flash_lp_core/hw_dataflash.o
                0x00004d08                HW_FLASH_LP_dataflash_enable
 .text.HW_FLASH_LP_dataflash_enter_pe_mode
                0x00004d44       0xb0 ./synergy/ssp/src/driver/r_flash_lp/hw/target/flash_lp_core/hw_dataflash.o
                0x00004d44                HW_FLASH_LP_dataflash_enter_pe_mode
 .text.HW_FLASH_LP_dataflash_enter_read_mode
                0x00004df4       0x74 ./synergy/ssp/src/driver/r_flash_lp/hw/target/flash_lp_core/hw_dataflash.o
                0x00004df4                HW_FLASH_LP_dataflash_enter_read_mode
 .text.HW_FLASH_LP_dataflash_write
                0x00004e68       0x80 ./synergy/ssp/src/driver/r_flash_lp/hw/target/flash_lp_core/hw_dataflash.o
                0x00004e68                HW_FLASH_LP_dataflash_write
 .text.HW_FLASH_LP_dataflash_write_operation
                0x00004ee8       0x5c ./synergy/ssp/src/driver/r_flash_lp/hw/target/flash_lp_core/hw_dataflash.o
                0x00004ee8                HW_FLASH_LP_dataflash_write_operation
 .text.HW_FLASH_LP_dataflash_write_monitor
                0x00004f44      0x120 ./synergy/ssp/src/driver/r_flash_lp/hw/target/flash_lp_core/hw_dataflash.o
                0x00004f44                HW_FLASH_LP_dataflash_write_monitor
 .text.HW_FLASH_LP_dataflash_erase
                0x00005064       0x64 ./synergy/ssp/src/driver/r_flash_lp/hw/target/flash_lp_core/hw_dataflash.o
                0x00005064                HW_FLASH_LP_dataflash_erase
 .text.HW_FLASH_LP_dataflash_erase_operation
                0x000050c8       0x6c ./synergy/ssp/src/driver/r_flash_lp/hw/target/flash_lp_core/hw_dataflash.o
                0x000050c8                HW_FLASH_LP_dataflash_erase_operation
 .text.HW_FLASH_LP_dataflash_erase_monitor
                0x00005134      0x110 ./synergy/ssp/src/driver/r_flash_lp/hw/target/flash_lp_core/hw_dataflash.o
                0x00005134                HW_FLASH_LP_dataflash_erase_monitor
 .text.HW_FLASH_LP_dataflash_blank_check
                0x00005244       0x7c ./synergy/ssp/src/driver/r_flash_lp/hw/target/flash_lp_core/hw_dataflash.o
                0x00005244                HW_FLASH_LP_dataflash_blank_check
 .text.HW_FLASH_LP_dataflash_blank_check_monitor
                0x000052c0       0xb0 ./synergy/ssp/src/driver/r_flash_lp/hw/target/flash_lp_core/hw_dataflash.o
                0x000052c0                HW_FLASH_LP_dataflash_blank_check_monitor
 .text.HW_FLASH_LP_write_fpmcr
                0x00005370       0x60 ./synergy/ssp/src/driver/r_flash_lp/hw/target/flash_lp_core/hw_dataflash.o
 .text.HW_FLASH_LP_data_flash_set_flash_settings
                0x000053d0       0x18 ./synergy/ssp/src/driver/r_flash_lp/hw/target/flash_lp_core/hw_dataflash.o
                0x000053d0                HW_FLASH_LP_data_flash_set_flash_settings
 .text.NVIC_EnableIRQ
                0x000053e8       0x2c ./synergy/ssp/src/driver/r_flash_lp/hw/target/hw_flash_lp.o
 .text.NVIC_DisableIRQ
                0x00005414       0x2c ./synergy/ssp/src/driver/r_flash_lp/hw/target/hw_flash_lp.o
 .text.NVIC_ClearPendingIRQ
                0x00005440       0x2c ./synergy/ssp/src/driver/r_flash_lp/hw/target/hw_flash_lp.o
 .text.NVIC_SetPriority
                0x0000546c       0xd4 ./synergy/ssp/src/driver/r_flash_lp/r_flash_lp.o
 .text.R_SSP_VectorInfoGet
                0x00005540       0x2c ./synergy/ssp/src/driver/r_flash_lp/r_flash_lp.o
 .text.R_FLASH_LP_InfoGet
                0x0000556c       0x30 ./synergy/ssp/src/driver/r_flash_lp/r_flash_lp.o
                0x0000556c                R_FLASH_LP_InfoGet
 .text.R_FLASH_LP_VersionGet
                0x0000559c       0x20 ./synergy/ssp/src/driver/r_flash_lp/r_flash_lp.o
                0x0000559c                R_FLASH_LP_VersionGet
 .text.flash_open_setup
                0x000055bc       0x54 ./synergy/ssp/src/driver/r_flash_lp/r_flash_lp.o
 .text.flash_fmi_setup
                0x00005610      0x144 ./synergy/ssp/src/driver/r_flash_lp/r_flash_lp.o
 .text.HW_ELC_SoftwareEvent0Generate
                0x00005754       0x20 ./synergy/ssp/src/driver/r_elc/r_elc.o
 .text.HW_ELC_SoftwareEvent1Generate
                0x00005774       0x20 ./synergy/ssp/src/driver/r_elc/r_elc.o
 .text.HW_ELC_Enable
                0x00005794       0x1c ./synergy/ssp/src/driver/r_elc/r_elc.o
 .text.HW_ELC_Disable
                0x000057b0       0x18 ./synergy/ssp/src/driver/r_elc/r_elc.o
 .text.HW_ELC_LinkSet
                0x000057c8       0x24 ./synergy/ssp/src/driver/r_elc/r_elc.o
 .text.HW_ELC_LinkBreak
                0x000057ec       0x1c ./synergy/ssp/src/driver/r_elc/r_elc.o
 .text.R_ELC_Init
                0x00005808       0xe8 ./synergy/ssp/src/driver/r_elc/r_elc.o
                0x00005808                R_ELC_Init
 .text.R_ELC_SoftwareEventGenerate
                0x000058f0       0x44 ./synergy/ssp/src/driver/r_elc/r_elc.o
                0x000058f0                R_ELC_SoftwareEventGenerate
 .text.R_ELC_LinkSet
                0x00005934       0x38 ./synergy/ssp/src/driver/r_elc/r_elc.o
                0x00005934                R_ELC_LinkSet
 .text.R_ELC_LinkBreak
                0x0000596c       0x2c ./synergy/ssp/src/driver/r_elc/r_elc.o
                0x0000596c                R_ELC_LinkBreak
 .text.R_ELC_Enable
                0x00005998       0x1c ./synergy/ssp/src/driver/r_elc/r_elc.o
                0x00005998                R_ELC_Enable
 .text.R_ELC_Disable
                0x000059b4       0x1c ./synergy/ssp/src/driver/r_elc/r_elc.o
                0x000059b4                R_ELC_Disable
 .text.R_ELC_VersionGet
                0x000059d0       0x20 ./synergy/ssp/src/driver/r_elc/r_elc.o
                0x000059d0                R_ELC_VersionGet
 .text.HW_DTC_VectorTableAddressSet
                0x000059f0       0x18 ./synergy/ssp/src/driver/r_dtc/r_dtc.o
 .text.HW_DTC_ReadSkipEnableSet
                0x00005a08       0x34 ./synergy/ssp/src/driver/r_dtc/r_dtc.o
 .text.HW_DTC_StartStop
                0x00005a3c       0x34 ./synergy/ssp/src/driver/r_dtc/r_dtc.o
 .text.HW_ICU_DTCEnable
                0x00005a70       0x44 ./synergy/ssp/src/driver/r_dtc/r_dtc.o
 .text.HW_ICU_DTCDisable
                0x00005ab4       0x2c ./synergy/ssp/src/driver/r_dtc/r_dtc.o
 .text.HW_DTC_StatusGet
                0x00005ae0       0x18 ./synergy/ssp/src/driver/r_dtc/r_dtc.o
 .text.HW_DTC_ICUEventGet
                0x00005af8       0x2c ./synergy/ssp/src/driver/r_dtc/r_dtc.o
 .text.R_DTC_Open
                0x00005b24      0x208 ./synergy/ssp/src/driver/r_dtc/r_dtc.o
                0x00005b24                R_DTC_Open
 .text.R_DTC_Reset
                0x00005d2c       0xf8 ./synergy/ssp/src/driver/r_dtc/r_dtc.o
                0x00005d2c                R_DTC_Reset
 .text.R_DTC_Start
                0x00005e24       0x1c ./synergy/ssp/src/driver/r_dtc/r_dtc.o
                0x00005e24                R_DTC_Start
 .text.R_DTC_Stop
                0x00005e40       0x14 ./synergy/ssp/src/driver/r_dtc/r_dtc.o
                0x00005e40                R_DTC_Stop
 .text.R_DTC_Enable
                0x00005e54       0x2c ./synergy/ssp/src/driver/r_dtc/r_dtc.o
                0x00005e54                R_DTC_Enable
 .text.R_DTC_Disable
                0x00005e80       0x2c ./synergy/ssp/src/driver/r_dtc/r_dtc.o
                0x00005e80                R_DTC_Disable
 .text.R_DTC_InfoGet
                0x00005eac       0xe0 ./synergy/ssp/src/driver/r_dtc/r_dtc.o
                0x00005eac                R_DTC_InfoGet
 .text.R_DTC_Close
                0x00005f8c       0x50 ./synergy/ssp/src/driver/r_dtc/r_dtc.o
                0x00005f8c                R_DTC_Close
 .text.R_DTC_VersionGet
                0x00005fdc       0x20 ./synergy/ssp/src/driver/r_dtc/r_dtc.o
                0x00005fdc                R_DTC_VersionGet
 .text.R_DTC_BlockReset
                0x00005ffc      0x138 ./synergy/ssp/src/driver/r_dtc/r_dtc.o
                0x00005ffc                R_DTC_BlockReset
 .text.dtc_irq_lookup
                0x00006134       0x6c ./synergy/ssp/src/driver/r_dtc/r_dtc.o
 .text.NVIC_SetPriority
                0x000061a0       0xd4 ./synergy/ssp/src/driver/r_cgc/hw/hw_cgc.o
 .text.NVIC_GetPriority
                0x00006274       0x78 ./synergy/ssp/src/driver/r_cgc/hw/hw_cgc.o
 .text.SysTick_Config
                0x000062ec       0x48 ./synergy/ssp/src/driver/r_cgc/hw/hw_cgc.o
 .text.HW_CGC_Init
                0x00006334       0x44 ./synergy/ssp/src/driver/r_cgc/hw/hw_cgc.o
                0x00006334                HW_CGC_Init
 .text.HW_CGC_InitPLLFreq
                0x00006378       0xbc ./synergy/ssp/src/driver/r_cgc/hw/hw_cgc.o
                0x00006378                HW_CGC_InitPLLFreq
 .text.HW_CGC_HardwareLock
                0x00006434       0x10 ./synergy/ssp/src/driver/r_cgc/hw/hw_cgc.o
                0x00006434                HW_CGC_HardwareLock
 .text.HW_CGC_HardwareUnLock
                0x00006444       0x10 ./synergy/ssp/src/driver/r_cgc/hw/hw_cgc.o
                0x00006444                HW_CGC_HardwareUnLock
 .text.HW_CGC_LPMHardwareLock
                0x00006454       0x10 ./synergy/ssp/src/driver/r_cgc/hw/hw_cgc.o
                0x00006454                HW_CGC_LPMHardwareLock
 .text.HW_CGC_LPMHardwareUnLock
                0x00006464       0x10 ./synergy/ssp/src/driver/r_cgc/hw/hw_cgc.o
                0x00006464                HW_CGC_LPMHardwareUnLock
 .text.HW_CGC_MainClockDriveSet
                0x00006474       0x84 ./synergy/ssp/src/driver/r_cgc/hw/hw_cgc.o
                0x00006474                HW_CGC_MainClockDriveSet
 .text.HW_CGC_SubClockDriveSet
                0x000064f8       0x84 ./synergy/ssp/src/driver/r_cgc/hw/hw_cgc.o
                0x000064f8                HW_CGC_SubClockDriveSet
 .text.HW_CGC_ClockStart
                0x0000657c       0x8c ./synergy/ssp/src/driver/r_cgc/hw/hw_cgc.o
                0x0000657c                HW_CGC_ClockStart
 .text.HW_CGC_ClockStop
                0x00006608       0x8c ./synergy/ssp/src/driver/r_cgc/hw/hw_cgc.o
                0x00006608                HW_CGC_ClockStop
 .text.HW_CGC_ClockCheck
                0x00006694       0x78 ./synergy/ssp/src/driver/r_cgc/hw/hw_cgc.o
                0x00006694                HW_CGC_ClockCheck
 .text.HW_CGC_ClockRunStateGet
                0x0000670c       0xbc ./synergy/ssp/src/driver/r_cgc/hw/hw_cgc.o
                0x0000670c                HW_CGC_ClockRunStateGet
 .text.HW_CGC_DelayCycles
                0x000067c8       0x64 ./synergy/ssp/src/driver/r_cgc/hw/hw_cgc.o
                0x000067c8                HW_CGC_DelayCycles
 .text.HW_CGC_MainOscSourceSet
                0x0000682c       0x44 ./synergy/ssp/src/driver/r_cgc/hw/hw_cgc.o
                0x0000682c                HW_CGC_MainOscSourceSet
 .text.HW_CGC_ClockWaitSet
                0x00006870       0x48 ./synergy/ssp/src/driver/r_cgc/hw/hw_cgc.o
                0x00006870                HW_CGC_ClockWaitSet
 .text.HW_CGC_ClockSourceValidCheck
                0x000068b8       0x44 ./synergy/ssp/src/driver/r_cgc/hw/hw_cgc.o
                0x000068b8                HW_CGC_ClockSourceValidCheck
 .text.HW_CGC_SystemClockValidCheck
                0x000068fc       0x24 ./synergy/ssp/src/driver/r_cgc/hw/hw_cgc.o
                0x000068fc                HW_CGC_SystemClockValidCheck
 .text.HW_CGC_ClockSourceGet
                0x00006920       0x1c ./synergy/ssp/src/driver/r_cgc/hw/hw_cgc.o
                0x00006920                HW_CGC_ClockSourceGet
 .text.HW_CGC_ClockSourceSet
                0x0000693c       0x40 ./synergy/ssp/src/driver/r_cgc/hw/hw_cgc.o
                0x0000693c                HW_CGC_ClockSourceSet
 .text.HW_CGC_PLLClockSourceGet
                0x0000697c       0x40 ./synergy/ssp/src/driver/r_cgc/hw/hw_cgc.o
                0x0000697c                HW_CGC_PLLClockSourceGet
 .text.HW_CGC_PLLClockSourceSet
                0x000069bc       0x3c ./synergy/ssp/src/driver/r_cgc/hw/hw_cgc.o
                0x000069bc                HW_CGC_PLLClockSourceSet
 .text.HW_CGC_PLLMultiplierSet
                0x000069f8       0xb8 ./synergy/ssp/src/driver/r_cgc/hw/hw_cgc.o
                0x000069f8                HW_CGC_PLLMultiplierSet
 .text.HW_CGC_PLLMultiplierGet
                0x00006ab0       0x94 ./synergy/ssp/src/driver/r_cgc/hw/hw_cgc.o
                0x00006ab0                HW_CGC_PLLMultiplierGet
 .text.HW_CGC_PLLDividerSet
                0x00006b44       0xc0 ./synergy/ssp/src/driver/r_cgc/hw/hw_cgc.o
                0x00006b44                HW_CGC_PLLDividerSet
 .text.HW_CGC_PLLDividerGet
                0x00006c04       0x84 ./synergy/ssp/src/driver/r_cgc/hw/hw_cgc.o
                0x00006c04                HW_CGC_PLLDividerGet
 .text.HW_CGC_SystemDividersSet
                0x00006c88      0x168 ./synergy/ssp/src/driver/r_cgc/hw/hw_cgc.o
                0x00006c88                HW_CGC_SystemDividersSet
 .text.HW_CGC_SystemDividersGet
                0x00006df0       0x9c ./synergy/ssp/src/driver/r_cgc/hw/hw_cgc.o
                0x00006df0                HW_CGC_SystemDividersGet
 .text.HW_CGC_ClockDividerGet
                0x00006e8c       0xb0 ./synergy/ssp/src/driver/r_cgc/hw/hw_cgc.o
                0x00006e8c                HW_CGC_ClockDividerGet
 .text.HW_CGC_ClockHzGet
                0x00006f3c       0x44 ./synergy/ssp/src/driver/r_cgc/hw/hw_cgc.o
                0x00006f3c                HW_CGC_ClockHzGet
 .text.HW_CGC_ClockHzCalculate
                0x00006f80       0x30 ./synergy/ssp/src/driver/r_cgc/hw/hw_cgc.o
                0x00006f80                HW_CGC_ClockHzCalculate
 .text.HW_CGC_OperatingModeSet
                0x00006fb0      0x160 ./synergy/ssp/src/driver/r_cgc/hw/hw_cgc.o
                0x00006fb0                HW_CGC_OperatingModeSet
 .text.HW_CGC_OscStopDetectEnable
                0x00007110       0x30 ./synergy/ssp/src/driver/r_cgc/hw/hw_cgc.o
                0x00007110                HW_CGC_OscStopDetectEnable
 .text.HW_CGC_OscStopDetectDisable
                0x00007140       0x30 ./synergy/ssp/src/driver/r_cgc/hw/hw_cgc.o
                0x00007140                HW_CGC_OscStopDetectDisable
 .text.HW_CGC_OscStopDetectEnabledGet
                0x00007170       0x28 ./synergy/ssp/src/driver/r_cgc/hw/hw_cgc.o
                0x00007170                HW_CGC_OscStopDetectEnabledGet
 .text.HW_CGC_OscStopDetectGet
                0x00007198       0x28 ./synergy/ssp/src/driver/r_cgc/hw/hw_cgc.o
                0x00007198                HW_CGC_OscStopDetectGet
 .text.HW_CGC_OscStopStatusClear
                0x000071c0       0x3c ./synergy/ssp/src/driver/r_cgc/hw/hw_cgc.o
                0x000071c0                HW_CGC_OscStopStatusClear
 .text.HW_CGC_BusClockOutCfg
                0x000071fc       0x40 ./synergy/ssp/src/driver/r_cgc/hw/hw_cgc.o
                0x000071fc                HW_CGC_BusClockOutCfg
 .text.HW_CGC_BusClockOutEnable
                0x0000723c       0x24 ./synergy/ssp/src/driver/r_cgc/hw/hw_cgc.o
                0x0000723c                HW_CGC_BusClockOutEnable
 .text.HW_CGC_BusClockOutDisable
                0x00007260       0x24 ./synergy/ssp/src/driver/r_cgc/hw/hw_cgc.o
                0x00007260                HW_CGC_BusClockOutDisable
 .text.HW_CGC_ClockOutCfg
                0x00007284       0x78 ./synergy/ssp/src/driver/r_cgc/hw/hw_cgc.o
                0x00007284                HW_CGC_ClockOutCfg
 .text.HW_CGC_ClockOutEnable
                0x000072fc       0x24 ./synergy/ssp/src/driver/r_cgc/hw/hw_cgc.o
                0x000072fc                HW_CGC_ClockOutEnable
 .text.HW_CGC_ClockOutDisable
                0x00007320       0x24 ./synergy/ssp/src/driver/r_cgc/hw/hw_cgc.o
                0x00007320                HW_CGC_ClockOutDisable
 .text.HW_CGC_SDRAMClockOutEnable
                0x00007344       0x24 ./synergy/ssp/src/driver/r_cgc/hw/hw_cgc.o
                0x00007344                HW_CGC_SDRAMClockOutEnable
 .text.HW_CGC_SDRAMClockOutDisable
                0x00007368       0x24 ./synergy/ssp/src/driver/r_cgc/hw/hw_cgc.o
                0x00007368                HW_CGC_SDRAMClockOutDisable
 .text.HW_CGC_USBClockCfg
                0x0000738c       0x40 ./synergy/ssp/src/driver/r_cgc/hw/hw_cgc.o
                0x0000738c                HW_CGC_USBClockCfg
 .text.HW_CGC_SystickUpdate
                0x000073cc       0x68 ./synergy/ssp/src/driver/r_cgc/hw/hw_cgc.o
                0x000073cc                HW_CGC_SystickUpdate
 .text.HW_CGC_LCDClockCfg
                0x00007434       0x38 ./synergy/ssp/src/driver/r_cgc/hw/hw_cgc.o
                0x00007434                HW_CGC_LCDClockCfg
 .text.HW_CGC_LCDClockCfgGet
                0x0000746c       0x1c ./synergy/ssp/src/driver/r_cgc/hw/hw_cgc.o
                0x0000746c                HW_CGC_LCDClockCfgGet
 .text.HW_CGC_LCDClockEnable
                0x00007488       0x1c ./synergy/ssp/src/driver/r_cgc/hw/hw_cgc.o
                0x00007488                HW_CGC_LCDClockEnable
 .text.HW_CGC_LCDClockDisable
                0x000074a4       0x1c ./synergy/ssp/src/driver/r_cgc/hw/hw_cgc.o
                0x000074a4                HW_CGC_LCDClockDisable
 .text.HW_CGC_LCDClockIsEnabled
                0x000074c0       0x1c ./synergy/ssp/src/driver/r_cgc/hw/hw_cgc.o
                0x000074c0                HW_CGC_LCDClockIsEnabled
 .text.HW_CGC_SetHighSpeedMode
                0x000074dc       0x18 ./synergy/ssp/src/driver/r_cgc/r_cgc.o
 .text.HW_CGC_SetMiddleSpeedMode
                0x000074f4       0x18 ./synergy/ssp/src/driver/r_cgc/r_cgc.o
 .text.HW_CGC_SetLowSpeedMode
                0x0000750c       0x18 ./synergy/ssp/src/driver/r_cgc/r_cgc.o
 .text.HW_CGC_SetSubOscSpeedMode
                0x00007524       0x18 ./synergy/ssp/src/driver/r_cgc/r_cgc.o
 .text.R_CGC_Init
                0x0000753c       0xb0 ./synergy/ssp/src/driver/r_cgc/r_cgc.o
                0x0000753c                R_CGC_Init
 .text.R_CGC_ClocksCfg
                0x000075ec      0x2fc ./synergy/ssp/src/driver/r_cgc/r_cgc.o
                0x000075ec                R_CGC_ClocksCfg
 .text.R_CGC_ClockStart
                0x000078e8      0x270 ./synergy/ssp/src/driver/r_cgc/r_cgc.o
                0x000078e8                R_CGC_ClockStart
 .text.R_CGC_ClockStop
                0x00007b58      0x168 ./synergy/ssp/src/driver/r_cgc/r_cgc.o
                0x00007b58                R_CGC_ClockStop
 .text.R_CGC_SystemClockSet
                0x00007cc0      0x2c0 ./synergy/ssp/src/driver/r_cgc/r_cgc.o
                0x00007cc0                R_CGC_SystemClockSet
 .text.R_CGC_SystemClockGet
                0x00007f80       0x38 ./synergy/ssp/src/driver/r_cgc/r_cgc.o
                0x00007f80                R_CGC_SystemClockGet
 .text.R_CGC_SystemClockFreqGet
                0x00007fb8       0x4c ./synergy/ssp/src/driver/r_cgc/r_cgc.o
                0x00007fb8                R_CGC_SystemClockFreqGet
 .text.R_CGC_ClockCheck
                0x00008004       0xb8 ./synergy/ssp/src/driver/r_cgc/r_cgc.o
                0x00008004                R_CGC_ClockCheck
 .text.R_CGC_OscStopDetect
                0x000080bc       0x64 ./synergy/ssp/src/driver/r_cgc/r_cgc.o
                0x000080bc                R_CGC_OscStopDetect
 .text.R_CGC_OscStopStatusClear
                0x00008120       0xa8 ./synergy/ssp/src/driver/r_cgc/r_cgc.o
                0x00008120                R_CGC_OscStopStatusClear
 .text.R_CGC_BusClockOutCfg
                0x000081c8       0x2c ./synergy/ssp/src/driver/r_cgc/r_cgc.o
                0x000081c8                R_CGC_BusClockOutCfg
 .text.R_CGC_BusClockOutEnable
                0x000081f4       0x1c ./synergy/ssp/src/driver/r_cgc/r_cgc.o
                0x000081f4                R_CGC_BusClockOutEnable
 .text.R_CGC_BusClockOutDisable
                0x00008210       0x1c ./synergy/ssp/src/driver/r_cgc/r_cgc.o
                0x00008210                R_CGC_BusClockOutDisable
 .text.R_CGC_ClockOutCfg
                0x0000822c       0x38 ./synergy/ssp/src/driver/r_cgc/r_cgc.o
                0x0000822c                R_CGC_ClockOutCfg
 .text.R_CGC_ClockOutEnable
                0x00008264       0x1c ./synergy/ssp/src/driver/r_cgc/r_cgc.o
                0x00008264                R_CGC_ClockOutEnable
 .text.R_CGC_ClockOutDisable
                0x00008280       0x1c ./synergy/ssp/src/driver/r_cgc/r_cgc.o
                0x00008280                R_CGC_ClockOutDisable
 .text.R_CGC_LCDClockCfg
                0x0000829c       0xc0 ./synergy/ssp/src/driver/r_cgc/r_cgc.o
                0x0000829c                R_CGC_LCDClockCfg
 .text.R_CGC_LCDClockEnable
                0x0000835c       0x78 ./synergy/ssp/src/driver/r_cgc/r_cgc.o
                0x0000835c                R_CGC_LCDClockEnable
 .text.R_CGC_LCDClockDisable
                0x000083d4       0x70 ./synergy/ssp/src/driver/r_cgc/r_cgc.o
                0x000083d4                R_CGC_LCDClockDisable
 .text.R_CGC_SDRAMClockOutEnable
                0x00008444       0x30 ./synergy/ssp/src/driver/r_cgc/r_cgc.o
                0x00008444                R_CGC_SDRAMClockOutEnable
 .text.R_CGC_SDRAMClockOutDisable
                0x00008474       0x30 ./synergy/ssp/src/driver/r_cgc/r_cgc.o
                0x00008474                R_CGC_SDRAMClockOutDisable
 .text.R_CGC_USBClockCfg
                0x000084a4       0x40 ./synergy/ssp/src/driver/r_cgc/r_cgc.o
                0x000084a4                R_CGC_USBClockCfg
 .text.R_CGC_SystickUpdate
                0x000084e4       0x88 ./synergy/ssp/src/driver/r_cgc/r_cgc.o
                0x000084e4                R_CGC_SystickUpdate
 .text.R_CGC_VersionGet
                0x0000856c       0x20 ./synergy/ssp/src/driver/r_cgc/r_cgc.o
                0x0000856c                R_CGC_VersionGet
 .text.r_cgc_stabilization_wait
                0x0000858c       0x90 ./synergy/ssp/src/driver/r_cgc/r_cgc.o
 .text.r_cgc_clock_start_stop
                0x0000861c       0x94 ./synergy/ssp/src/driver/r_cgc/r_cgc.o
 .text.R_BSP_CacheOff
                0x000086b0       0x14 ./synergy/ssp/src/bsp/mcu/s128/bsp_cache.o
                0x000086b0                R_BSP_CacheOff
 .text.R_BSP_CacheSet
                0x000086c4       0x18 ./synergy/ssp/src/bsp/mcu/s128/bsp_cache.o
                0x000086c4                R_BSP_CacheSet
 .text.bsp_clock_init
                0x000086dc       0x80 ./synergy/ssp/src/bsp/mcu/s128/bsp_clocks.o
                0x000086dc                bsp_clock_init
 .text.bsp_cpu_clock_get
                0x0000875c       0x20 ./synergy/ssp/src/bsp/mcu/s128/bsp_clocks.o
                0x0000875c                bsp_cpu_clock_get
 .text.bsp_clock_set_callback
                0x0000877c       0x14 ./synergy/ssp/src/bsp/mcu/s128/bsp_clocks.o
                0x0000877c                bsp_clock_set_callback
 .text.R_BSP_FeatureSciGet
                0x00008790       0x14 ./synergy/ssp/src/bsp/mcu/s128/bsp_feature.o
                0x00008790                R_BSP_FeatureSciGet
 .text.R_BSP_FeatureFlashLpGet
                0x000087a4       0x14 ./synergy/ssp/src/bsp/mcu/s128/bsp_feature.o
                0x000087a4                R_BSP_FeatureFlashLpGet
 .text.R_BSP_FeatureIoportGet
                0x000087b8       0x24 ./synergy/ssp/src/bsp/mcu/s128/bsp_feature.o
                0x000087b8                R_BSP_FeatureIoportGet
 .text.R_BSP_FeatureCgcGet
                0x000087dc       0x18 ./synergy/ssp/src/bsp/mcu/s128/bsp_feature.o
                0x000087dc                R_BSP_FeatureCgcGet
 .text.bsp_group_interrupt_open
                0x000087f4       0x2c ./synergy/ssp/src/bsp/mcu/s128/bsp_group_irq.o
                0x000087f4                bsp_group_interrupt_open
 .text.bsp_group_irq_call
                0x00008820       0x50 ./synergy/ssp/src/bsp/mcu/s128/bsp_group_irq.o
                0x00008820                bsp_group_irq_call
 .text.R_BSP_GroupIrqWrite
                0x00008870       0x48 ./synergy/ssp/src/bsp/mcu/s128/bsp_group_irq.o
                0x00008870                R_BSP_GroupIrqWrite
 .text.NMI_Handler
                0x000088b8      0x16c ./synergy/ssp/src/bsp/mcu/s128/bsp_group_irq.o
                0x000088b8                NMI_Handler
 .text.R_BSP_ModuleStop
                0x00008a24       0x1c ./synergy/ssp/src/bsp/mcu/s128/bsp_module_stop.o
                0x00008a24                R_BSP_ModuleStop
 .text.R_BSP_ModuleStart
                0x00008a40       0x1c ./synergy/ssp/src/bsp/mcu/s128/bsp_module_stop.o
                0x00008a40                R_BSP_ModuleStart
 .text.r_bsp_module_start_stop
                0x00008a5c      0x148 ./synergy/ssp/src/bsp/mcu/s128/bsp_module_stop.o
 .text.bsp_init_internal
                0x00008ba4       0x10 ./synergy/ssp/src/bsp/mcu/all/bsp_common.o
                0x00008ba4                bsp_init_internal
                0x00008ba4                bsp_init
 .text.R_BSP_SoftwareDelay
                0x00008bb4       0x90 ./synergy/ssp/src/bsp/mcu/all/bsp_delay.o
                0x00008bb4                R_BSP_SoftwareDelay
 .text.software_delay_loop
                0x00008c44        0x8 ./synergy/ssp/src/bsp/mcu/all/bsp_delay.o
 .text.R_BSP_IrqStatusClear
                0x00008c4c       0x38 ./synergy/ssp/src/bsp/mcu/all/bsp_irq.o
                0x00008c4c                R_BSP_IrqStatusClear
 .text.bsp_irq_cfg
                0x00008c84       0x5c ./synergy/ssp/src/bsp/mcu/all/bsp_irq.o
                0x00008c84                bsp_irq_cfg
 .text.R_BSP_SoftwareLock
                0x00008ce0       0x30 ./synergy/ssp/src/bsp/mcu/all/bsp_locking.o
                0x00008ce0                R_BSP_SoftwareLock
 .text.r_bsp_software_lock_cm0plus
                0x00008d10       0x58 ./synergy/ssp/src/bsp/mcu/all/bsp_locking.o
 .text.R_BSP_SoftwareUnlock
                0x00008d68       0x14 ./synergy/ssp/src/bsp/mcu/all/bsp_locking.o
                0x00008d68                R_BSP_SoftwareUnlock
 .text.R_BSP_HardwareLock
                0x00008d7c       0x5c ./synergy/ssp/src/bsp/mcu/all/bsp_locking.o
                0x00008d7c                R_BSP_HardwareLock
 .text.R_BSP_HardwareUnlock
                0x00008dd8       0x54 ./synergy/ssp/src/bsp/mcu/all/bsp_locking.o
                0x00008dd8                R_BSP_HardwareUnlock
 .text.bsp_init_hardware_locks
                0x00008e2c       0x64 ./synergy/ssp/src/bsp/mcu/all/bsp_locking.o
                0x00008e2c                bsp_init_hardware_locks
 .text.R_BSP_RegisterProtectEnable
                0x00008e90       0xa4 ./synergy/ssp/src/bsp/mcu/all/bsp_register_protection.o
                0x00008e90                R_BSP_RegisterProtectEnable
 .text.R_BSP_RegisterProtectDisable
                0x00008f34       0x90 ./synergy/ssp/src/bsp/mcu/all/bsp_register_protection.o
                0x00008f34                R_BSP_RegisterProtectDisable
 .text.bsp_register_protect_open
                0x00008fc4       0x2c ./synergy/ssp/src/bsp/mcu/all/bsp_register_protection.o
                0x00008fc4                bsp_register_protect_open
 .text._sbrk    0x00008ff0       0x68 ./synergy/ssp/src/bsp/mcu/all/bsp_sbrk.o
                0x00008ff0                _sbrk
 .text.Reset_Handler
                0x00009058       0x10 ./synergy/ssp/src/bsp/cmsis/Device/RENESAS/S128/Source/startup_S128.o
                0x00009058                Reset_Handler
 .text.Default_Handler
                0x00009068        0xc ./synergy/ssp/src/bsp/cmsis/Device/RENESAS/S128/Source/startup_S128.o
                0x00009068                DebugMon_Handler
                0x00009068                HardFault_Handler
                0x00009068                SysTick_Handler
                0x00009068                PendSV_Handler
                0x00009068                UsageFault_Handler
                0x00009068                Default_Handler
                0x00009068                MemManage_Handler
                0x00009068                SVC_Handler
                0x00009068                BusFault_Handler
 .text.HW_IOPORT_Init_Reference_Counter
                0x00009074       0x14 ./synergy/ssp/src/bsp/cmsis/Device/RENESAS/S128/Source/system_S128.o
 .text.SystemInit
                0x00009088       0xa8 ./synergy/ssp/src/bsp/cmsis/Device/RENESAS/S128/Source/system_S128.o
                0x00009088                SystemInit
 .text.bsp_section_zero
                0x00009130       0x28 ./synergy/ssp/src/bsp/cmsis/Device/RENESAS/S128/Source/system_S128.o
 .text.bsp_section_copy
                0x00009158       0x3c ./synergy/ssp/src/bsp/cmsis/Device/RENESAS/S128/Source/system_S128.o
 .text.R_BSP_WarmStart
                0x00009194       0x14 ./synergy/ssp/src/bsp/cmsis/Device/RENESAS/S128/Source/system_S128.o
                0x00009194                R_BSP_WarmStart
 .text.main     0x000091a8       0x10 ./src/synergy_gen/main.o
                0x000091a8                main
 .text.set_calc_chksum_frame
                0x000091b8       0x1c ./src/frame_processing.o
                0x000091b8                set_calc_chksum_frame
 .text.get_calc_chksum_frame
                0x000091d4       0x14 ./src/frame_processing.o
                0x000091d4                get_calc_chksum_frame
 .text.calc_chk_sum_frame
                0x000091e8       0x38 ./src/frame_processing.o
                0x000091e8                calc_chk_sum_frame
 .text.init_flash_buffer
                0x00009220       0x48 ./src/frame_processing.o
                0x00009220                init_flash_buffer
 .text.create_flash_buffer
                0x00009268      0x120 ./src/frame_processing.o
                0x00009268                create_flash_buffer
 .text.write_header_to_flash
                0x00009388       0xec ./src/frame_processing.o
                0x00009388                write_header_to_flash
 .text.write_to_flash
                0x00009474      0x20c ./src/frame_processing.o
                0x00009474                write_to_flash
 .text.process_payload_buffer
                0x00009680      0x164 ./src/frame_processing.o
                0x00009680                process_payload_buffer
 .text.process_frame
                0x000097e4      0x190 ./src/frame_processing.o
                0x000097e4                process_frame
 .text.init_firmware_info
                0x00009974       0x44 ./src/hal_entry.o
                0x00009974                init_firmware_info
 .text.valid_app_image
                0x000099b8      0x174 ./src/hal_entry.o
                0x000099b8                valid_app_image
 .text.hal_entry
                0x00009b2c       0xcc ./src/hal_entry.o
                0x00009b2c                hal_entry
 .text.run_app  0x00009bf8       0x44 ./src/hal_entry.o
                0x00009bf8                run_app
 .text.calc_fcs
                0x00009c3c       0x4c ./src/int_prot_frame.o
 .text.construct_rha_frame
                0x00009c88      0x144 ./src/int_prot_frame.o
                0x00009c88                construct_rha_frame
 .text.io_command_get_nvt_table_handler
                0x00009dcc       0x84 ./src/int_prot_frame.o
                0x00009dcc                io_command_get_nvt_table_handler
 .text.send_version_info_to_controller
                0x00009e50       0x7c ./src/int_prot_frame.o
                0x00009e50                send_version_info_to_controller
 .text.send_ack
                0x00009ecc       0x5c ./src/int_prot_frame.o
                0x00009ecc                send_ack
 .text.getExpectedCRC
                0x00009f28       0x14 ./src/payload_processing.o
                0x00009f28                getExpectedCRC
 .text.crc_xmodem_update
                0x00009f3c       0xb4 ./src/payload_processing.o
                0x00009f3c                crc_xmodem_update
 .text.writeNumHeader
                0x00009ff0       0x9c ./src/payload_processing.o
                0x00009ff0                writeNumHeader
 .text.init_payload_processing
                0x0000a08c       0x58 ./src/payload_processing.o
                0x0000a08c                init_payload_processing
 .text.process_image_record
                0x0000a0e4      0x8d0 ./src/payload_processing.o
                0x0000a0e4                process_image_record
 .text.rs485_set_rw_direction
                0x0000a9b4       0x60 ./src/rs485_driver.o
                0x0000a9b4                rs485_set_rw_direction
 .text.rs485_disable_rw
                0x0000aa14       0x2c ./src/rs485_driver.o
                0x0000aa14                rs485_disable_rw
 .text._rx_buffer_reset
                0x0000aa40       0x30 ./src/rs485_driver.o
 .text.rs485_initialize
                0x0000aa70       0x48 ./src/rs485_driver.o
                0x0000aa70                rs485_initialize
 .text.user_uart_callback
                0x0000aab8       0xd8 ./src/rs485_driver.o
                0x0000aab8                user_uart_callback
 .text.rs485_rx_read_byte
                0x0000ab90       0x6c ./src/rs485_driver.o
                0x0000ab90                rs485_rx_read_byte
 .text.rs485_tx_write_nbyte
                0x0000abfc       0x68 ./src/rs485_driver.o
                0x0000abfc                rs485_tx_write_nbyte
 .text._inc_rx_buffer_index
                0x0000ac64       0x34 ./src/rs485_driver.o
 .text._rx_buffer_full
                0x0000ac98       0x50 ./src/rs485_driver.o
 .text.NVIC_SystemReset
                0x0000ace8       0x20 ./src/time_out_handlers.o
 .text.refresh_timer
                0x0000ad08       0x48 ./src/time_out_handlers.o
                0x0000ad08                refresh_timer
 .text.stop_timer
                0x0000ad50       0x2c ./src/time_out_handlers.o
                0x0000ad50                stop_timer
 .text.g_timer0_callback
                0x0000ad7c       0x40 ./src/time_out_handlers.o
                0x0000ad7c                g_timer0_callback
 .text          0x0000adbc      0x120 c:/program files (x86)/gnu tools arm embedded/4.9 2015q3/bin/../lib/gcc/arm-none-eabi/4.9.3/armv6-m\libgcc.a(_udivsi3.o)
                0x0000adbc                __aeabi_uidiv
                0x0000adbc                __udivsi3
                0x0000aec8                __aeabi_uidivmod
 .text          0x0000aedc        0x4 c:/program files (x86)/gnu tools arm embedded/4.9 2015q3/bin/../lib/gcc/arm-none-eabi/4.9.3/armv6-m\libgcc.a(_dvmd_tls.o)
                0x0000aedc                __aeabi_idiv0
                0x0000aedc                __aeabi_ldiv0
 .text          0x0000aee0       0x74 c:/program files (x86)/gnu tools arm embedded/4.9 2015q3/bin/../lib/gcc/arm-none-eabi/4.9.3/armv6-m\libgcc.a(_arm_cmpsf2.o)
                0x0000aee0                __aeabi_cfrcmple
                0x0000aee8                __aeabi_cfcmpeq
                0x0000aee8                __aeabi_cfcmple
                0x0000aef8                __aeabi_fcmpeq
                0x0000af04                __aeabi_fcmplt
                0x0000af18                __aeabi_fcmple
                0x0000af2c                __aeabi_fcmpgt
                0x0000af40                __aeabi_fcmpge
 .text          0x0000af54       0x40 c:/program files (x86)/gnu tools arm embedded/4.9 2015q3/bin/../lib/gcc/arm-none-eabi/4.9.3/armv6-m\libgcc.a(_aeabi_uldivmod.o)
                0x0000af54                __aeabi_uldivmod
 .text          0x0000af94       0x54 c:/program files (x86)/gnu tools arm embedded/4.9 2015q3/bin/../lib/gcc/arm-none-eabi/4.9.3/armv6-m\libgcc.a(_muldi3.o)
                0x0000af94                __muldi3
                0x0000af94                __aeabi_lmul
 .text          0x0000afe8       0x30 c:/program files (x86)/gnu tools arm embedded/4.9 2015q3/bin/../lib/gcc/arm-none-eabi/4.9.3/armv6-m\libgcc.a(_fixunssfsi.o)
                0x0000afe8                __fixunssfsi
                0x0000afe8                __aeabi_f2uiz
 .text          0x0000b018       0x6c c:/program files (x86)/gnu tools arm embedded/4.9 2015q3/bin/../lib/gcc/arm-none-eabi/4.9.3/armv6-m\libgcc.a(bpabi.o)
                0x0000b018                __gnu_ldivmod_helper
                0x0000b050                __gnu_uldivmod_helper
 .text          0x0000b084      0x2f8 c:/program files (x86)/gnu tools arm embedded/4.9 2015q3/bin/../lib/gcc/arm-none-eabi/4.9.3/armv6-m\libgcc.a(addsf3.o)
                0x0000b084                __aeabi_fadd
 .text          0x0000b37c      0x270 c:/program files (x86)/gnu tools arm embedded/4.9 2015q3/bin/../lib/gcc/arm-none-eabi/4.9.3/armv6-m\libgcc.a(divsf3.o)
                0x0000b37c                __aeabi_fdiv
 .text          0x0000b5ec       0x54 c:/program files (x86)/gnu tools arm embedded/4.9 2015q3/bin/../lib/gcc/arm-none-eabi/4.9.3/armv6-m\libgcc.a(eqsf2.o)
                0x0000b5ec                __eqsf2
                0x0000b5ec                __nesf2
 .text          0x0000b640       0x94 c:/program files (x86)/gnu tools arm embedded/4.9 2015q3/bin/../lib/gcc/arm-none-eabi/4.9.3/armv6-m\libgcc.a(gesf2.o)
                0x0000b640                __gesf2
                0x0000b640                __gtsf2
 .text          0x0000b6d4       0x8c c:/program files (x86)/gnu tools arm embedded/4.9 2015q3/bin/../lib/gcc/arm-none-eabi/4.9.3/armv6-m\libgcc.a(lesf2.o)
                0x0000b6d4                __ltsf2
                0x0000b6d4                __lesf2
 .text          0x0000b760      0x264 c:/program files (x86)/gnu tools arm embedded/4.9 2015q3/bin/../lib/gcc/arm-none-eabi/4.9.3/armv6-m\libgcc.a(mulsf3.o)
                0x0000b760                __aeabi_fmul
 .text          0x0000b9c4      0x2fc c:/program files (x86)/gnu tools arm embedded/4.9 2015q3/bin/../lib/gcc/arm-none-eabi/4.9.3/armv6-m\libgcc.a(subsf3.o)
                0x0000b9c4                __aeabi_fsub
 .text          0x0000bcc0       0x40 c:/program files (x86)/gnu tools arm embedded/4.9 2015q3/bin/../lib/gcc/arm-none-eabi/4.9.3/armv6-m\libgcc.a(fixsfsi.o)
                0x0000bcc0                __aeabi_f2iz
 .text          0x0000bd00       0x90 c:/program files (x86)/gnu tools arm embedded/4.9 2015q3/bin/../lib/gcc/arm-none-eabi/4.9.3/armv6-m\libgcc.a(floatsisf.o)
                0x0000bd00                __aeabi_i2f
 .text          0x0000bd90       0x90 c:/program files (x86)/gnu tools arm embedded/4.9 2015q3/bin/../lib/gcc/arm-none-eabi/4.9.3/armv6-m\libgcc.a(floatunsisf.o)
                0x0000bd90                __aeabi_ui2f
 .text          0x0000be20       0x3c c:/program files (x86)/gnu tools arm embedded/4.9 2015q3/bin/../lib/gcc/arm-none-eabi/4.9.3/armv6-m\libgcc.a(_clzsi2.o)
                0x0000be20                __clzsi2
 .text          0x0000be5c      0x1f0 c:/program files (x86)/gnu tools arm embedded/4.9 2015q3/bin/../lib/gcc/arm-none-eabi/4.9.3/armv6-m\libgcc.a(_divdi3.o)
                0x0000be5c                __divdi3
 .text          0x0000c04c      0x158 c:/program files (x86)/gnu tools arm embedded/4.9 2015q3/bin/../lib/gcc/arm-none-eabi/4.9.3/armv6-m\libgcc.a(_udivdi3.o)
                0x0000c04c                __udivdi3
 .text          0x0000c1a4       0x18 c:/program files (x86)/gnu tools arm embedded/4.9 2015q3/bin/../lib/gcc/arm-none-eabi/4.9.3/armv6-m\libgcc.a(_clzdi2.o)
                0x0000c1a4                __clzdi2
 .text.__errno  0x0000c1bc        0xc c:/program files (x86)/gnu tools arm embedded/4.9 2015q3/bin/../lib/gcc/arm-none-eabi/4.9.3/../../../../arm-none-eabi/lib/armv6-m\libg_nano.a(lib_a-errno.o)
                0x0000c1bc                __errno
 .text.memcpy   0x0000c1c8       0x12 c:/program files (x86)/gnu tools arm embedded/4.9 2015q3/bin/../lib/gcc/arm-none-eabi/4.9.3/../../../../arm-none-eabi/lib/armv6-m\libg_nano.a(lib_a-memcpy.o)
                0x0000c1c8                memcpy
 .text.memset   0x0000c1da       0x10 c:/program files (x86)/gnu tools arm embedded/4.9 2015q3/bin/../lib/gcc/arm-none-eabi/4.9.3/../../../../arm-none-eabi/lib/armv6-m\libg_nano.a(lib_a-memset.o)
                0x0000c1da                memset
 *fill*         0x0000c1ea        0x2 ff
 .text.printf   0x0000c1ec       0x34 c:/program files (x86)/gnu tools arm embedded/4.9 2015q3/bin/../lib/gcc/arm-none-eabi/4.9.3/../../../../arm-none-eabi/lib/armv6-m\libg_nano.a(lib_a-printf.o)
                0x0000c1ec                iprintf
                0x0000c1ec                printf
 .text._cleanup_r
                0x0000c220       0x10 c:/program files (x86)/gnu tools arm embedded/4.9 2015q3/bin/../lib/gcc/arm-none-eabi/4.9.3/../../../../arm-none-eabi/lib/armv6-m\libg_nano.a(lib_a-findfp.o)
                0x0000c220                _cleanup_r
 .text.std.isra.0
                0x0000c230       0x48 c:/program files (x86)/gnu tools arm embedded/4.9 2015q3/bin/../lib/gcc/arm-none-eabi/4.9.3/../../../../arm-none-eabi/lib/armv6-m\libg_nano.a(lib_a-findfp.o)
 .text.__sfmoreglue
                0x0000c278       0x2c c:/program files (x86)/gnu tools arm embedded/4.9 2015q3/bin/../lib/gcc/arm-none-eabi/4.9.3/../../../../arm-none-eabi/lib/armv6-m\libg_nano.a(lib_a-findfp.o)
                0x0000c278                __sfmoreglue
 .text.__sinit  0x0000c2a4       0x64 c:/program files (x86)/gnu tools arm embedded/4.9 2015q3/bin/../lib/gcc/arm-none-eabi/4.9.3/../../../../arm-none-eabi/lib/armv6-m\libg_nano.a(lib_a-findfp.o)
                0x0000c2a4                __sinit
 .text.__sfp    0x0000c308       0x7c c:/program files (x86)/gnu tools arm embedded/4.9 2015q3/bin/../lib/gcc/arm-none-eabi/4.9.3/../../../../arm-none-eabi/lib/armv6-m\libg_nano.a(lib_a-findfp.o)
                0x0000c308                __sfp
 .text._fwalk_reent
                0x0000c384       0x42 c:/program files (x86)/gnu tools arm embedded/4.9 2015q3/bin/../lib/gcc/arm-none-eabi/4.9.3/../../../../arm-none-eabi/lib/armv6-m\libg_nano.a(lib_a-fwalk.o)
                0x0000c384                _fwalk_reent
 *fill*         0x0000c3c6        0x2 ff
 .text._malloc_r
                0x0000c3c8       0xb0 c:/program files (x86)/gnu tools arm embedded/4.9 2015q3/bin/../lib/gcc/arm-none-eabi/4.9.3/../../../../arm-none-eabi/lib/armv6-m\libg_nano.a(lib_a-nano-mallocr.o)
                0x0000c3c8                _malloc_r
 .text.__sfputc_r
                0x0000c478       0x2a c:/program files (x86)/gnu tools arm embedded/4.9 2015q3/bin/../lib/gcc/arm-none-eabi/4.9.3/../../../../arm-none-eabi/lib/armv6-m\libg_nano.a(lib_a-nano-vfprintf.o)
 .text.__sfputs_r
                0x0000c4a2       0x24 c:/program files (x86)/gnu tools arm embedded/4.9 2015q3/bin/../lib/gcc/arm-none-eabi/4.9.3/../../../../arm-none-eabi/lib/armv6-m\libg_nano.a(lib_a-nano-vfprintf.o)
                0x0000c4a2                __sfputs_r
 *fill*         0x0000c4c6        0x2 ff
 .text._vfprintf_r
                0x0000c4c8      0x220 c:/program files (x86)/gnu tools arm embedded/4.9 2015q3/bin/../lib/gcc/arm-none-eabi/4.9.3/../../../../arm-none-eabi/lib/armv6-m\libg_nano.a(lib_a-nano-vfprintf.o)
                0x0000c4c8                _vfprintf_r
                0x0000c4c8                _vfiprintf_r
 .text._printf_common
                0x0000c6e8       0xdc c:/program files (x86)/gnu tools arm embedded/4.9 2015q3/bin/../lib/gcc/arm-none-eabi/4.9.3/../../../../arm-none-eabi/lib/armv6-m\libg_nano.a(lib_a-nano-vfprintf_i.o)
                0x0000c6e8                _printf_common
 .text._printf_i
                0x0000c7c4      0x230 c:/program files (x86)/gnu tools arm embedded/4.9 2015q3/bin/../lib/gcc/arm-none-eabi/4.9.3/../../../../arm-none-eabi/lib/armv6-m\libg_nano.a(lib_a-nano-vfprintf_i.o)
                0x0000c7c4                _printf_i
 .text._sbrk_r  0x0000c9f4       0x24 c:/program files (x86)/gnu tools arm embedded/4.9 2015q3/bin/../lib/gcc/arm-none-eabi/4.9.3/../../../../arm-none-eabi/lib/armv6-m\libg_nano.a(lib_a-sbrkr.o)
                0x0000c9f4                _sbrk_r
 .text.__sread  0x0000ca18       0x28 c:/program files (x86)/gnu tools arm embedded/4.9 2015q3/bin/../lib/gcc/arm-none-eabi/4.9.3/../../../../arm-none-eabi/lib/armv6-m\libg_nano.a(lib_a-stdio.o)
                0x0000ca18                __sread
 .text.__swrite
                0x0000ca40       0x38 c:/program files (x86)/gnu tools arm embedded/4.9 2015q3/bin/../lib/gcc/arm-none-eabi/4.9.3/../../../../arm-none-eabi/lib/armv6-m\libg_nano.a(lib_a-stdio.o)
                0x0000ca40                __swrite
 .text.__sseek  0x0000ca78       0x2c c:/program files (x86)/gnu tools arm embedded/4.9 2015q3/bin/../lib/gcc/arm-none-eabi/4.9.3/../../../../arm-none-eabi/lib/armv6-m\libg_nano.a(lib_a-stdio.o)
                0x0000ca78                __sseek
 .text.__sclose
                0x0000caa4        0xc c:/program files (x86)/gnu tools arm embedded/4.9 2015q3/bin/../lib/gcc/arm-none-eabi/4.9.3/../../../../arm-none-eabi/lib/armv6-m\libg_nano.a(lib_a-stdio.o)
                0x0000caa4                __sclose
 .text.__swbuf_r
                0x0000cab0       0xb0 c:/program files (x86)/gnu tools arm embedded/4.9 2015q3/bin/../lib/gcc/arm-none-eabi/4.9.3/../../../../arm-none-eabi/lib/armv6-m\libg_nano.a(lib_a-wbuf.o)
                0x0000cab0                __swbuf_r
 .text._write_r
                0x0000cb60       0x28 c:/program files (x86)/gnu tools arm embedded/4.9 2015q3/bin/../lib/gcc/arm-none-eabi/4.9.3/../../../../arm-none-eabi/lib/armv6-m\libg_nano.a(lib_a-writer.o)
                0x0000cb60                _write_r
 .text.__swsetup_r
                0x0000cb88       0xe8 c:/program files (x86)/gnu tools arm embedded/4.9 2015q3/bin/../lib/gcc/arm-none-eabi/4.9.3/../../../../arm-none-eabi/lib/armv6-m\libg_nano.a(lib_a-wsetup.o)
                0x0000cb88                __swsetup_r
 .text._close_r
                0x0000cc70       0x24 c:/program files (x86)/gnu tools arm embedded/4.9 2015q3/bin/../lib/gcc/arm-none-eabi/4.9.3/../../../../arm-none-eabi/lib/armv6-m\libg_nano.a(lib_a-closer.o)
                0x0000cc70                _close_r
 .text.__sflush_r
                0x0000cc94      0x112 c:/program files (x86)/gnu tools arm embedded/4.9 2015q3/bin/../lib/gcc/arm-none-eabi/4.9.3/../../../../arm-none-eabi/lib/armv6-m\libg_nano.a(lib_a-fflush.o)
                0x0000cc94                __sflush_r
 *fill*         0x0000cda6        0x2 ff
 .text._fflush_r
                0x0000cda8       0x58 c:/program files (x86)/gnu tools arm embedded/4.9 2015q3/bin/../lib/gcc/arm-none-eabi/4.9.3/../../../../arm-none-eabi/lib/armv6-m\libg_nano.a(lib_a-fflush.o)
                0x0000cda8                _fflush_r
 .text._lseek_r
                0x0000ce00       0x28 c:/program files (x86)/gnu tools arm embedded/4.9 2015q3/bin/../lib/gcc/arm-none-eabi/4.9.3/../../../../arm-none-eabi/lib/armv6-m\libg_nano.a(lib_a-lseekr.o)
                0x0000ce00                _lseek_r
 .text.__smakebuf_r
                0x0000ce28       0xb0 c:/program files (x86)/gnu tools arm embedded/4.9 2015q3/bin/../lib/gcc/arm-none-eabi/4.9.3/../../../../arm-none-eabi/lib/armv6-m\libg_nano.a(lib_a-makebuf.o)
                0x0000ce28                __smakebuf_r
 .text.memchr   0x0000ced8       0x16 c:/program files (x86)/gnu tools arm embedded/4.9 2015q3/bin/../lib/gcc/arm-none-eabi/4.9.3/../../../../arm-none-eabi/lib/armv6-m\libg_nano.a(lib_a-memchr.o)
                0x0000ced8                memchr
 *fill*         0x0000ceee        0x2 ff
 .text._free_r  0x0000cef0       0x8c c:/program files (x86)/gnu tools arm embedded/4.9 2015q3/bin/../lib/gcc/arm-none-eabi/4.9.3/../../../../arm-none-eabi/lib/armv6-m\libg_nano.a(lib_a-nano-freer.o)
                0x0000cef0                _free_r
 .text._read_r  0x0000cf7c       0x28 c:/program files (x86)/gnu tools arm embedded/4.9 2015q3/bin/../lib/gcc/arm-none-eabi/4.9.3/../../../../arm-none-eabi/lib/armv6-m\libg_nano.a(lib_a-readr.o)
                0x0000cf7c                _read_r
 .text._fstat_r
                0x0000cfa4       0x24 c:/program files (x86)/gnu tools arm embedded/4.9 2015q3/bin/../lib/gcc/arm-none-eabi/4.9.3/../../../../arm-none-eabi/lib/armv6-m\libg_nano.a(lib_a-fstatr.o)
                0x0000cfa4                _fstat_r
 .text._isatty_r
                0x0000cfc8       0x24 c:/program files (x86)/gnu tools arm embedded/4.9 2015q3/bin/../lib/gcc/arm-none-eabi/4.9.3/../../../../arm-none-eabi/lib/armv6-m\libg_nano.a(lib_a-isattyr.o)
                0x0000cfc8                _isatty_r
 .text.findslot
                0x0000cfec       0x34 c:/program files (x86)/gnu tools arm embedded/4.9 2015q3/bin/../lib/gcc/arm-none-eabi/4.9.3/../../../../arm-none-eabi/lib/armv6-m\librdimon_nano.a(rdimon-syscalls.o)
 .text.error    0x0000d020       0x1c c:/program files (x86)/gnu tools arm embedded/4.9 2015q3/bin/../lib/gcc/arm-none-eabi/4.9.3/../../../../arm-none-eabi/lib/armv6-m\librdimon_nano.a(rdimon-syscalls.o)
 .text.checkerror
                0x0000d03c        0xc c:/program files (x86)/gnu tools arm embedded/4.9 2015q3/bin/../lib/gcc/arm-none-eabi/4.9.3/../../../../arm-none-eabi/lib/armv6-m\librdimon_nano.a(rdimon-syscalls.o)
 .text._swiread
                0x0000d048       0x20 c:/program files (x86)/gnu tools arm embedded/4.9 2015q3/bin/../lib/gcc/arm-none-eabi/4.9.3/../../../../arm-none-eabi/lib/armv6-m\librdimon_nano.a(rdimon-syscalls.o)
                0x0000d048                _swiread
 .text._read    0x0000d068       0x36 c:/program files (x86)/gnu tools arm embedded/4.9 2015q3/bin/../lib/gcc/arm-none-eabi/4.9.3/../../../../arm-none-eabi/lib/armv6-m\librdimon_nano.a(rdimon-syscalls.o)
                0x0000d068                _read
 .text._swilseek
                0x0000d09e       0x76 c:/program files (x86)/gnu tools arm embedded/4.9 2015q3/bin/../lib/gcc/arm-none-eabi/4.9.3/../../../../arm-none-eabi/lib/armv6-m\librdimon_nano.a(rdimon-syscalls.o)
                0x0000d09e                _swilseek
 .text._lseek   0x0000d114        0x8 c:/program files (x86)/gnu tools arm embedded/4.9 2015q3/bin/../lib/gcc/arm-none-eabi/4.9.3/../../../../arm-none-eabi/lib/armv6-m\librdimon_nano.a(rdimon-syscalls.o)
                0x0000d114                _lseek
 .text._swiwrite
                0x0000d11c       0x20 c:/program files (x86)/gnu tools arm embedded/4.9 2015q3/bin/../lib/gcc/arm-none-eabi/4.9.3/../../../../arm-none-eabi/lib/armv6-m\librdimon_nano.a(rdimon-syscalls.o)
                0x0000d11c                _swiwrite
 .text._write   0x0000d13c       0x40 c:/program files (x86)/gnu tools arm embedded/4.9 2015q3/bin/../lib/gcc/arm-none-eabi/4.9.3/../../../../arm-none-eabi/lib/armv6-m\librdimon_nano.a(rdimon-syscalls.o)
                0x0000d13c                _write
 .text._swiclose
                0x0000d17c       0x18 c:/program files (x86)/gnu tools arm embedded/4.9 2015q3/bin/../lib/gcc/arm-none-eabi/4.9.3/../../../../arm-none-eabi/lib/armv6-m\librdimon_nano.a(rdimon-syscalls.o)
                0x0000d17c                _swiclose
 .text._close   0x0000d194       0x4c c:/program files (x86)/gnu tools arm embedded/4.9 2015q3/bin/../lib/gcc/arm-none-eabi/4.9.3/../../../../arm-none-eabi/lib/armv6-m\librdimon_nano.a(rdimon-syscalls.o)
                0x0000d194                _close
 .text._swistat
                0x0000d1e0       0x46 c:/program files (x86)/gnu tools arm embedded/4.9 2015q3/bin/../lib/gcc/arm-none-eabi/4.9.3/../../../../arm-none-eabi/lib/armv6-m\librdimon_nano.a(rdimon-syscalls.o)
                0x0000d1e0                _swistat
 .text._fstat   0x0000d226       0x1a c:/program files (x86)/gnu tools arm embedded/4.9 2015q3/bin/../lib/gcc/arm-none-eabi/4.9.3/../../../../arm-none-eabi/lib/armv6-m\librdimon_nano.a(rdimon-syscalls.o)
                0x0000d226                _fstat
 .text._isatty  0x0000d240       0x3a c:/program files (x86)/gnu tools arm embedded/4.9 2015q3/bin/../lib/gcc/arm-none-eabi/4.9.3/../../../../arm-none-eabi/lib/armv6-m\librdimon_nano.a(rdimon-syscalls.o)
                0x0000d240                _isatty
 *(.init)
 *fill*         0x0000d27a        0x2 ff
 .init          0x0000d27c        0x4 c:/program files (x86)/gnu tools arm embedded/4.9 2015q3/bin/../lib/gcc/arm-none-eabi/4.9.3/armv6-m/crti.o
                0x0000d27c                _init
 .init          0x0000d280        0x8 c:/program files (x86)/gnu tools arm embedded/4.9 2015q3/bin/../lib/gcc/arm-none-eabi/4.9.3/armv6-m/crtn.o
 *(.fini)
 .fini          0x0000d288        0x4 c:/program files (x86)/gnu tools arm embedded/4.9 2015q3/bin/../lib/gcc/arm-none-eabi/4.9.3/armv6-m/crti.o
                0x0000d288                _fini
 .fini          0x0000d28c        0x8 c:/program files (x86)/gnu tools arm embedded/4.9 2015q3/bin/../lib/gcc/arm-none-eabi/4.9.3/armv6-m/crtn.o
 *fill*         0x0000d294        0x4 ff
 .fini.__stub   0x0000d298       0x40 linker stubs
 *crtbegin.o(.ctors)
 *crtbegin?.o(.ctors)
 *(EXCLUDE_FILE(*crtend.o *crtend?.o) .ctors)
 *(SORT(.ctors.*))
 *(.ctors)
 *crtbegin.o(.dtors)
 *crtbegin?.o(.dtors)
 *(EXCLUDE_FILE(*crtend.o *crtend?.o) .dtors)
 *(SORT(.dtors.*))
 *(.dtors)
 *(.rodata*)
 .rodata.async_baud
                0x0000d2d8       0x4e ./synergy/ssp/src/driver/r_sci_uart/r_sci_uart.o
 *fill*         0x0000d326        0x2 ff
 .rodata.g_sci_uart_fifo_depth
                0x0000d328        0x4 ./synergy/ssp/src/driver/r_sci_uart/r_sci_uart.o
 .rodata.g_uart_on_sci
                0x0000d32c       0x1c ./synergy/ssp/src/driver/r_sci_uart/r_sci_uart.o
                0x0000d32c                g_uart_on_sci
 .rodata.g_ioport_on_ioport
                0x0000d348       0x3c ./synergy/ssp/src/driver/r_ioport/r_ioport.o
                0x0000d348                g_ioport_on_ioport
 .rodata.g_gpt_version
                0x0000d384        0x4 ./synergy/ssp/src/driver/r_gpt/r_gpt.o
 .rodata.g_timer_on_gpt
                0x0000d388       0x28 ./synergy/ssp/src/driver/r_gpt/r_gpt.o
                0x0000d388                g_timer_on_gpt
 .rodata.period_to_pclk
                0x0000d3b0       0x1c ./synergy/ssp/src/driver/r_gpt/r_gpt.o
 .rodata.bit_count
                0x0000d3cc       0x80 ./synergy/ssp/src/driver/r_fmi/r_fmi.o
 .rodata.bit_count_mask
                0x0000d44c        0x8 ./synergy/ssp/src/driver/r_fmi/r_fmi.o
 .rodata.g_fmi_version
                0x0000d454        0x4 ./synergy/ssp/src/driver/r_fmi/r_fmi.o
 .rodata.r_fmi_size_lookup
                0x0000d458       0x18 ./synergy/ssp/src/driver/r_fmi/r_fmi.o
 .rodata.g_fmi_on_fmi
                0x0000d470       0x18 ./synergy/ssp/src/driver/r_fmi/r_fmi.o
                0x0000d470                g_fmi_on_fmi
 .rodata.g_flash_on_flash_lp
                0x0000d488       0x38 ./synergy/ssp/src/driver/r_flash_lp/r_flash_lp.o
                0x0000d488                g_flash_on_flash_lp
 .rodata.g_flash_lp_version
                0x0000d4c0        0x4 ./synergy/ssp/src/driver/r_flash_lp/r_flash_lp.o
 .rodata.s_elc_version
                0x0000d4c4        0x4 ./synergy/ssp/src/driver/r_elc/r_elc.o
 .rodata.g_elc_on_elc
                0x0000d4c8       0x1c ./synergy/ssp/src/driver/r_elc/r_elc.o
                0x0000d4c8                g_elc_on_elc
 .rodata.g_dtc_version
                0x0000d4e4        0x4 ./synergy/ssp/src/driver/r_dtc/r_dtc.o
 .rodata.g_transfer_on_dtc
                0x0000d4e8       0x28 ./synergy/ssp/src/driver/r_dtc/r_dtc.o
                0x0000d4e8                g_transfer_on_dtc
 .rodata.g_pllccr_div_value
                0x0000d510        0x6 ./synergy/ssp/src/driver/r_cgc/hw/hw_cgc.o
 *fill*         0x0000d516        0x2 ff
 .rodata.g_pllccr_div_setting
                0x0000d518        0x6 ./synergy/ssp/src/driver/r_cgc/hw/hw_cgc.o
 *fill*         0x0000d51e        0x2 ff
 .rodata.g_pllccr2_div_value
                0x0000d520        0x6 ./synergy/ssp/src/driver/r_cgc/hw/hw_cgc.o
 *fill*         0x0000d526        0x2 ff
 .rodata.g_pllccr2_div_setting
                0x0000d528        0x8 ./synergy/ssp/src/driver/r_cgc/hw/hw_cgc.o
 .rodata.HW_CGC_ClockStart
                0x0000d530       0x18 ./synergy/ssp/src/driver/r_cgc/hw/hw_cgc.o
 .rodata.HW_CGC_ClockStop
                0x0000d548       0x18 ./synergy/ssp/src/driver/r_cgc/hw/hw_cgc.o
 .rodata.HW_CGC_ClockRunStateGet
                0x0000d560       0x18 ./synergy/ssp/src/driver/r_cgc/hw/hw_cgc.o
 .rodata.HW_CGC_ClockDividerGet
                0x0000d578       0x1c ./synergy/ssp/src/driver/r_cgc/hw/hw_cgc.o
 .rodata.g_cgc_version
                0x0000d594        0x4 ./synergy/ssp/src/driver/r_cgc/r_cgc.o
 .rodata.g_lcd_clock_settings
                0x0000d598        0x6 ./synergy/ssp/src/driver/r_cgc/r_cgc.o
 *fill*         0x0000d59e        0x2 ff
 .rodata.g_cgc_on_cgc
                0x0000d5a0       0x60 ./synergy/ssp/src/driver/r_cgc/r_cgc.o
                0x0000d5a0                g_cgc_on_cgc
 .rodata.g_cgc_feature
                0x0000d600       0x2c ./synergy/ssp/src/bsp/mcu/s128/bsp_feature.o
 .rodata.g_bsp_module_stop
                0x0000d62c       0x46 ./synergy/ssp/src/bsp/mcu/s128/bsp_module_stop.o
 *fill*         0x0000d672        0x2 ff
 .rodata.gp_mstp
                0x0000d674       0x10 ./synergy/ssp/src/bsp/mcu/s128/bsp_module_stop.o
 .rodata.gp_vector_information
                0x0000d684        0x4 ./synergy/ssp/src/bsp/mcu/all/bsp_irq.o
                0x0000d684                gp_vector_information
 .rodata.g_prcr_masks
                0x0000d688        0x6 ./synergy/ssp/src/bsp/mcu/all/bsp_register_protection.o
 *fill*         0x0000d68e        0x2 ff
 .rodata.g_elc_cfg
                0x0000d690        0xc ./synergy/ssp/src/bsp/cmsis/Device/RENESAS/S128/Source/system_S128.o
 .rodata.g_timer0_extend
                0x0000d69c        0x4 ./src/synergy_gen/hal_data.o
 .rodata.g_timer0_cfg
                0x0000d6a0       0x20 ./src/synergy_gen/hal_data.o
 .rodata.g_timer0
                0x0000d6c0        0xc ./src/synergy_gen/hal_data.o
                0x0000d6c0                g_timer0
 .rodata.g_transfer1_cfg
                0x0000d6cc       0x14 ./src/synergy_gen/hal_data.o
                0x0000d6cc                g_transfer1_cfg
 .rodata.g_transfer1
                0x0000d6e0        0xc ./src/synergy_gen/hal_data.o
                0x0000d6e0                g_transfer1
 .rodata.g_transfer0_cfg
                0x0000d6ec       0x14 ./src/synergy_gen/hal_data.o
                0x0000d6ec                g_transfer0_cfg
 .rodata.g_transfer0
                0x0000d700        0xc ./src/synergy_gen/hal_data.o
                0x0000d700                g_transfer0
 .rodata.g_uart0_cfg_extend
                0x0000d70c        0xc ./src/synergy_gen/hal_data.o
                0x0000d70c                g_uart0_cfg_extend
 .rodata.g_uart0_cfg
                0x0000d718       0x24 ./src/synergy_gen/hal_data.o
                0x0000d718                g_uart0_cfg
 .rodata.g_uart0
                0x0000d73c        0xc ./src/synergy_gen/hal_data.o
                0x0000d73c                g_uart0
 .rodata.g_flash0_cfg
                0x0000d748       0x14 ./src/synergy_gen/hal_data.o
                0x0000d748                g_flash0_cfg
 .rodata.g_flash0
                0x0000d75c        0xc ./src/synergy_gen/hal_data.o
                0x0000d75c                g_flash0
 .rodata.g_ioport
                0x0000d768        0x8 ./src/synergy_gen/hal_data.o
                0x0000d768                g_ioport
 .rodata.g_bsp_pin_cfg_data
                0x0000d770      0x160 ./src/synergy_gen/pin_data.o
                0x0000d770                g_bsp_pin_cfg_data
 .rodata.g_bsp_pin_cfg
                0x0000d8d0        0x8 ./src/synergy_gen/pin_data.o
                0x0000d8d0                g_bsp_pin_cfg
 .rodata.process_payload_buffer
                0x0000d8d8       0x34 ./src/frame_processing.o
 .rodata.process_frame
                0x0000d90c       0x20 ./src/frame_processing.o
 .rodata        0x0000d92c        0x4 ./src/payload_processing.o
 .rodata.process_image_record
                0x0000d930       0x28 ./src/payload_processing.o
 .rodata        0x0000d958       0x80 c:/program files (x86)/gnu tools arm embedded/4.9 2015q3/bin/../lib/gcc/arm-none-eabi/4.9.3/armv6-m\libgcc.a(divsf3.o)
 .rodata        0x0000d9d8       0x40 c:/program files (x86)/gnu tools arm embedded/4.9 2015q3/bin/../lib/gcc/arm-none-eabi/4.9.3/armv6-m\libgcc.a(mulsf3.o)
 .rodata.str1.1
                0x0000da18        0x2 c:/program files (x86)/gnu tools arm embedded/4.9 2015q3/bin/../lib/gcc/arm-none-eabi/4.9.3/../../../../arm-none-eabi/lib/armv6-m\libg_nano.a(lib_a-impure.o)
 *fill*         0x0000da1a        0x2 ff
 .rodata._global_impure_ptr
                0x0000da1c        0x4 c:/program files (x86)/gnu tools arm embedded/4.9 2015q3/bin/../lib/gcc/arm-none-eabi/4.9.3/../../../../arm-none-eabi/lib/armv6-m\libg_nano.a(lib_a-impure.o)
                0x0000da1c                _global_impure_ptr
 .rodata.__sf_fake_stdin
                0x0000da20       0x20 c:/program files (x86)/gnu tools arm embedded/4.9 2015q3/bin/../lib/gcc/arm-none-eabi/4.9.3/../../../../arm-none-eabi/lib/armv6-m\libg_nano.a(lib_a-findfp.o)
                0x0000da20                __sf_fake_stdin
 .rodata.__sf_fake_stdout
                0x0000da40       0x20 c:/program files (x86)/gnu tools arm embedded/4.9 2015q3/bin/../lib/gcc/arm-none-eabi/4.9.3/../../../../arm-none-eabi/lib/armv6-m\libg_nano.a(lib_a-findfp.o)
                0x0000da40                __sf_fake_stdout
 .rodata.__sf_fake_stderr
                0x0000da60       0x20 c:/program files (x86)/gnu tools arm embedded/4.9 2015q3/bin/../lib/gcc/arm-none-eabi/4.9.3/../../../../arm-none-eabi/lib/armv6-m\libg_nano.a(lib_a-findfp.o)
                0x0000da60                __sf_fake_stderr
 .rodata.str1.1
                0x0000da80       0x11 c:/program files (x86)/gnu tools arm embedded/4.9 2015q3/bin/../lib/gcc/arm-none-eabi/4.9.3/../../../../arm-none-eabi/lib/armv6-m\libg_nano.a(lib_a-nano-vfprintf.o)
 .rodata.str1.1
                0x0000da91       0x22 c:/program files (x86)/gnu tools arm embedded/4.9 2015q3/bin/../lib/gcc/arm-none-eabi/4.9.3/../../../../arm-none-eabi/lib/armv6-m\libg_nano.a(lib_a-nano-vfprintf_i.o)
                0x0000dab3                __usb_dev_descriptor_start_fs = .
 *(.usb_device_desc_fs*)
                0x0000dab3                __usb_cfg_descriptor_start_fs = .
 *(.usb_config_desc_fs*)
                0x0000dab3                __usb_interface_descriptor_start_fs = .
 *(.usb_interface_desc_fs*)
                0x0000dab3                __usb_descriptor_end_fs = .
 *(.eh_frame*)
 *fill*         0x0000dab3        0x1 ff
 .eh_frame      0x0000dab4        0x0 c:/program files (x86)/gnu tools arm embedded/4.9 2015q3/bin/../lib/gcc/arm-none-eabi/4.9.3/armv6-m/crtbegin.o
 .eh_frame      0x0000dab4        0x4 c:/program files (x86)/gnu tools arm embedded/4.9 2015q3/bin/../lib/gcc/arm-none-eabi/4.9.3/armv6-m/crtend.o
                0x0000dab8                __ROM_End = .

.glue_7         0x0000dab8        0x0
 .glue_7        0x00000000        0x0 linker stubs

.glue_7t        0x0000dab8        0x0
 .glue_7t       0x00000000        0x0 linker stubs

.vfp11_veneer   0x0000dab8        0x0
 .vfp11_veneer  0x00000000        0x0 linker stubs

.v4_bx          0x0000dab8        0x0
 .v4_bx         0x00000000        0x0 linker stubs

.iplt           0x0000dab8        0x0
 .iplt          0x00000000        0x0 c:/program files (x86)/gnu tools arm embedded/4.9 2015q3/bin/../lib/gcc/arm-none-eabi/4.9.3/armv6-m/crtbegin.o

.ARM.extab
 *(.ARM.extab* .gnu.linkonce.armextab.*)
                0x0000dab8                __exidx_start = .

.ARM.exidx      0x0000dab8        0x8
 *(.ARM.exidx* .gnu.linkonce.armexidx.*)
 .ARM.exidx     0x0000dab8        0x8 c:/program files (x86)/gnu tools arm embedded/4.9 2015q3/bin/../lib/gcc/arm-none-eabi/4.9.3/armv6-m\libgcc.a(_divdi3.o)
 .ARM.exidx     0x0000dac0        0x0 c:/program files (x86)/gnu tools arm embedded/4.9 2015q3/bin/../lib/gcc/arm-none-eabi/4.9.3/armv6-m\libgcc.a(_udivdi3.o)
                                  0x8 (size before relaxing)
                0x0000dac0                __exidx_end = .
                0x0000dac0                __etext = .

.rel.dyn        0x0000dac0        0x0
 .rel.iplt      0x00000000        0x0 c:/program files (x86)/gnu tools arm embedded/4.9 2015q3/bin/../lib/gcc/arm-none-eabi/4.9.3/armv6-m/crtbegin.o

.data           0x20000000     0x1fe0 load address 0x0000dac0
                0x20000000                __data_start__ = .
 *(vtable)
 *(.data.*)
 .data.g_transfer1_info
                0x20000000       0x10 ./src/synergy_gen/hal_data.o
                0x20000000                g_transfer1_info
 .data.g_transfer0_info
                0x20000010       0x10 ./src/synergy_gen/hal_data.o
                0x20000010                g_transfer0_info
 .data.header_ptr
                0x20000020        0x4 ./src/frame_processing.o
                0x20000020                header_ptr
 .data.frame_ptr
                0x20000024        0x4 ./src/frame_processing.o
                0x20000024                frame_ptr
 .data.buff_ptr
                0x20000028        0x4 ./src/frame_processing.o
 .data.tx_complete_flag
                0x2000002c        0x1 ./src/rs485_driver.o
 *fill*         0x2000002d        0x3 
 .data.impure_data
                0x20000030       0x60 c:/program files (x86)/gnu tools arm embedded/4.9 2015q3/bin/../lib/gcc/arm-none-eabi/4.9.3/../../../../arm-none-eabi/lib/armv6-m\libg_nano.a(lib_a-impure.o)
 .data._impure_ptr
                0x20000090        0x4 c:/program files (x86)/gnu tools arm embedded/4.9 2015q3/bin/../lib/gcc/arm-none-eabi/4.9.3/../../../../arm-none-eabi/lib/armv6-m\libg_nano.a(lib_a-impure.o)
                0x20000090                _impure_ptr
                0x20000094                . = ALIGN (0x4)
                0x20000094                PROVIDE (__preinit_array_start, .)
 *(.preinit_array)
                0x20000094                PROVIDE (__preinit_array_end, .)
                0x20000094                . = ALIGN (0x4)
                0x20000094                PROVIDE (__init_array_start, .)
 *(SORT(.init_array.*))
 *(.init_array)
 .init_array    0x20000094        0x4 c:/program files (x86)/gnu tools arm embedded/4.9 2015q3/bin/../lib/gcc/arm-none-eabi/4.9.3/armv6-m/crtbegin.o
                0x20000098                PROVIDE (__init_array_end, .)
                0x20000098                . = ALIGN (0x4)
                0x20000098                PROVIDE (__fini_array_start, .)
 *(SORT(.fini_array.*))
 *(.fini_array)
 .fini_array    0x20000098        0x4 c:/program files (x86)/gnu tools arm embedded/4.9 2015q3/bin/../lib/gcc/arm-none-eabi/4.9.3/armv6-m/crtbegin.o
                0x2000009c                PROVIDE (__fini_array_end, .)
 *(.jcr*)
 .jcr           0x2000009c        0x0 c:/program files (x86)/gnu tools arm embedded/4.9 2015q3/bin/../lib/gcc/arm-none-eabi/4.9.3/armv6-m/crtbegin.o
 .jcr           0x2000009c        0x4 c:/program files (x86)/gnu tools arm embedded/4.9 2015q3/bin/../lib/gcc/arm-none-eabi/4.9.3/armv6-m/crtend.o
                0x200000a0                . = ALIGN (0x4)
                0x200000a0                __Code_In_RAM_Start = .
 *(.code_in_ram*)
 .code_in_ram   0x200000a0      0x7a0 ./synergy/ssp/src/driver/r_flash_lp/hw/target/flash_lp_core/hw_codeflash.o
                0x200000a0                HW_FLASH_LP_codeflash_enter_pe_mode
                0x20000180                HW_FLASH_LP_codeflash_enter_read_mode
                0x20000218                HW_FLASH_LP_codeflash_write
                0x20000284                HW_FLASH_LP_codeflash_write_operation
                0x200003f4                HW_FLASH_LP_codeflash_write_monitor
                0x20000528                HW_FLASH_LP_codeflash_erase
                0x2000057c                HW_FLASH_LP_codeflash_erase_operation
                0x200005e0                HW_FLASH_LP_codeflash_erase_monitor
                0x200006e0                HW_FLASH_LP_codeflash_blank_check
                0x2000074c                HW_FLASH_LP_codeflash_blank_check_monitor
                0x20000828                HW_FLASH_LP_code_flash_set_flash_settings
 .code_in_ram   0x20000840      0x2e8 ./synergy/ssp/src/driver/r_flash_lp/hw/target/flash_lp_core/hw_codeflash_extra.o
                0x20000840                HW_FLASH_LP_set_startup_area_temporary
                0x200008b4                HW_FLASH_LP_access_window_set
                0x2000092c                HW_FLASH_LP_access_window_clear
                0x20000994                HW_FLASH_LP_set_startup_area_boot
                0x20000a0c                HW_FLASH_LP_extra_operation
                0x20000a84                HW_FLASH_LP_extra_check
 .code_in_ram   0x20000b28       0x30 ./synergy/ssp/src/driver/r_flash_lp/hw/target/flash_lp_core/hw_flash_common.o
                0x20000b30                HW_FLASH_LP_delay_us
 .code_in_ram   0x20000b58      0x648 ./synergy/ssp/src/driver/r_flash_lp/hw/target/hw_flash_lp.o
                0x20000b58                HW_FLASH_LP_irq_cfg
                0x20000bf4                HW_FLASH_LP_init
                0x20000d48                HW_FLASH_LP_erase
                0x20000e08                HW_FLASH_LP_write
                0x20000f28                HW_FLASH_LP_blankcheck
                0x20001068                HW_FLASH_LP_pe_mode_enter
                0x200010f0                HW_FLASH_LP_pe_mode_exit
                0x20001138                HW_FLASH_LP_reset
 .code_in_ram   0x200011a0      0xc44 ./synergy/ssp/src/driver/r_flash_lp/r_flash_lp.o
                0x200011a0                R_FLASH_LP_Open
                0x200012a4                R_FLASH_LP_Write
                0x20001308                R_FLASH_LP_Read
                0x20001358                R_FLASH_LP_Erase
                0x20001448                R_FLASH_LP_BlankCheck
                0x20001514                R_FLASH_LP_StatusGet
                0x2000153c                R_FLASH_LP_AccessWindowSet
                0x200015f4                R_FLASH_LP_AccessWindowClear
                0x20001674                R_FLASH_LP_Reset
                0x200016a4                R_FLASH_LP_StartUpAreaSelect
                0x20001770                R_FLASH_LP_UpdateFlashClockFreq
                0x200017b8                R_FLASH_LP_Close
                0x2000185c                flash_ReleaseState
                0x200018fc                flash_get_block_info
 *fill*         0x20001de4        0x4 
 .code_in_ram.__stub
                0x20001de8      0x1c0 linker stubs
                0x20001fa8                __Code_In_RAM_End = .
                0x20001fa8                __Lock_Start = .
 *(SORT(.hw_lock*))
 .hw_lock.ADC_0U_0U
                0x20001fa8        0x1 ./synergy/ssp/src/bsp/mcu/s128/bsp_hw_locks.o
                0x20001fa8                g_hw_lock_ADC_0U_0U
 .hw_lock.AES_0U_0U
                0x20001fa9        0x1 ./synergy/ssp/src/bsp/mcu/s128/bsp_hw_locks.o
                0x20001fa9                g_hw_lock_AES_0U_0U
 .hw_lock.AGT_0U_0U
                0x20001faa        0x1 ./synergy/ssp/src/bsp/mcu/s128/bsp_hw_locks.o
                0x20001faa                g_hw_lock_AGT_0U_0U
 .hw_lock.AGT_0U_1U
                0x20001fab        0x1 ./synergy/ssp/src/bsp/mcu/s128/bsp_hw_locks.o
                0x20001fab                g_hw_lock_AGT_0U_1U
 .hw_lock.BSC_0U_1U
                0x20001fac        0x1 ./synergy/ssp/src/bsp/mcu/s128/bsp_hw_locks.o
                0x20001fac                g_hw_lock_BSC_0U_1U
 .hw_lock.CAC_0U_0U
                0x20001fad        0x1 ./synergy/ssp/src/bsp/mcu/s128/bsp_hw_locks.o
                0x20001fad                g_hw_lock_CAC_0U_0U
 .hw_lock.CAN_0U_0U
                0x20001fae        0x1 ./synergy/ssp/src/bsp/mcu/s128/bsp_hw_locks.o
                0x20001fae                g_hw_lock_CAN_0U_0U
 .hw_lock.COMP_HS_0U_0U
                0x20001faf        0x1 ./synergy/ssp/src/bsp/mcu/s128/bsp_hw_locks.o
                0x20001faf                g_hw_lock_COMP_HS_0U_0U
 .hw_lock.COMP_HS_0U_1U
                0x20001fb0        0x1 ./synergy/ssp/src/bsp/mcu/s128/bsp_hw_locks.o
                0x20001fb0                g_hw_lock_COMP_HS_0U_1U
 .hw_lock.COMP_HS_0U_2U
                0x20001fb1        0x1 ./synergy/ssp/src/bsp/mcu/s128/bsp_hw_locks.o
                0x20001fb1                g_hw_lock_COMP_HS_0U_2U
 .hw_lock.COMP_LP_0U_0U
                0x20001fb2        0x1 ./synergy/ssp/src/bsp/mcu/s128/bsp_hw_locks.o
                0x20001fb2                g_hw_lock_COMP_LP_0U_0U
 .hw_lock.COMP_LP_0U_1U
                0x20001fb3        0x1 ./synergy/ssp/src/bsp/mcu/s128/bsp_hw_locks.o
                0x20001fb3                g_hw_lock_COMP_LP_0U_1U
 .hw_lock.CRC_0U_0U
                0x20001fb4        0x1 ./synergy/ssp/src/bsp/mcu/s128/bsp_hw_locks.o
                0x20001fb4                g_hw_lock_CRC_0U_0U
 .hw_lock.CTSU_0U_0U
                0x20001fb5        0x1 ./synergy/ssp/src/bsp/mcu/s128/bsp_hw_locks.o
                0x20001fb5                g_hw_lock_CTSU_0U_0U
 .hw_lock.DAC_0U_0U
                0x20001fb6        0x1 ./synergy/ssp/src/bsp/mcu/s128/bsp_hw_locks.o
                0x20001fb6                g_hw_lock_DAC_0U_0U
 .hw_lock.DAC_0U_1U
                0x20001fb7        0x1 ./synergy/ssp/src/bsp/mcu/s128/bsp_hw_locks.o
                0x20001fb7                g_hw_lock_DAC_0U_1U
 .hw_lock.DAC_0U_2U
                0x20001fb8        0x1 ./synergy/ssp/src/bsp/mcu/s128/bsp_hw_locks.o
                0x20001fb8                g_hw_lock_DAC_0U_2U
 .hw_lock.DOC_0U_0U
                0x20001fb9        0x1 ./synergy/ssp/src/bsp/mcu/s128/bsp_hw_locks.o
                0x20001fb9                g_hw_lock_DOC_0U_0U
 .hw_lock.DTC_0U_0U
                0x20001fba        0x1 ./synergy/ssp/src/bsp/mcu/s128/bsp_hw_locks.o
                0x20001fba                g_hw_lock_DTC_0U_0U
 .hw_lock.ELC_0U_0U
                0x20001fbb        0x1 ./synergy/ssp/src/bsp/mcu/s128/bsp_hw_locks.o
                0x20001fbb                g_hw_lock_ELC_0U_0U
 .hw_lock.FCU_0U_0U
                0x20001fbc        0x1 ./synergy/ssp/src/bsp/mcu/s128/bsp_hw_locks.o
                0x20001fbc                g_hw_lock_FCU_0U_0U
 .hw_lock.GPT_0U_0U
                0x20001fbd        0x1 ./synergy/ssp/src/bsp/mcu/s128/bsp_hw_locks.o
                0x20001fbd                g_hw_lock_GPT_0U_0U
 .hw_lock.GPT_0U_1U
                0x20001fbe        0x1 ./synergy/ssp/src/bsp/mcu/s128/bsp_hw_locks.o
                0x20001fbe                g_hw_lock_GPT_0U_1U
 .hw_lock.GPT_0U_2U
                0x20001fbf        0x1 ./synergy/ssp/src/bsp/mcu/s128/bsp_hw_locks.o
                0x20001fbf                g_hw_lock_GPT_0U_2U
 .hw_lock.GPT_0U_3U
                0x20001fc0        0x1 ./synergy/ssp/src/bsp/mcu/s128/bsp_hw_locks.o
                0x20001fc0                g_hw_lock_GPT_0U_3U
 .hw_lock.GPT_0U_4U
                0x20001fc1        0x1 ./synergy/ssp/src/bsp/mcu/s128/bsp_hw_locks.o
                0x20001fc1                g_hw_lock_GPT_0U_4U
 .hw_lock.GPT_0U_5U
                0x20001fc2        0x1 ./synergy/ssp/src/bsp/mcu/s128/bsp_hw_locks.o
                0x20001fc2                g_hw_lock_GPT_0U_5U
 .hw_lock.GPT_0U_6U
                0x20001fc3        0x1 ./synergy/ssp/src/bsp/mcu/s128/bsp_hw_locks.o
                0x20001fc3                g_hw_lock_GPT_0U_6U
 .hw_lock.ICU_0U_0U
                0x20001fc4        0x1 ./synergy/ssp/src/bsp/mcu/s128/bsp_hw_locks.o
                0x20001fc4                g_hw_lock_ICU_0U_0U
 .hw_lock.ICU_0U_1U
                0x20001fc5        0x1 ./synergy/ssp/src/bsp/mcu/s128/bsp_hw_locks.o
                0x20001fc5                g_hw_lock_ICU_0U_1U
 .hw_lock.ICU_0U_2U
                0x20001fc6        0x1 ./synergy/ssp/src/bsp/mcu/s128/bsp_hw_locks.o
                0x20001fc6                g_hw_lock_ICU_0U_2U
 .hw_lock.ICU_0U_3U
                0x20001fc7        0x1 ./synergy/ssp/src/bsp/mcu/s128/bsp_hw_locks.o
                0x20001fc7                g_hw_lock_ICU_0U_3U
 .hw_lock.ICU_0U_4U
                0x20001fc8        0x1 ./synergy/ssp/src/bsp/mcu/s128/bsp_hw_locks.o
                0x20001fc8                g_hw_lock_ICU_0U_4U
 .hw_lock.ICU_0U_5U
                0x20001fc9        0x1 ./synergy/ssp/src/bsp/mcu/s128/bsp_hw_locks.o
                0x20001fc9                g_hw_lock_ICU_0U_5U
 .hw_lock.ICU_0U_6U
                0x20001fca        0x1 ./synergy/ssp/src/bsp/mcu/s128/bsp_hw_locks.o
                0x20001fca                g_hw_lock_ICU_0U_6U
 .hw_lock.ICU_0U_7U
                0x20001fcb        0x1 ./synergy/ssp/src/bsp/mcu/s128/bsp_hw_locks.o
                0x20001fcb                g_hw_lock_ICU_0U_7U
 .hw_lock.IIC_0U_0U
                0x20001fcc        0x1 ./synergy/ssp/src/bsp/mcu/s128/bsp_hw_locks.o
                0x20001fcc                g_hw_lock_IIC_0U_0U
 .hw_lock.IIC_0U_1U
                0x20001fcd        0x1 ./synergy/ssp/src/bsp/mcu/s128/bsp_hw_locks.o
                0x20001fcd                g_hw_lock_IIC_0U_1U
 .hw_lock.IIC_0U_2U
                0x20001fce        0x1 ./synergy/ssp/src/bsp/mcu/s128/bsp_hw_locks.o
                0x20001fce                g_hw_lock_IIC_0U_2U
 .hw_lock.IWDT_0U_0U
                0x20001fcf        0x1 ./synergy/ssp/src/bsp/mcu/s128/bsp_hw_locks.o
                0x20001fcf                g_hw_lock_IWDT_0U_0U
 .hw_lock.KEY_0U_0U
                0x20001fd0        0x1 ./synergy/ssp/src/bsp/mcu/s128/bsp_hw_locks.o
                0x20001fd0                g_hw_lock_KEY_0U_0U
 .hw_lock.LVD_0U_0U
                0x20001fd1        0x1 ./synergy/ssp/src/bsp/mcu/s128/bsp_hw_locks.o
                0x20001fd1                g_hw_lock_LVD_0U_0U
 .hw_lock.LVD_0U_1U
                0x20001fd2        0x1 ./synergy/ssp/src/bsp/mcu/s128/bsp_hw_locks.o
                0x20001fd2                g_hw_lock_LVD_0U_1U
 .hw_lock.OPS_0U_0U
                0x20001fd3        0x1 ./synergy/ssp/src/bsp/mcu/s128/bsp_hw_locks.o
                0x20001fd3                g_hw_lock_OPS_0U_0U
 .hw_lock.POEG_0U_0U
                0x20001fd4        0x1 ./synergy/ssp/src/bsp/mcu/s128/bsp_hw_locks.o
                0x20001fd4                g_hw_lock_POEG_0U_0U
 .hw_lock.POEG_0U_1U
                0x20001fd5        0x1 ./synergy/ssp/src/bsp/mcu/s128/bsp_hw_locks.o
                0x20001fd5                g_hw_lock_POEG_0U_1U
 .hw_lock.RTC_0U_0U
                0x20001fd6        0x1 ./synergy/ssp/src/bsp/mcu/s128/bsp_hw_locks.o
                0x20001fd6                g_hw_lock_RTC_0U_0U
 .hw_lock.SCI_0U_0U
                0x20001fd7        0x1 ./synergy/ssp/src/bsp/mcu/s128/bsp_hw_locks.o
                0x20001fd7                g_hw_lock_SCI_0U_0U
 .hw_lock.SCI_0U_1U
                0x20001fd8        0x1 ./synergy/ssp/src/bsp/mcu/s128/bsp_hw_locks.o
                0x20001fd8                g_hw_lock_SCI_0U_1U
 .hw_lock.SCI_0U_9U
                0x20001fd9        0x1 ./synergy/ssp/src/bsp/mcu/s128/bsp_hw_locks.o
                0x20001fd9                g_hw_lock_SCI_0U_9U
 .hw_lock.SPI_0U_0U
                0x20001fda        0x1 ./synergy/ssp/src/bsp/mcu/s128/bsp_hw_locks.o
                0x20001fda                g_hw_lock_SPI_0U_0U
 .hw_lock.SPI_0U_1U
                0x20001fdb        0x1 ./synergy/ssp/src/bsp/mcu/s128/bsp_hw_locks.o
                0x20001fdb                g_hw_lock_SPI_0U_1U
 .hw_lock.TRNG_0U_0U
                0x20001fdc        0x1 ./synergy/ssp/src/bsp/mcu/s128/bsp_hw_locks.o
                0x20001fdc                g_hw_lock_TRNG_0U_0U
 .hw_lock.TSN_0U_0U
                0x20001fdd        0x1 ./synergy/ssp/src/bsp/mcu/s128/bsp_hw_locks.o
                0x20001fdd                g_hw_lock_TSN_0U_0U
 .hw_lock.USB_0U_0U
                0x20001fde        0x1 ./synergy/ssp/src/bsp/mcu/s128/bsp_hw_locks.o
                0x20001fde                g_hw_lock_USB_0U_0U
 .hw_lock.WDT_0U_0U
                0x20001fdf        0x1 ./synergy/ssp/src/bsp/mcu/s128/bsp_hw_locks.o
                0x20001fdf                g_hw_lock_WDT_0U_0U
                0x20001fe0                __Lock_End = .
                0x00000038                __Lock_Size = (__Lock_End - __Lock_Start)
                0x20001fe0                __data_end__ = .

.igot.plt       0x20001fe0        0x0 load address 0x0000faa0
 .igot.plt      0x00000000        0x0 c:/program files (x86)/gnu tools arm embedded/4.9 2015q3/bin/../lib/gcc/arm-none-eabi/4.9.3/armv6-m/crtbegin.o

.noinit         0x20001fe0       0x38 load address 0x0000faa0
                0x20001fe0                . = ALIGN (0x4)
                0x20001fe0                __noinit_start = .
 *(.noinit*)
 .noinit        0x20001fe0       0x14 ./synergy/ssp/src/driver/r_ioport/r_ioport.o
 .noinit        0x20001ff4        0x4 ./synergy/ssp/src/driver/r_fmi/r_fmi.o
 .noinit        0x20001ff8       0x18 ./synergy/ssp/src/driver/r_cgc/hw/hw_cgc.o
 .noinit        0x20002010        0x8 ./synergy/ssp/src/driver/r_cgc/r_cgc.o
                0x20002010                gp_cgc_feature
                0x20002018                __noinit_end = .

.bss            0x20002400     0x15cc load address 0x00010000
                0x20002400                . = ALIGN (0x4)
                0x20002400                __bss_start__ = .
 *(.bss*)
 .bss           0x20002400       0x1c c:/program files (x86)/gnu tools arm embedded/4.9 2015q3/bin/../lib/gcc/arm-none-eabi/4.9.3/armv6-m/crtbegin.o
 .bss.g_protect_pfswe_counter
                0x2000241c        0x2 ./synergy/ssp/src/driver/r_ioport/r_ioport.o
                0x2000241c                g_protect_pfswe_counter
 *fill*         0x2000241e        0x2 
 .bss.fmi_compact_base
                0x20002420        0x4 ./synergy/ssp/src/driver/r_fmi/r_fmi.o
 .bss.g_code_flash_info
                0x20002424        0xc ./synergy/ssp/src/driver/r_flash_lp/hw/target/flash_lp_core/hw_codeflash.o
 .bss.gp_flash_settings
                0x20002430        0x4 ./synergy/ssp/src/driver/r_flash_lp/hw/target/flash_lp_core/hw_codeflash.o
 .bss.gp_flash_settings
                0x20002434        0x4 ./synergy/ssp/src/driver/r_flash_lp/hw/target/flash_lp_core/hw_dataflash.o
 .bss.gp_flash_parameters
                0x20002438        0x4 ./synergy/ssp/src/driver/r_flash_lp/hw/target/hw_flash_lp.o
 .bss.g_block_info
                0x2000243c       0x2c ./synergy/ssp/src/driver/r_flash_lp/r_flash_lp.o
 .bss.g_flash_Lock
                0x20002468        0x1 ./synergy/ssp/src/driver/r_flash_lp/r_flash_lp.o
 *fill*         0x20002469        0x3 
 .bss.g_current_parameters
                0x2000246c       0x44 ./synergy/ssp/src/driver/r_flash_lp/r_flash_lp.o
 .bss.g_flash_state
                0x200024b0        0x1 ./synergy/ssp/src/driver/r_flash_lp/r_flash_lp.o
 *fill*         0x200024b1        0x3 
 .bss.g_flash_code_region
                0x200024b4        0x8 ./synergy/ssp/src/driver/r_flash_lp/r_flash_lp.o
 .bss.g_flash_data_region
                0x200024bc        0x8 ./synergy/ssp/src/driver/r_flash_lp/r_flash_lp.o
 .bss.gp_elc_reg
                0x200024c4        0x4 ./synergy/ssp/src/driver/r_elc/r_elc.o
 .bss.g_dtc_state_initialized
                0x200024c8        0x1 ./synergy/ssp/src/driver/r_dtc/r_dtc.o
 *fill*         0x200024c9        0x3 
 .bss.gp_dtc_regs
                0x200024cc        0x4 ./synergy/ssp/src/driver/r_dtc/r_dtc.o
 .bss.gp_icu_regs
                0x200024d0        0x4 ./synergy/ssp/src/driver/r_dtc/r_dtc.o
 *fill*         0x200024d4      0x32c 
 .bss.gp_dtc_vector_table
                0x20002800       0xc0 ./synergy/ssp/src/driver/r_dtc/r_dtc.o
 .bss.g_bsp_group_irq_sources
                0x200028c0       0x30 ./synergy/ssp/src/bsp/mcu/s128/bsp_group_irq.o
 .bss.g_vector_information_size
                0x200028f0        0x4 ./synergy/ssp/src/bsp/mcu/all/bsp_irq.o
                0x200028f0                g_vector_information_size
 .bss.gp_bsp_locks
                0x200028f4        0x4 ./synergy/ssp/src/bsp/mcu/all/bsp_locking.o
 .bss.gp_bsp_lock_lookup
                0x200028f8        0x4 ./synergy/ssp/src/bsp/mcu/all/bsp_locking.o
 .bss.g_bsp_lock_lookup_size
                0x200028fc        0x4 ./synergy/ssp/src/bsp/mcu/all/bsp_locking.o
 .bss.g_protect_counters
                0x20002900        0x6 ./synergy/ssp/src/bsp/mcu/all/bsp_register_protection.o
 *fill*         0x20002906        0x2 
 .bss.current_heap_end.17156
                0x20002908        0x4 ./synergy/ssp/src/bsp/mcu/all/bsp_sbrk.o
 .bss.gp_ctrl_GPT_0_COUNTER_OVERFLOW
                0x2000290c        0x4 ./src/synergy_gen/hal_data.o
 .bss.g_timer0_ctrl
                0x20002910       0x14 ./src/synergy_gen/hal_data.o
 .bss.gp_ctrl_SCI_0_RXI
                0x20002924        0x4 ./src/synergy_gen/hal_data.o
 .bss.gp_ctrl_SCI_0_TXI
                0x20002928        0x4 ./src/synergy_gen/hal_data.o
 .bss.gp_ctrl_SCI_0_TEI
                0x2000292c        0x4 ./src/synergy_gen/hal_data.o
 .bss.gp_ctrl_SCI_0_ERI
                0x20002930        0x4 ./src/synergy_gen/hal_data.o
 .bss.calc_check_sum
                0x20002934        0x2 ./src/frame_processing.o
 *fill*         0x20002936        0x2 
 .bss.num_chk_sum_bytes
                0x20002938        0x4 ./src/frame_processing.o
 .bss.calculated_crc
                0x2000293c        0x2 ./src/frame_processing.o
 *fill*         0x2000293e        0x2 
 .bss.index     0x20002940        0x4 ./src/frame_processing.o
 .bss.buff1_status
                0x20002944        0x1 ./src/frame_processing.o
 .bss.buff2_status
                0x20002945        0x1 ./src/frame_processing.o
 .bss.first_record
                0x20002946        0x1 ./src/frame_processing.o
 *fill*         0x20002947        0x1 
 .bss.start_dest_addr1
                0x20002948        0x4 ./src/frame_processing.o
 .bss.start_dest_addr2
                0x2000294c        0x4 ./src/frame_processing.o
 .bss.record_status.18040
                0x20002950        0x1 ./src/frame_processing.o
 .bss.seq       0x20002951        0x1 ./src/int_prot_frame.o
                0x20002951                seq
 *fill*         0x20002952        0x2 
 .bss.next_dest_address
                0x20002954        0x4 ./src/payload_processing.o
 .bss.expected_crc
                0x20002958        0x2 ./src/payload_processing.o
 *fill*         0x2000295a        0x2 
 .bss.num_s0_records
                0x2000295c        0x4 ./src/payload_processing.o
 .bss.num_s1_records
                0x20002960        0x4 ./src/payload_processing.o
 .bss.num_s2_records
                0x20002964        0x4 ./src/payload_processing.o
 .bss.num_s3_records
                0x20002968        0x4 ./src/payload_processing.o
 .bss.num_s7_records
                0x2000296c        0x4 ./src/payload_processing.o
 .bss.num_s8_records
                0x20002970        0x4 ./src/payload_processing.o
 .bss.num_s9_records
                0x20002974        0x4 ./src/payload_processing.o
 .bss.num_records
                0x20002978        0x4 ./src/payload_processing.o
 .bss.buff_ptr.17903
                0x2000297c        0x4 ./src/payload_processing.o
 .bss.g_arg_event
                0x20002980        0x4 ./src/time_out_handlers.o
 .bss.__malloc_sbrk_start
                0x20002984        0x4 c:/program files (x86)/gnu tools arm embedded/4.9 2015q3/bin/../lib/gcc/arm-none-eabi/4.9.3/../../../../arm-none-eabi/lib/armv6-m\libg_nano.a(lib_a-nano-mallocr.o)
                0x20002984                __malloc_sbrk_start
 .bss.__malloc_free_list
                0x20002988        0x4 c:/program files (x86)/gnu tools arm embedded/4.9 2015q3/bin/../lib/gcc/arm-none-eabi/4.9.3/../../../../arm-none-eabi/lib/armv6-m\libg_nano.a(lib_a-nano-mallocr.o)
                0x20002988                __malloc_free_list
 .bss.openfiles
                0x2000298c       0xa0 c:/program files (x86)/gnu tools arm embedded/4.9 2015q3/bin/../lib/gcc/arm-none-eabi/4.9.3/../../../../arm-none-eabi/lib/armv6-m\librdimon_nano.a(rdimon-syscalls.o)
 *(COMMON)
 COMMON         0x20002a2c        0x4 ./synergy/ssp/src/bsp/cmsis/Device/RENESAS/S128/Source/system_S128.o
                0x20002a2c                SystemCoreClock
 COMMON         0x20002a30       0x5c ./src/synergy_gen/hal_data.o
                0x20002a30                g_transfer0_ctrl
                0x20002a40                g_transfer1_ctrl
                0x20002a50                g_uart0_ctrl
                0x20002a7c                g_flash0_ctrl
 COMMON         0x20002a8c      0x869 ./src/frame_processing.o
                0x20002a8c                buffer_2
                0x20002e8c                buffer_1
                0x2000328c                data_buff
                0x200032f0                frame_header_buff
 *fill*         0x200032f5        0x3 
 COMMON         0x200032f8      0x168 ./src/hal_entry.o
                0x200032f8                p_jump_to_app
                0x200032fc                firmware_info
                0x2000345e                CRC_test
                0x2000345f                downld_new_app
 COMMON         0x20003460      0x15b ./src/int_prot_frame.o
                0x20003460                rcv_buffer
                0x20003470                snd_buffer
                0x20003538                my_addr
                0x2000353c                rcv_payload
 *fill*         0x200035bb        0x1 
 COMMON         0x200035bc        0x4 ./src/payload_processing.o
                0x200035bc                new_command
 COMMON         0x200035c0      0x406 ./src/rs485_driver.o
                0x200035c0                rx_buffer
 *fill*         0x200039c6        0x2 
 COMMON         0x200039c8        0x4 c:/program files (x86)/gnu tools arm embedded/4.9 2015q3/bin/../lib/gcc/arm-none-eabi/4.9.3/../../../../arm-none-eabi/lib/armv6-m\libg_nano.a(lib_a-reent.o)
                0x200039c8                errno
                0x200039cc                . = ALIGN (0x4)
                0x200039cc                __bss_end__ = .

.heap           0x200039d0     0x1000 load address 0x000115d0
                0x200039d0                . = ALIGN (0x8)
                0x200039d0                __HeapBase = .
                0x200039d0                __end__ = .
                0x200039d0                end = __end__
 *(.heap*)
 .heap          0x200039d0     0x1000 ./synergy/ssp/src/bsp/cmsis/Device/RENESAS/S128/Source/startup_S128.o
                0x200049d0                __HeapLimit = .

.stack_dummy    0x200049d0     0x1000 load address 0x000125d0
                0x200049d0                . = ALIGN (0x8)
                0x200049d0                __StackLimit = .
 *(.stack*)
 .stack         0x200049d0     0x1000 ./synergy/ssp/src/bsp/cmsis/Device/RENESAS/S128/Source/startup_S128.o
                0x200059d0                __StackTop = .
                0x200059d0                PROVIDE (__stack, __StackTop)
                0x200059d0                __RAM_segment_used_end__ = ALIGN (__StackTop, 0x4)

.data_flash     0x40100000       0x50
                0x40100000                __Data_Flash_Start = .
 *(.data_flash*)
 .data_flash    0x40100000       0x50 ./src/hal_entry.o
                0x40100000                btldr_data
                0x40100050                __Data_Flash_End = .
OUTPUT(Module_Bootloader.elf elf32-littlearm)

.ARM.attributes
                0x00000000       0x28
 .ARM.attributes
                0x00000000       0x1e c:/program files (x86)/gnu tools arm embedded/4.9 2015q3/bin/../lib/gcc/arm-none-eabi/4.9.3/armv6-m/crti.o
 .ARM.attributes
                0x0000001e       0x2c c:/program files (x86)/gnu tools arm embedded/4.9 2015q3/bin/../lib/gcc/arm-none-eabi/4.9.3/armv6-m/crtbegin.o
 .ARM.attributes
                0x0000004a       0x32 ./synergy/ssp/src/driver/r_sci_uart/r_sci_uart.o
 .ARM.attributes
                0x0000007c       0x32 ./synergy/ssp/src/driver/r_ioport/r_ioport.o
 .ARM.attributes
                0x000000ae       0x32 ./synergy/ssp/src/driver/r_gpt/r_gpt.o
 .ARM.attributes
                0x000000e0       0x32 ./synergy/ssp/src/driver/r_fmi/r_fmi.o
 .ARM.attributes
                0x00000112       0x32 ./synergy/ssp/src/driver/r_flash_lp/hw/target/flash_lp_core/hw_codeflash.o
 .ARM.attributes
                0x00000144       0x32 ./synergy/ssp/src/driver/r_flash_lp/hw/target/flash_lp_core/hw_codeflash_extra.o
 .ARM.attributes
                0x00000176       0x32 ./synergy/ssp/src/driver/r_flash_lp/hw/target/flash_lp_core/hw_dataflash.o
 .ARM.attributes
                0x000001a8       0x32 ./synergy/ssp/src/driver/r_flash_lp/hw/target/flash_lp_core/hw_flash_common.o
 .ARM.attributes
                0x000001da       0x32 ./synergy/ssp/src/driver/r_flash_lp/hw/target/hw_flash_lp.o
 .ARM.attributes
                0x0000020c       0x32 ./synergy/ssp/src/driver/r_flash_lp/r_flash_lp.o
 .ARM.attributes
                0x0000023e       0x32 ./synergy/ssp/src/driver/r_elc/r_elc.o
 .ARM.attributes
                0x00000270       0x32 ./synergy/ssp/src/driver/r_dtc/r_dtc.o
 .ARM.attributes
                0x000002a2       0x32 ./synergy/ssp/src/driver/r_cgc/hw/hw_cgc.o
 .ARM.attributes
                0x000002d4       0x32 ./synergy/ssp/src/driver/r_cgc/r_cgc.o
 .ARM.attributes
                0x00000306       0x32 ./synergy/ssp/src/bsp/mcu/s128/bsp_cache.o
 .ARM.attributes
                0x00000338       0x32 ./synergy/ssp/src/bsp/mcu/s128/bsp_clocks.o
 .ARM.attributes
                0x0000036a       0x32 ./synergy/ssp/src/bsp/mcu/s128/bsp_feature.o
 .ARM.attributes
                0x0000039c       0x32 ./synergy/ssp/src/bsp/mcu/s128/bsp_group_irq.o
 .ARM.attributes
                0x000003ce       0x32 ./synergy/ssp/src/bsp/mcu/s128/bsp_hw_locks.o
 .ARM.attributes
                0x00000400       0x32 ./synergy/ssp/src/bsp/mcu/s128/bsp_module_stop.o
 .ARM.attributes
                0x00000432       0x32 ./synergy/ssp/src/bsp/mcu/s128/bsp_rom_registers.o
 .ARM.attributes
                0x00000464       0x32 ./synergy/ssp/src/bsp/mcu/all/bsp_common.o
 .ARM.attributes
                0x00000496       0x32 ./synergy/ssp/src/bsp/mcu/all/bsp_delay.o
 .ARM.attributes
                0x000004c8       0x32 ./synergy/ssp/src/bsp/mcu/all/bsp_irq.o
 .ARM.attributes
                0x000004fa       0x32 ./synergy/ssp/src/bsp/mcu/all/bsp_locking.o
 .ARM.attributes
                0x0000052c       0x32 ./synergy/ssp/src/bsp/mcu/all/bsp_register_protection.o
 .ARM.attributes
                0x0000055e       0x32 ./synergy/ssp/src/bsp/mcu/all/bsp_sbrk.o
 .ARM.attributes
                0x00000590       0x32 ./synergy/ssp/src/bsp/cmsis/Device/RENESAS/S128/Source/startup_S128.o
 .ARM.attributes
                0x000005c2       0x32 ./synergy/ssp/src/bsp/cmsis/Device/RENESAS/S128/Source/system_S128.o
 .ARM.attributes
                0x000005f4       0x32 ./src/synergy_gen/hal_data.o
 .ARM.attributes
                0x00000626       0x32 ./src/synergy_gen/main.o
 .ARM.attributes
                0x00000658       0x32 ./src/synergy_gen/pin_data.o
 .ARM.attributes
                0x0000068a       0x32 ./src/frame_processing.o
 .ARM.attributes
                0x000006bc       0x32 ./src/hal_entry.o
 .ARM.attributes
                0x000006ee       0x32 ./src/int_prot_frame.o
 .ARM.attributes
                0x00000720       0x32 ./src/payload_processing.o
 .ARM.attributes
                0x00000752       0x32 ./src/rs485_driver.o
 .ARM.attributes
                0x00000784       0x32 ./src/time_out_handlers.o
 .ARM.attributes
                0x000007b6       0x1e c:/program files (x86)/gnu tools arm embedded/4.9 2015q3/bin/../lib/gcc/arm-none-eabi/4.9.3/armv6-m\libgcc.a(_udivsi3.o)
 .ARM.attributes
                0x000007d4       0x1e c:/program files (x86)/gnu tools arm embedded/4.9 2015q3/bin/../lib/gcc/arm-none-eabi/4.9.3/armv6-m\libgcc.a(_dvmd_tls.o)
 .ARM.attributes
                0x000007f2       0x1e c:/program files (x86)/gnu tools arm embedded/4.9 2015q3/bin/../lib/gcc/arm-none-eabi/4.9.3/armv6-m\libgcc.a(_arm_cmpsf2.o)
 .ARM.attributes
                0x00000810       0x1e c:/program files (x86)/gnu tools arm embedded/4.9 2015q3/bin/../lib/gcc/arm-none-eabi/4.9.3/armv6-m\libgcc.a(_aeabi_uldivmod.o)
 .ARM.attributes
                0x0000082e       0x2c c:/program files (x86)/gnu tools arm embedded/4.9 2015q3/bin/../lib/gcc/arm-none-eabi/4.9.3/armv6-m\libgcc.a(_muldi3.o)
 .ARM.attributes
                0x0000085a       0x2c c:/program files (x86)/gnu tools arm embedded/4.9 2015q3/bin/../lib/gcc/arm-none-eabi/4.9.3/armv6-m\libgcc.a(_fixunssfsi.o)
 .ARM.attributes
                0x00000886       0x2c c:/program files (x86)/gnu tools arm embedded/4.9 2015q3/bin/../lib/gcc/arm-none-eabi/4.9.3/armv6-m\libgcc.a(bpabi.o)
 .ARM.attributes
                0x000008b2       0x2c c:/program files (x86)/gnu tools arm embedded/4.9 2015q3/bin/../lib/gcc/arm-none-eabi/4.9.3/armv6-m\libgcc.a(addsf3.o)
 .ARM.attributes
                0x000008de       0x2c c:/program files (x86)/gnu tools arm embedded/4.9 2015q3/bin/../lib/gcc/arm-none-eabi/4.9.3/armv6-m\libgcc.a(divsf3.o)
 .ARM.attributes
                0x0000090a       0x2c c:/program files (x86)/gnu tools arm embedded/4.9 2015q3/bin/../lib/gcc/arm-none-eabi/4.9.3/armv6-m\libgcc.a(eqsf2.o)
 .ARM.attributes
                0x00000936       0x2c c:/program files (x86)/gnu tools arm embedded/4.9 2015q3/bin/../lib/gcc/arm-none-eabi/4.9.3/armv6-m\libgcc.a(gesf2.o)
 .ARM.attributes
                0x00000962       0x2c c:/program files (x86)/gnu tools arm embedded/4.9 2015q3/bin/../lib/gcc/arm-none-eabi/4.9.3/armv6-m\libgcc.a(lesf2.o)
 .ARM.attributes
                0x0000098e       0x2c c:/program files (x86)/gnu tools arm embedded/4.9 2015q3/bin/../lib/gcc/arm-none-eabi/4.9.3/armv6-m\libgcc.a(mulsf3.o)
 .ARM.attributes
                0x000009ba       0x2c c:/program files (x86)/gnu tools arm embedded/4.9 2015q3/bin/../lib/gcc/arm-none-eabi/4.9.3/armv6-m\libgcc.a(subsf3.o)
 .ARM.attributes
                0x000009e6       0x2c c:/program files (x86)/gnu tools arm embedded/4.9 2015q3/bin/../lib/gcc/arm-none-eabi/4.9.3/armv6-m\libgcc.a(fixsfsi.o)
 .ARM.attributes
                0x00000a12       0x2c c:/program files (x86)/gnu tools arm embedded/4.9 2015q3/bin/../lib/gcc/arm-none-eabi/4.9.3/armv6-m\libgcc.a(floatsisf.o)
 .ARM.attributes
                0x00000a3e       0x2c c:/program files (x86)/gnu tools arm embedded/4.9 2015q3/bin/../lib/gcc/arm-none-eabi/4.9.3/armv6-m\libgcc.a(floatunsisf.o)
 .ARM.attributes
                0x00000a6a       0x1e c:/program files (x86)/gnu tools arm embedded/4.9 2015q3/bin/../lib/gcc/arm-none-eabi/4.9.3/armv6-m\libgcc.a(_clzsi2.o)
 .ARM.attributes
                0x00000a88       0x2c c:/program files (x86)/gnu tools arm embedded/4.9 2015q3/bin/../lib/gcc/arm-none-eabi/4.9.3/armv6-m\libgcc.a(_divdi3.o)
 .ARM.attributes
                0x00000ab4       0x2c c:/program files (x86)/gnu tools arm embedded/4.9 2015q3/bin/../lib/gcc/arm-none-eabi/4.9.3/armv6-m\libgcc.a(_udivdi3.o)
 .ARM.attributes
                0x00000ae0       0x1e c:/program files (x86)/gnu tools arm embedded/4.9 2015q3/bin/../lib/gcc/arm-none-eabi/4.9.3/armv6-m\libgcc.a(_clzdi2.o)
 .ARM.attributes
                0x00000afe       0x2c c:/program files (x86)/gnu tools arm embedded/4.9 2015q3/bin/../lib/gcc/arm-none-eabi/4.9.3/../../../../arm-none-eabi/lib/armv6-m\libg_nano.a(lib_a-errno.o)
 .ARM.attributes
                0x00000b2a       0x2c c:/program files (x86)/gnu tools arm embedded/4.9 2015q3/bin/../lib/gcc/arm-none-eabi/4.9.3/../../../../arm-none-eabi/lib/armv6-m\libg_nano.a(lib_a-impure.o)
 .ARM.attributes
                0x00000b56       0x2c c:/program files (x86)/gnu tools arm embedded/4.9 2015q3/bin/../lib/gcc/arm-none-eabi/4.9.3/../../../../arm-none-eabi/lib/armv6-m\libg_nano.a(lib_a-memcpy.o)
 .ARM.attributes
                0x00000b82       0x2c c:/program files (x86)/gnu tools arm embedded/4.9 2015q3/bin/../lib/gcc/arm-none-eabi/4.9.3/../../../../arm-none-eabi/lib/armv6-m\libg_nano.a(lib_a-memset.o)
 .ARM.attributes
                0x00000bae       0x2c c:/program files (x86)/gnu tools arm embedded/4.9 2015q3/bin/../lib/gcc/arm-none-eabi/4.9.3/../../../../arm-none-eabi/lib/armv6-m\libg_nano.a(lib_a-printf.o)
 .ARM.attributes
                0x00000bda       0x2c c:/program files (x86)/gnu tools arm embedded/4.9 2015q3/bin/../lib/gcc/arm-none-eabi/4.9.3/../../../../arm-none-eabi/lib/armv6-m\libg_nano.a(lib_a-findfp.o)
 .ARM.attributes
                0x00000c06       0x2c c:/program files (x86)/gnu tools arm embedded/4.9 2015q3/bin/../lib/gcc/arm-none-eabi/4.9.3/../../../../arm-none-eabi/lib/armv6-m\libg_nano.a(lib_a-fwalk.o)
 .ARM.attributes
                0x00000c32       0x2c c:/program files (x86)/gnu tools arm embedded/4.9 2015q3/bin/../lib/gcc/arm-none-eabi/4.9.3/../../../../arm-none-eabi/lib/armv6-m\libg_nano.a(lib_a-nano-mallocr.o)
 .ARM.attributes
                0x00000c5e       0x2c c:/program files (x86)/gnu tools arm embedded/4.9 2015q3/bin/../lib/gcc/arm-none-eabi/4.9.3/../../../../arm-none-eabi/lib/armv6-m\libg_nano.a(lib_a-nano-vfprintf.o)
 .ARM.attributes
                0x00000c8a       0x2c c:/program files (x86)/gnu tools arm embedded/4.9 2015q3/bin/../lib/gcc/arm-none-eabi/4.9.3/../../../../arm-none-eabi/lib/armv6-m\libg_nano.a(lib_a-nano-vfprintf_i.o)
 .ARM.attributes
                0x00000cb6       0x2c c:/program files (x86)/gnu tools arm embedded/4.9 2015q3/bin/../lib/gcc/arm-none-eabi/4.9.3/../../../../arm-none-eabi/lib/armv6-m\libg_nano.a(lib_a-sbrkr.o)
 .ARM.attributes
                0x00000ce2       0x2c c:/program files (x86)/gnu tools arm embedded/4.9 2015q3/bin/../lib/gcc/arm-none-eabi/4.9.3/../../../../arm-none-eabi/lib/armv6-m\libg_nano.a(lib_a-stdio.o)
 .ARM.attributes
                0x00000d0e       0x2c c:/program files (x86)/gnu tools arm embedded/4.9 2015q3/bin/../lib/gcc/arm-none-eabi/4.9.3/../../../../arm-none-eabi/lib/armv6-m\libg_nano.a(lib_a-wbuf.o)
 .ARM.attributes
                0x00000d3a       0x2c c:/program files (x86)/gnu tools arm embedded/4.9 2015q3/bin/../lib/gcc/arm-none-eabi/4.9.3/../../../../arm-none-eabi/lib/armv6-m\libg_nano.a(lib_a-writer.o)
 .ARM.attributes
                0x00000d66       0x2c c:/program files (x86)/gnu tools arm embedded/4.9 2015q3/bin/../lib/gcc/arm-none-eabi/4.9.3/../../../../arm-none-eabi/lib/armv6-m\libg_nano.a(lib_a-wsetup.o)
 .ARM.attributes
                0x00000d92       0x2c c:/program files (x86)/gnu tools arm embedded/4.9 2015q3/bin/../lib/gcc/arm-none-eabi/4.9.3/../../../../arm-none-eabi/lib/armv6-m\libg_nano.a(lib_a-closer.o)
 .ARM.attributes
                0x00000dbe       0x2c c:/program files (x86)/gnu tools arm embedded/4.9 2015q3/bin/../lib/gcc/arm-none-eabi/4.9.3/../../../../arm-none-eabi/lib/armv6-m\libg_nano.a(lib_a-fflush.o)
 .ARM.attributes
                0x00000dea       0x2c c:/program files (x86)/gnu tools arm embedded/4.9 2015q3/bin/../lib/gcc/arm-none-eabi/4.9.3/../../../../arm-none-eabi/lib/armv6-m\libg_nano.a(lib_a-lseekr.o)
 .ARM.attributes
                0x00000e16       0x2c c:/program files (x86)/gnu tools arm embedded/4.9 2015q3/bin/../lib/gcc/arm-none-eabi/4.9.3/../../../../arm-none-eabi/lib/armv6-m\libg_nano.a(lib_a-makebuf.o)
 .ARM.attributes
                0x00000e42       0x2c c:/program files (x86)/gnu tools arm embedded/4.9 2015q3/bin/../lib/gcc/arm-none-eabi/4.9.3/../../../../arm-none-eabi/lib/armv6-m\libg_nano.a(lib_a-memchr.o)
 .ARM.attributes
                0x00000e6e       0x2c c:/program files (x86)/gnu tools arm embedded/4.9 2015q3/bin/../lib/gcc/arm-none-eabi/4.9.3/../../../../arm-none-eabi/lib/armv6-m\libg_nano.a(lib_a-nano-freer.o)
 .ARM.attributes
                0x00000e9a       0x2c c:/program files (x86)/gnu tools arm embedded/4.9 2015q3/bin/../lib/gcc/arm-none-eabi/4.9.3/../../../../arm-none-eabi/lib/armv6-m\libg_nano.a(lib_a-readr.o)
 .ARM.attributes
                0x00000ec6       0x2c c:/program files (x86)/gnu tools arm embedded/4.9 2015q3/bin/../lib/gcc/arm-none-eabi/4.9.3/../../../../arm-none-eabi/lib/armv6-m\libg_nano.a(lib_a-reent.o)
 .ARM.attributes
                0x00000ef2       0x2c c:/program files (x86)/gnu tools arm embedded/4.9 2015q3/bin/../lib/gcc/arm-none-eabi/4.9.3/../../../../arm-none-eabi/lib/armv6-m\libg_nano.a(lib_a-fstatr.o)
 .ARM.attributes
                0x00000f1e       0x2c c:/program files (x86)/gnu tools arm embedded/4.9 2015q3/bin/../lib/gcc/arm-none-eabi/4.9.3/../../../../arm-none-eabi/lib/armv6-m\libg_nano.a(lib_a-isattyr.o)
 .ARM.attributes
                0x00000f4a       0x2c c:/program files (x86)/gnu tools arm embedded/4.9 2015q3/bin/../lib/gcc/arm-none-eabi/4.9.3/../../../../arm-none-eabi/lib/armv6-m\librdimon_nano.a(rdimon-syscalls.o)
 .ARM.attributes
                0x00000f76       0x2c c:/program files (x86)/gnu tools arm embedded/4.9 2015q3/bin/../lib/gcc/arm-none-eabi/4.9.3/armv6-m/crtend.o
 .ARM.attributes
                0x00000fa2       0x1e c:/program files (x86)/gnu tools arm embedded/4.9 2015q3/bin/../lib/gcc/arm-none-eabi/4.9.3/armv6-m/crtn.o

.comment        0x00000000       0x70
 .comment       0x00000000       0x70 ./synergy/ssp/src/driver/r_sci_uart/r_sci_uart.o
                                 0x71 (size before relaxing)
 .comment       0x00000000       0x71 ./synergy/ssp/src/driver/r_ioport/r_ioport.o
 .comment       0x00000000       0x71 ./synergy/ssp/src/driver/r_gpt/r_gpt.o
 .comment       0x00000000       0x71 ./synergy/ssp/src/driver/r_fmi/r_fmi.o
 .comment       0x00000000       0x71 ./synergy/ssp/src/driver/r_flash_lp/hw/target/flash_lp_core/hw_codeflash.o
 .comment       0x00000000       0x71 ./synergy/ssp/src/driver/r_flash_lp/hw/target/flash_lp_core/hw_codeflash_extra.o
 .comment       0x00000000       0x71 ./synergy/ssp/src/driver/r_flash_lp/hw/target/flash_lp_core/hw_dataflash.o
 .comment       0x00000000       0x71 ./synergy/ssp/src/driver/r_flash_lp/hw/target/flash_lp_core/hw_flash_common.o
 .comment       0x00000000       0x71 ./synergy/ssp/src/driver/r_flash_lp/hw/target/hw_flash_lp.o
 .comment       0x00000000       0x71 ./synergy/ssp/src/driver/r_flash_lp/r_flash_lp.o
 .comment       0x00000000       0x71 ./synergy/ssp/src/driver/r_elc/r_elc.o
 .comment       0x00000000       0x71 ./synergy/ssp/src/driver/r_dtc/r_dtc.o
 .comment       0x00000000       0x71 ./synergy/ssp/src/driver/r_cgc/hw/hw_cgc.o
 .comment       0x00000000       0x71 ./synergy/ssp/src/driver/r_cgc/r_cgc.o
 .comment       0x00000000       0x71 ./synergy/ssp/src/bsp/mcu/s128/bsp_cache.o
 .comment       0x00000000       0x71 ./synergy/ssp/src/bsp/mcu/s128/bsp_clocks.o
 .comment       0x00000000       0x71 ./synergy/ssp/src/bsp/mcu/s128/bsp_feature.o
 .comment       0x00000000       0x71 ./synergy/ssp/src/bsp/mcu/s128/bsp_group_irq.o
 .comment       0x00000000       0x71 ./synergy/ssp/src/bsp/mcu/s128/bsp_hw_locks.o
 .comment       0x00000000       0x71 ./synergy/ssp/src/bsp/mcu/s128/bsp_module_stop.o
 .comment       0x00000000       0x71 ./synergy/ssp/src/bsp/mcu/s128/bsp_rom_registers.o
 .comment       0x00000000       0x71 ./synergy/ssp/src/bsp/mcu/all/bsp_common.o
 .comment       0x00000000       0x71 ./synergy/ssp/src/bsp/mcu/all/bsp_delay.o
 .comment       0x00000000       0x71 ./synergy/ssp/src/bsp/mcu/all/bsp_irq.o
 .comment       0x00000000       0x71 ./synergy/ssp/src/bsp/mcu/all/bsp_locking.o
 .comment       0x00000000       0x71 ./synergy/ssp/src/bsp/mcu/all/bsp_register_protection.o
 .comment       0x00000000       0x71 ./synergy/ssp/src/bsp/mcu/all/bsp_sbrk.o
 .comment       0x00000000       0x71 ./synergy/ssp/src/bsp/cmsis/Device/RENESAS/S128/Source/startup_S128.o
 .comment       0x00000000       0x71 ./synergy/ssp/src/bsp/cmsis/Device/RENESAS/S128/Source/system_S128.o
 .comment       0x00000000       0x71 ./src/synergy_gen/hal_data.o
 .comment       0x00000000       0x71 ./src/synergy_gen/main.o
 .comment       0x00000000       0x71 ./src/synergy_gen/pin_data.o
 .comment       0x00000000       0x71 ./src/frame_processing.o
 .comment       0x00000000       0x71 ./src/hal_entry.o
 .comment       0x00000000       0x71 ./src/int_prot_frame.o
 .comment       0x00000000       0x71 ./src/payload_processing.o
 .comment       0x00000000       0x71 ./src/rs485_driver.o
 .comment       0x00000000       0x71 ./src/time_out_handlers.o

.debug_info     0x00000000    0x461a2
 .debug_info    0x00000000     0x497b ./synergy/ssp/src/driver/r_sci_uart/r_sci_uart.o
 .debug_info    0x0000497b     0xc540 ./synergy/ssp/src/driver/r_ioport/r_ioport.o
 .debug_info    0x00010ebb     0x4936 ./synergy/ssp/src/driver/r_gpt/r_gpt.o
 .debug_info    0x000157f1     0x1ac3 ./synergy/ssp/src/driver/r_fmi/r_fmi.o
 .debug_info    0x000172b4     0x34bb ./synergy/ssp/src/driver/r_flash_lp/hw/target/flash_lp_core/hw_codeflash.o
 .debug_info    0x0001a76f     0x1428 ./synergy/ssp/src/driver/r_flash_lp/hw/target/flash_lp_core/hw_codeflash_extra.o
 .debug_info    0x0001bb97     0x3494 ./synergy/ssp/src/driver/r_flash_lp/hw/target/flash_lp_core/hw_dataflash.o
 .debug_info    0x0001f02b      0x18a ./synergy/ssp/src/driver/r_flash_lp/hw/target/flash_lp_core/hw_flash_common.o
 .debug_info    0x0001f1b5     0x1b50 ./synergy/ssp/src/driver/r_flash_lp/hw/target/hw_flash_lp.o
 .debug_info    0x00020d05     0x3765 ./synergy/ssp/src/driver/r_flash_lp/r_flash_lp.o
 .debug_info    0x0002446a     0x18a0 ./synergy/ssp/src/driver/r_elc/r_elc.o
 .debug_info    0x00025d0a     0x2a60 ./synergy/ssp/src/driver/r_dtc/r_dtc.o
 .debug_info    0x0002876a     0x30c2 ./synergy/ssp/src/driver/r_cgc/hw/hw_cgc.o
 .debug_info    0x0002b82c     0x3f31 ./synergy/ssp/src/driver/r_cgc/r_cgc.o
 .debug_info    0x0002f75d      0x514 ./synergy/ssp/src/bsp/mcu/s128/bsp_cache.o
 .debug_info    0x0002fc71      0xc33 ./synergy/ssp/src/bsp/mcu/s128/bsp_clocks.o
 .debug_info    0x000308a4      0x6d3 ./synergy/ssp/src/bsp/mcu/s128/bsp_feature.o
 .debug_info    0x00030f77      0xe84 ./synergy/ssp/src/bsp/mcu/s128/bsp_group_irq.o
 .debug_info    0x00031dfb      0xace ./synergy/ssp/src/bsp/mcu/s128/bsp_hw_locks.o
 .debug_info    0x000328c9     0x2963 ./synergy/ssp/src/bsp/mcu/s128/bsp_module_stop.o
 .debug_info    0x0003522c      0x141 ./synergy/ssp/src/bsp/mcu/s128/bsp_rom_registers.o
 .debug_info    0x0003536d      0x659 ./synergy/ssp/src/bsp/mcu/all/bsp_common.o
 .debug_info    0x000359c6      0x1e7 ./synergy/ssp/src/bsp/mcu/all/bsp_delay.o
 .debug_info    0x00035bad      0xb27 ./synergy/ssp/src/bsp/mcu/all/bsp_irq.o
 .debug_info    0x000366d4      0x968 ./synergy/ssp/src/bsp/mcu/all/bsp_locking.o
 .debug_info    0x0003703c     0x1f15 ./synergy/ssp/src/bsp/mcu/all/bsp_register_protection.o
 .debug_info    0x00038f51      0x1be ./synergy/ssp/src/bsp/mcu/all/bsp_sbrk.o
 .debug_info    0x0003910f      0x1c6 ./synergy/ssp/src/bsp/cmsis/Device/RENESAS/S128/Source/startup_S128.o
 .debug_info    0x000392d5     0x1ea2 ./synergy/ssp/src/bsp/cmsis/Device/RENESAS/S128/Source/system_S128.o
 .debug_info    0x0003b177     0x3af4 ./src/synergy_gen/hal_data.o
 .debug_info    0x0003ec6b       0x46 ./src/synergy_gen/main.o
 .debug_info    0x0003ecb1      0x8c4 ./src/synergy_gen/pin_data.o
 .debug_info    0x0003f575     0x11cb ./src/frame_processing.o
 .debug_info    0x00040740     0x174b ./src/hal_entry.o
 .debug_info    0x00041e8b      0x96c ./src/int_prot_frame.o
 .debug_info    0x000427f7      0x93f ./src/payload_processing.o
 .debug_info    0x00043136     0x1c9d ./src/rs485_driver.o
 .debug_info    0x00044dd3     0x13cf ./src/time_out_handlers.o

.debug_abbrev   0x00000000     0x5758
 .debug_abbrev  0x00000000      0x420 ./synergy/ssp/src/driver/r_sci_uart/r_sci_uart.o
 .debug_abbrev  0x00000420      0x419 ./synergy/ssp/src/driver/r_ioport/r_ioport.o
 .debug_abbrev  0x00000839      0x45a ./synergy/ssp/src/driver/r_gpt/r_gpt.o
 .debug_abbrev  0x00000c93      0x2f7 ./synergy/ssp/src/driver/r_fmi/r_fmi.o
 .debug_abbrev  0x00000f8a      0x2fb ./synergy/ssp/src/driver/r_flash_lp/hw/target/flash_lp_core/hw_codeflash.o
 .debug_abbrev  0x00001285      0x218 ./synergy/ssp/src/driver/r_flash_lp/hw/target/flash_lp_core/hw_codeflash_extra.o
 .debug_abbrev  0x0000149d      0x2fd ./synergy/ssp/src/driver/r_flash_lp/hw/target/flash_lp_core/hw_dataflash.o
 .debug_abbrev  0x0000179a       0xf2 ./synergy/ssp/src/driver/r_flash_lp/hw/target/flash_lp_core/hw_flash_common.o
 .debug_abbrev  0x0000188c      0x319 ./synergy/ssp/src/driver/r_flash_lp/hw/target/hw_flash_lp.o
 .debug_abbrev  0x00001ba5      0x3a2 ./synergy/ssp/src/driver/r_flash_lp/r_flash_lp.o
 .debug_abbrev  0x00001f47      0x27a ./synergy/ssp/src/driver/r_elc/r_elc.o
 .debug_abbrev  0x000021c1      0x429 ./synergy/ssp/src/driver/r_dtc/r_dtc.o
 .debug_abbrev  0x000025ea      0x36e ./synergy/ssp/src/driver/r_cgc/hw/hw_cgc.o
 .debug_abbrev  0x00002958      0x33a ./synergy/ssp/src/driver/r_cgc/r_cgc.o
 .debug_abbrev  0x00002c92       0xe5 ./synergy/ssp/src/bsp/mcu/s128/bsp_cache.o
 .debug_abbrev  0x00002d77      0x1bf ./synergy/ssp/src/bsp/mcu/s128/bsp_clocks.o
 .debug_abbrev  0x00002f36      0x125 ./synergy/ssp/src/bsp/mcu/s128/bsp_feature.o
 .debug_abbrev  0x0000305b      0x200 ./synergy/ssp/src/bsp/mcu/s128/bsp_group_irq.o
 .debug_abbrev  0x0000325b      0x12a ./synergy/ssp/src/bsp/mcu/s128/bsp_hw_locks.o
 .debug_abbrev  0x00003385      0x2b0 ./synergy/ssp/src/bsp/mcu/s128/bsp_module_stop.o
 .debug_abbrev  0x00003635       0xbf ./synergy/ssp/src/bsp/mcu/s128/bsp_rom_registers.o
 .debug_abbrev  0x000036f4      0x161 ./synergy/ssp/src/bsp/mcu/all/bsp_common.o
 .debug_abbrev  0x00003855      0x108 ./synergy/ssp/src/bsp/mcu/all/bsp_delay.o
 .debug_abbrev  0x0000395d      0x1e0 ./synergy/ssp/src/bsp/mcu/all/bsp_irq.o
 .debug_abbrev  0x00003b3d      0x276 ./synergy/ssp/src/bsp/mcu/all/bsp_locking.o
 .debug_abbrev  0x00003db3      0x213 ./synergy/ssp/src/bsp/mcu/all/bsp_register_protection.o
 .debug_abbrev  0x00003fc6       0xef ./synergy/ssp/src/bsp/mcu/all/bsp_sbrk.o
 .debug_abbrev  0x000040b5      0x114 ./synergy/ssp/src/bsp/cmsis/Device/RENESAS/S128/Source/startup_S128.o
 .debug_abbrev  0x000041c9      0x2a2 ./synergy/ssp/src/bsp/cmsis/Device/RENESAS/S128/Source/system_S128.o
 .debug_abbrev  0x0000446b      0x250 ./src/synergy_gen/hal_data.o
 .debug_abbrev  0x000046bb       0x3c ./src/synergy_gen/main.o
 .debug_abbrev  0x000046f7       0xf7 ./src/synergy_gen/pin_data.o
 .debug_abbrev  0x000047ee      0x301 ./src/frame_processing.o
 .debug_abbrev  0x00004aef      0x2ac ./src/hal_entry.o
 .debug_abbrev  0x00004d9b      0x25f ./src/int_prot_frame.o
 .debug_abbrev  0x00004ffa      0x224 ./src/payload_processing.o
 .debug_abbrev  0x0000521e      0x2e7 ./src/rs485_driver.o
 .debug_abbrev  0x00005505      0x253 ./src/time_out_handlers.o

.debug_aranges  0x00000000     0x1278
 .debug_aranges
                0x00000000      0x300 ./synergy/ssp/src/driver/r_sci_uart/r_sci_uart.o
 .debug_aranges
                0x00000300      0x120 ./synergy/ssp/src/driver/r_ioport/r_ioport.o
 .debug_aranges
                0x00000420      0x1b0 ./synergy/ssp/src/driver/r_gpt/r_gpt.o
 .debug_aranges
                0x000005d0       0x68 ./synergy/ssp/src/driver/r_fmi/r_fmi.o
 .debug_aranges
                0x00000638       0x80 ./synergy/ssp/src/driver/r_flash_lp/hw/target/flash_lp_core/hw_codeflash.o
 .debug_aranges
                0x000006b8       0x48 ./synergy/ssp/src/driver/r_flash_lp/hw/target/flash_lp_core/hw_codeflash_extra.o
 .debug_aranges
                0x00000700       0x88 ./synergy/ssp/src/driver/r_flash_lp/hw/target/flash_lp_core/hw_dataflash.o
 .debug_aranges
                0x00000788       0x28 ./synergy/ssp/src/driver/r_flash_lp/hw/target/flash_lp_core/hw_flash_common.o
 .debug_aranges
                0x000007b0       0xa0 ./synergy/ssp/src/driver/r_flash_lp/hw/target/hw_flash_lp.o
 .debug_aranges
                0x00000850      0x100 ./synergy/ssp/src/driver/r_flash_lp/r_flash_lp.o
 .debug_aranges
                0x00000950       0x80 ./synergy/ssp/src/driver/r_elc/r_elc.o
 .debug_aranges
                0x000009d0       0xc0 ./synergy/ssp/src/driver/r_dtc/r_dtc.o
 .debug_aranges
                0x00000a90      0x1d8 ./synergy/ssp/src/driver/r_cgc/hw/hw_cgc.o
 .debug_aranges
                0x00000c68      0x108 ./synergy/ssp/src/driver/r_cgc/r_cgc.o
 .debug_aranges
                0x00000d70       0x28 ./synergy/ssp/src/bsp/mcu/s128/bsp_cache.o
 .debug_aranges
                0x00000d98       0x30 ./synergy/ssp/src/bsp/mcu/s128/bsp_clocks.o
 .debug_aranges
                0x00000dc8       0x60 ./synergy/ssp/src/bsp/mcu/s128/bsp_feature.o
 .debug_aranges
                0x00000e28       0x38 ./synergy/ssp/src/bsp/mcu/s128/bsp_group_irq.o
 .debug_aranges
                0x00000e60       0x18 ./synergy/ssp/src/bsp/mcu/s128/bsp_hw_locks.o
 .debug_aranges
                0x00000e78       0x30 ./synergy/ssp/src/bsp/mcu/s128/bsp_module_stop.o
 .debug_aranges
                0x00000ea8       0x18 ./synergy/ssp/src/bsp/mcu/s128/bsp_rom_registers.o
 .debug_aranges
                0x00000ec0       0x30 ./synergy/ssp/src/bsp/mcu/all/bsp_common.o
 .debug_aranges
                0x00000ef0       0x28 ./synergy/ssp/src/bsp/mcu/all/bsp_delay.o
 .debug_aranges
                0x00000f18       0x28 ./synergy/ssp/src/bsp/mcu/all/bsp_irq.o
 .debug_aranges
                0x00000f40       0x50 ./synergy/ssp/src/bsp/mcu/all/bsp_locking.o
 .debug_aranges
                0x00000f90       0x30 ./synergy/ssp/src/bsp/mcu/all/bsp_register_protection.o
 .debug_aranges
                0x00000fc0       0x20 ./synergy/ssp/src/bsp/mcu/all/bsp_sbrk.o
 .debug_aranges
                0x00000fe0       0x28 ./synergy/ssp/src/bsp/cmsis/Device/RENESAS/S128/Source/startup_S128.o
 .debug_aranges
                0x00001008       0x48 ./synergy/ssp/src/bsp/cmsis/Device/RENESAS/S128/Source/system_S128.o
 .debug_aranges
                0x00001050       0x20 ./src/synergy_gen/hal_data.o
 .debug_aranges
                0x00001070       0x20 ./src/synergy_gen/main.o
 .debug_aranges
                0x00001090       0x18 ./src/synergy_gen/pin_data.o
 .debug_aranges
                0x000010a8       0x60 ./src/frame_processing.o
 .debug_aranges
                0x00001108       0x38 ./src/hal_entry.o
 .debug_aranges
                0x00001140       0x50 ./src/int_prot_frame.o
 .debug_aranges
                0x00001190       0x40 ./src/payload_processing.o
 .debug_aranges
                0x000011d0       0x68 ./src/rs485_driver.o
 .debug_aranges
                0x00001238       0x40 ./src/time_out_handlers.o

.debug_ranges   0x00000000     0x1018
 .debug_ranges  0x00000000      0x2f0 ./synergy/ssp/src/driver/r_sci_uart/r_sci_uart.o
 .debug_ranges  0x000002f0      0x110 ./synergy/ssp/src/driver/r_ioport/r_ioport.o
 .debug_ranges  0x00000400      0x1a0 ./synergy/ssp/src/driver/r_gpt/r_gpt.o
 .debug_ranges  0x000005a0       0x58 ./synergy/ssp/src/driver/r_fmi/r_fmi.o
 .debug_ranges  0x000005f8       0x70 ./synergy/ssp/src/driver/r_flash_lp/hw/target/flash_lp_core/hw_codeflash.o
 .debug_ranges  0x00000668       0x38 ./synergy/ssp/src/driver/r_flash_lp/hw/target/flash_lp_core/hw_codeflash_extra.o
 .debug_ranges  0x000006a0       0x78 ./synergy/ssp/src/driver/r_flash_lp/hw/target/flash_lp_core/hw_dataflash.o
 .debug_ranges  0x00000718       0x18 ./synergy/ssp/src/driver/r_flash_lp/hw/target/flash_lp_core/hw_flash_common.o
 .debug_ranges  0x00000730       0x90 ./synergy/ssp/src/driver/r_flash_lp/hw/target/hw_flash_lp.o
 .debug_ranges  0x000007c0       0xf0 ./synergy/ssp/src/driver/r_flash_lp/r_flash_lp.o
 .debug_ranges  0x000008b0       0x70 ./synergy/ssp/src/driver/r_elc/r_elc.o
 .debug_ranges  0x00000920       0xb0 ./synergy/ssp/src/driver/r_dtc/r_dtc.o
 .debug_ranges  0x000009d0      0x1c8 ./synergy/ssp/src/driver/r_cgc/hw/hw_cgc.o
 .debug_ranges  0x00000b98       0xf8 ./synergy/ssp/src/driver/r_cgc/r_cgc.o
 .debug_ranges  0x00000c90       0x18 ./synergy/ssp/src/bsp/mcu/s128/bsp_cache.o
 .debug_ranges  0x00000ca8       0x20 ./synergy/ssp/src/bsp/mcu/s128/bsp_clocks.o
 .debug_ranges  0x00000cc8       0x50 ./synergy/ssp/src/bsp/mcu/s128/bsp_feature.o
 .debug_ranges  0x00000d18       0x28 ./synergy/ssp/src/bsp/mcu/s128/bsp_group_irq.o
 .debug_ranges  0x00000d40       0x20 ./synergy/ssp/src/bsp/mcu/s128/bsp_module_stop.o
 .debug_ranges  0x00000d60       0x20 ./synergy/ssp/src/bsp/mcu/all/bsp_common.o
 .debug_ranges  0x00000d80       0x18 ./synergy/ssp/src/bsp/mcu/all/bsp_delay.o
 .debug_ranges  0x00000d98       0x18 ./synergy/ssp/src/bsp/mcu/all/bsp_irq.o
 .debug_ranges  0x00000db0       0x40 ./synergy/ssp/src/bsp/mcu/all/bsp_locking.o
 .debug_ranges  0x00000df0       0x20 ./synergy/ssp/src/bsp/mcu/all/bsp_register_protection.o
 .debug_ranges  0x00000e10       0x10 ./synergy/ssp/src/bsp/mcu/all/bsp_sbrk.o
 .debug_ranges  0x00000e20       0x18 ./synergy/ssp/src/bsp/cmsis/Device/RENESAS/S128/Source/startup_S128.o
 .debug_ranges  0x00000e38       0x38 ./synergy/ssp/src/bsp/cmsis/Device/RENESAS/S128/Source/system_S128.o
 .debug_ranges  0x00000e70       0x10 ./src/synergy_gen/hal_data.o
 .debug_ranges  0x00000e80       0x10 ./src/synergy_gen/main.o
 .debug_ranges  0x00000e90       0x50 ./src/frame_processing.o
 .debug_ranges  0x00000ee0       0x28 ./src/hal_entry.o
 .debug_ranges  0x00000f08       0x40 ./src/int_prot_frame.o
 .debug_ranges  0x00000f48       0x48 ./src/payload_processing.o
 .debug_ranges  0x00000f90       0x58 ./src/rs485_driver.o
 .debug_ranges  0x00000fe8       0x30 ./src/time_out_handlers.o

.debug_macro    0x00000000     0x9ef5
 .debug_macro   0x00000000      0x2f7 ./synergy/ssp/src/driver/r_sci_uart/r_sci_uart.o
 .debug_macro   0x000002f7      0x826 ./synergy/ssp/src/driver/r_sci_uart/r_sci_uart.o
 .debug_macro   0x00000b1d       0x22 ./synergy/ssp/src/driver/r_sci_uart/r_sci_uart.o
 .debug_macro   0x00000b3f       0x44 ./synergy/ssp/src/driver/r_sci_uart/r_sci_uart.o
 .debug_macro   0x00000b83       0xe3 ./synergy/ssp/src/driver/r_sci_uart/r_sci_uart.o
 .debug_macro   0x00000c66       0x22 ./synergy/ssp/src/driver/r_sci_uart/r_sci_uart.o
 .debug_macro   0x00000c88      0x1df ./synergy/ssp/src/driver/r_sci_uart/r_sci_uart.o
 .debug_macro   0x00000e67      0x166 ./synergy/ssp/src/driver/r_sci_uart/r_sci_uart.o
 .debug_macro   0x00000fcd       0x22 ./synergy/ssp/src/driver/r_sci_uart/r_sci_uart.o
 .debug_macro   0x00000fef       0x58 ./synergy/ssp/src/driver/r_sci_uart/r_sci_uart.o
 .debug_macro   0x00001047       0x35 ./synergy/ssp/src/driver/r_sci_uart/r_sci_uart.o
 .debug_macro   0x0000107c       0x9c ./synergy/ssp/src/driver/r_sci_uart/r_sci_uart.o
 .debug_macro   0x00001118       0x16 ./synergy/ssp/src/driver/r_sci_uart/r_sci_uart.o
 .debug_macro   0x0000112e       0x10 ./synergy/ssp/src/driver/r_sci_uart/r_sci_uart.o
 .debug_macro   0x0000113e       0x2e ./synergy/ssp/src/driver/r_sci_uart/r_sci_uart.o
 .debug_macro   0x0000116c       0x3a ./synergy/ssp/src/driver/r_sci_uart/r_sci_uart.o
 .debug_macro   0x000011a6       0x7b ./synergy/ssp/src/driver/r_sci_uart/r_sci_uart.o
 .debug_macro   0x00001221       0x2e ./synergy/ssp/src/driver/r_sci_uart/r_sci_uart.o
 .debug_macro   0x0000124f       0x2e ./synergy/ssp/src/driver/r_sci_uart/r_sci_uart.o
 .debug_macro   0x0000127d       0x10 ./synergy/ssp/src/driver/r_sci_uart/r_sci_uart.o
 .debug_macro   0x0000128d       0x28 ./synergy/ssp/src/driver/r_sci_uart/r_sci_uart.o
 .debug_macro   0x000012b5       0x3a ./synergy/ssp/src/driver/r_sci_uart/r_sci_uart.o
 .debug_macro   0x000012ef       0x26 ./synergy/ssp/src/driver/r_sci_uart/r_sci_uart.o
 .debug_macro   0x00001315      0x42c ./synergy/ssp/src/driver/r_sci_uart/r_sci_uart.o
 .debug_macro   0x00001741      0x472 ./synergy/ssp/src/driver/r_sci_uart/r_sci_uart.o
 .debug_macro   0x00001bb3       0x16 ./synergy/ssp/src/driver/r_sci_uart/r_sci_uart.o
 .debug_macro   0x00001bc9       0x1c ./synergy/ssp/src/driver/r_sci_uart/r_sci_uart.o
 .debug_macro   0x00001be5       0x29 ./synergy/ssp/src/driver/r_sci_uart/r_sci_uart.o
 .debug_macro   0x00001c0e       0x16 ./synergy/ssp/src/driver/r_sci_uart/r_sci_uart.o
 .debug_macro   0x00001c24       0x10 ./synergy/ssp/src/driver/r_sci_uart/r_sci_uart.o
 .debug_macro   0x00001c34       0x58 ./synergy/ssp/src/driver/r_sci_uart/r_sci_uart.o
 .debug_macro   0x00001c8c       0x58 ./synergy/ssp/src/driver/r_sci_uart/r_sci_uart.o
 .debug_macro   0x00001ce4       0x10 ./synergy/ssp/src/driver/r_sci_uart/r_sci_uart.o
 .debug_macro   0x00001cf4       0x16 ./synergy/ssp/src/driver/r_sci_uart/r_sci_uart.o
 .debug_macro   0x00001d0a       0x10 ./synergy/ssp/src/driver/r_sci_uart/r_sci_uart.o
 .debug_macro   0x00001d1a       0x10 ./synergy/ssp/src/driver/r_sci_uart/r_sci_uart.o
 .debug_macro   0x00001d2a       0x22 ./synergy/ssp/src/driver/r_sci_uart/r_sci_uart.o
 .debug_macro   0x00001d4c       0x10 ./synergy/ssp/src/driver/r_sci_uart/r_sci_uart.o
 .debug_macro   0x00001d5c       0x40 ./synergy/ssp/src/driver/r_sci_uart/r_sci_uart.o
 .debug_macro   0x00001d9c       0x28 ./synergy/ssp/src/driver/r_sci_uart/r_sci_uart.o
 .debug_macro   0x00001dc4       0x16 ./synergy/ssp/src/driver/r_sci_uart/r_sci_uart.o
 .debug_macro   0x00001dda       0x10 ./synergy/ssp/src/driver/r_sci_uart/r_sci_uart.o
 .debug_macro   0x00001dea       0x52 ./synergy/ssp/src/driver/r_sci_uart/r_sci_uart.o
 .debug_macro   0x00001e3c      0x2bc ./synergy/ssp/src/driver/r_ioport/r_ioport.o
 .debug_macro   0x000020f8       0x10 ./synergy/ssp/src/driver/r_ioport/r_ioport.o
 .debug_macro   0x00002108       0x10 ./synergy/ssp/src/driver/r_ioport/r_ioport.o
 .debug_macro   0x00002118       0x4c ./synergy/ssp/src/driver/r_ioport/r_ioport.o
 .debug_macro   0x00002164      0x305 ./synergy/ssp/src/driver/r_gpt/r_gpt.o
 .debug_macro   0x00002469       0x10 ./synergy/ssp/src/driver/r_gpt/r_gpt.o
 .debug_macro   0x00002479       0x10 ./synergy/ssp/src/driver/r_gpt/r_gpt.o
 .debug_macro   0x00002489       0x10 ./synergy/ssp/src/driver/r_gpt/r_gpt.o
 .debug_macro   0x00002499       0x10 ./synergy/ssp/src/driver/r_gpt/r_gpt.o
 .debug_macro   0x000024a9      0x2a0 ./synergy/ssp/src/driver/r_fmi/r_fmi.o
 .debug_macro   0x00002749       0x1c ./synergy/ssp/src/driver/r_fmi/r_fmi.o
 .debug_macro   0x00002765       0x16 ./synergy/ssp/src/driver/r_fmi/r_fmi.o
 .debug_macro   0x0000277b       0x1c ./synergy/ssp/src/driver/r_fmi/r_fmi.o
 .debug_macro   0x00002797      0x29f ./synergy/ssp/src/driver/r_flash_lp/hw/target/flash_lp_core/hw_codeflash.o
 .debug_macro   0x00002a36       0x16 ./synergy/ssp/src/driver/r_flash_lp/hw/target/flash_lp_core/hw_codeflash.o
 .debug_macro   0x00002a4c       0x16 ./synergy/ssp/src/driver/r_flash_lp/hw/target/flash_lp_core/hw_codeflash.o
 .debug_macro   0x00002a62       0x16 ./synergy/ssp/src/driver/r_flash_lp/hw/target/flash_lp_core/hw_codeflash.o
 .debug_macro   0x00002a78       0x16 ./synergy/ssp/src/driver/r_flash_lp/hw/target/flash_lp_core/hw_codeflash.o
 .debug_macro   0x00002a8e       0x40 ./synergy/ssp/src/driver/r_flash_lp/hw/target/flash_lp_core/hw_codeflash.o
 .debug_macro   0x00002ace       0x52 ./synergy/ssp/src/driver/r_flash_lp/hw/target/flash_lp_core/hw_codeflash.o
 .debug_macro   0x00002b20      0x2b1 ./synergy/ssp/src/driver/r_flash_lp/hw/target/flash_lp_core/hw_codeflash_extra.o
 .debug_macro   0x00002dd1       0x46 ./synergy/ssp/src/driver/r_flash_lp/hw/target/flash_lp_core/hw_codeflash_extra.o
 .debug_macro   0x00002e17       0x46 ./synergy/ssp/src/driver/r_flash_lp/hw/target/flash_lp_core/hw_codeflash_extra.o
 .debug_macro   0x00002e5d      0x29f ./synergy/ssp/src/driver/r_flash_lp/hw/target/flash_lp_core/hw_dataflash.o
 .debug_macro   0x000030fc      0x2bd ./synergy/ssp/src/driver/r_flash_lp/hw/target/flash_lp_core/hw_flash_common.o
 .debug_macro   0x000033b9      0x2c9 ./synergy/ssp/src/driver/r_flash_lp/hw/target/hw_flash_lp.o
 .debug_macro   0x00003682      0x2eb ./synergy/ssp/src/driver/r_flash_lp/r_flash_lp.o
 .debug_macro   0x0000396d      0x2b0 ./synergy/ssp/src/driver/r_elc/r_elc.o
 .debug_macro   0x00003c1d       0x10 ./synergy/ssp/src/driver/r_elc/r_elc.o
 .debug_macro   0x00003c2d       0x10 ./synergy/ssp/src/driver/r_elc/r_elc.o
 .debug_macro   0x00003c3d       0x10 ./synergy/ssp/src/driver/r_elc/r_elc.o
 .debug_macro   0x00003c4d       0x1c ./synergy/ssp/src/driver/r_elc/r_elc.o
 .debug_macro   0x00003c69      0x351 ./synergy/ssp/src/driver/r_dtc/r_dtc.o
 .debug_macro   0x00003fba       0x4a ./synergy/ssp/src/driver/r_dtc/r_dtc.o
 .debug_macro   0x00004004       0x52 ./synergy/ssp/src/driver/r_dtc/r_dtc.o
 .debug_macro   0x00004056       0x16 ./synergy/ssp/src/driver/r_dtc/r_dtc.o
 .debug_macro   0x0000406c       0x43 ./synergy/ssp/src/driver/r_dtc/r_dtc.o
 .debug_macro   0x000040af      0x180 ./synergy/ssp/src/driver/r_dtc/r_dtc.o
 .debug_macro   0x0000422f      0x29d ./synergy/ssp/src/driver/r_dtc/r_dtc.o
 .debug_macro   0x000044cc       0x10 ./synergy/ssp/src/driver/r_dtc/r_dtc.o
 .debug_macro   0x000044dc       0x35 ./synergy/ssp/src/driver/r_dtc/r_dtc.o
 .debug_macro   0x00004511       0x10 ./synergy/ssp/src/driver/r_dtc/r_dtc.o
 .debug_macro   0x00004521       0x1c ./synergy/ssp/src/driver/r_dtc/r_dtc.o
 .debug_macro   0x0000453d      0x2a3 ./synergy/ssp/src/driver/r_cgc/hw/hw_cgc.o
 .debug_macro   0x000047e0       0x10 ./synergy/ssp/src/driver/r_cgc/hw/hw_cgc.o
 .debug_macro   0x000047f0       0x3a ./synergy/ssp/src/driver/r_cgc/hw/hw_cgc.o
 .debug_macro   0x0000482a       0x64 ./synergy/ssp/src/driver/r_cgc/hw/hw_cgc.o
 .debug_macro   0x0000488e      0x2d5 ./synergy/ssp/src/driver/r_cgc/r_cgc.o
 .debug_macro   0x00004b63       0x16 ./synergy/ssp/src/driver/r_cgc/r_cgc.o
 .debug_macro   0x00004b79       0x5e ./synergy/ssp/src/driver/r_cgc/r_cgc.o
 .debug_macro   0x00004bd7      0x263 ./synergy/ssp/src/bsp/mcu/s128/bsp_cache.o
 .debug_macro   0x00004e3a      0x284 ./synergy/ssp/src/bsp/mcu/s128/bsp_clocks.o
 .debug_macro   0x000050be      0x28e ./synergy/ssp/src/bsp/mcu/s128/bsp_feature.o
 .debug_macro   0x0000534c      0x263 ./synergy/ssp/src/bsp/mcu/s128/bsp_group_irq.o
 .debug_macro   0x000055af      0x263 ./synergy/ssp/src/bsp/mcu/s128/bsp_hw_locks.o
 .debug_macro   0x00005812      0x29f ./synergy/ssp/src/bsp/mcu/s128/bsp_module_stop.o
 .debug_macro   0x00005ab1      0x269 ./synergy/ssp/src/bsp/mcu/s128/bsp_rom_registers.o
 .debug_macro   0x00005d1a      0x275 ./synergy/ssp/src/bsp/mcu/all/bsp_common.o
 .debug_macro   0x00005f8f      0x273 ./synergy/ssp/src/bsp/mcu/all/bsp_delay.o
 .debug_macro   0x00006202      0x26c ./synergy/ssp/src/bsp/mcu/all/bsp_irq.o
 .debug_macro   0x0000646e      0x275 ./synergy/ssp/src/bsp/mcu/all/bsp_locking.o
 .debug_macro   0x000066e3      0x269 ./synergy/ssp/src/bsp/mcu/all/bsp_register_protection.o
 .debug_macro   0x0000694c      0x2f2 ./synergy/ssp/src/bsp/mcu/all/bsp_sbrk.o
 .debug_macro   0x00006c3e       0x22 ./synergy/ssp/src/bsp/mcu/all/bsp_sbrk.o
 .debug_macro   0x00006c60       0xbe ./synergy/ssp/src/bsp/mcu/all/bsp_sbrk.o
 .debug_macro   0x00006d1e       0x10 ./synergy/ssp/src/bsp/mcu/all/bsp_sbrk.o
 .debug_macro   0x00006d2e      0x23b ./synergy/ssp/src/bsp/mcu/all/bsp_sbrk.o
 .debug_macro   0x00006f69      0x26a ./synergy/ssp/src/bsp/cmsis/Device/RENESAS/S128/Source/startup_S128.o
 .debug_macro   0x000071d3      0x2bb ./synergy/ssp/src/bsp/cmsis/Device/RENESAS/S128/Source/system_S128.o
 .debug_macro   0x0000748e       0x46 ./synergy/ssp/src/bsp/cmsis/Device/RENESAS/S128/Source/system_S128.o
 .debug_macro   0x000074d4      0x36c ./src/synergy_gen/hal_data.o
 .debug_macro   0x00007840       0x16 ./src/synergy_gen/hal_data.o
 .debug_macro   0x00007856       0x11 ./src/synergy_gen/main.o
 .debug_macro   0x00007867      0x27b ./src/synergy_gen/pin_data.o
 .debug_macro   0x00007ae2      0x3fc ./src/frame_processing.o
 .debug_macro   0x00007ede       0x82 ./src/frame_processing.o
 .debug_macro   0x00007f60      0x45d ./src/frame_processing.o
 .debug_macro   0x000083bd       0xf6 ./src/frame_processing.o
 .debug_macro   0x000084b3       0xa2 ./src/frame_processing.o
 .debug_macro   0x00008555       0x10 ./src/frame_processing.o
 .debug_macro   0x00008565       0x52 ./src/frame_processing.o
 .debug_macro   0x000085b7      0x64e ./src/frame_processing.o
 .debug_macro   0x00008c05       0x28 ./src/frame_processing.o
 .debug_macro   0x00008c2d      0x3f1 ./src/hal_entry.o
 .debug_macro   0x0000901e       0x10 ./src/hal_entry.o
 .debug_macro   0x0000902e      0x3b0 ./src/int_prot_frame.o
 .debug_macro   0x000093de      0x3c1 ./src/payload_processing.o
 .debug_macro   0x0000979f      0x378 ./src/rs485_driver.o
 .debug_macro   0x00009b17       0x16 ./src/rs485_driver.o
 .debug_macro   0x00009b2d       0x58 ./src/rs485_driver.o
 .debug_macro   0x00009b85      0x370 ./src/time_out_handlers.o

.debug_line     0x00000000    0x167a3
 .debug_line    0x00000000     0x12d0 ./synergy/ssp/src/driver/r_sci_uart/r_sci_uart.o
 .debug_line    0x000012d0      0xb71 ./synergy/ssp/src/driver/r_ioport/r_ioport.o
 .debug_line    0x00001e41      0xe5c ./synergy/ssp/src/driver/r_gpt/r_gpt.o
 .debug_line    0x00002c9d      0x9aa ./synergy/ssp/src/driver/r_fmi/r_fmi.o
 .debug_line    0x00003647      0x969 ./synergy/ssp/src/driver/r_flash_lp/hw/target/flash_lp_core/hw_codeflash.o
 .debug_line    0x00003fb0      0x903 ./synergy/ssp/src/driver/r_flash_lp/hw/target/flash_lp_core/hw_codeflash_extra.o
 .debug_line    0x000048b3      0xa11 ./synergy/ssp/src/driver/r_flash_lp/hw/target/flash_lp_core/hw_dataflash.o
 .debug_line    0x000052c4      0x899 ./synergy/ssp/src/driver/r_flash_lp/hw/target/flash_lp_core/hw_flash_common.o
 .debug_line    0x00005b5d      0xa56 ./synergy/ssp/src/driver/r_flash_lp/hw/target/hw_flash_lp.o
 .debug_line    0x000065b3      0xc35 ./synergy/ssp/src/driver/r_flash_lp/r_flash_lp.o
 .debug_line    0x000071e8      0x972 ./synergy/ssp/src/driver/r_elc/r_elc.o
 .debug_line    0x00007b5a      0xb38 ./synergy/ssp/src/driver/r_dtc/r_dtc.o
 .debug_line    0x00008692      0xd7d ./synergy/ssp/src/driver/r_cgc/hw/hw_cgc.o
 .debug_line    0x0000940f      0xd89 ./synergy/ssp/src/driver/r_cgc/r_cgc.o
 .debug_line    0x0000a198      0x75c ./synergy/ssp/src/bsp/mcu/s128/bsp_cache.o
